{
	"Payable.sol": {
		"Payable": {
			"abi": [
				{
					"inputs": [],
					"stateMutability": "payable",
					"type": "constructor"
				},
				{
					"inputs": [],
					"name": "deposit",
					"outputs": [],
					"stateMutability": "payable",
					"type": "function"
				},
				{
					"inputs": [],
					"name": "notPayable",
					"outputs": [],
					"stateMutability": "nonpayable",
					"type": "function"
				},
				{
					"inputs": [],
					"name": "owner",
					"outputs": [
						{
							"internalType": "address payable",
							"name": "",
							"type": "address"
						}
					],
					"stateMutability": "view",
					"type": "function"
				},
				{
					"inputs": [
						{
							"internalType": "address payable",
							"name": "_to",
							"type": "address"
						},
						{
							"internalType": "uint256",
							"name": "_amount",
							"type": "uint256"
						}
					],
					"name": "transfer",
					"outputs": [],
					"stateMutability": "nonpayable",
					"type": "function"
				},
				{
					"inputs": [],
					"name": "withdraw",
					"outputs": [],
					"stateMutability": "nonpayable",
					"type": "function"
				}
			],
			"devdoc": {
				"kind": "dev",
				"methods": {},
				"version": 1
			},
			"evm": {
				"assembly": "    /* \"Payable.sol\":157:1499  contract Payable{\r... */\n  mstore(0x40, 0x80)\n    /* \"Payable.sol\":351:361  msg.sender */\n  caller\n    /* \"Payable.sol\":335:340  owner */\n  0x00\n  dup1\n    /* \"Payable.sol\":335:362  owner = payable(msg.sender) */\n  0x0100\n  exp\n  dup2\n  sload\n  dup2\n  0xffffffffffffffffffffffffffffffffffffffff\n  mul\n  not\n  and\n  swap1\n  dup4\n  0xffffffffffffffffffffffffffffffffffffffff\n  and\n  mul\n  or\n  swap1\n  sstore\n  pop\n    /* \"Payable.sol\":157:1499  contract Payable{\r... */\n  dataSize(sub_0)\n  dup1\n  dataOffset(sub_0)\n  0x00\n  codecopy\n  0x00\n  return\nstop\n\nsub_0: assembly {\n        /* \"Payable.sol\":157:1499  contract Payable{\r... */\n      mstore(0x40, 0x80)\n      jumpi(tag_1, lt(calldatasize, 0x04))\n      shr(0xe0, calldataload(0x00))\n      dup1\n      0x273884bd\n      eq\n      tag_2\n      jumpi\n      dup1\n      0x3ccfd60b\n      eq\n      tag_3\n      jumpi\n      dup1\n      0x8da5cb5b\n      eq\n      tag_4\n      jumpi\n      dup1\n      0xa9059cbb\n      eq\n      tag_5\n      jumpi\n      dup1\n      0xd0e30db0\n      eq\n      tag_6\n      jumpi\n    tag_1:\n      0x00\n      dup1\n      revert\n        /* \"Payable.sol\":720:751  function notPayable() public {} */\n    tag_2:\n      callvalue\n      dup1\n      iszero\n      tag_7\n      jumpi\n      0x00\n      dup1\n      revert\n    tag_7:\n      pop\n      tag_8\n      tag_9\n      jump\t// in\n    tag_8:\n      stop\n        /* \"Payable.sol\":818:1180  function withdraw() public {\r... */\n    tag_3:\n      callvalue\n      dup1\n      iszero\n      tag_10\n      jumpi\n      0x00\n      dup1\n      revert\n    tag_10:\n      pop\n      tag_11\n      tag_12\n      jump\t// in\n    tag_11:\n      stop\n        /* \"Payable.sol\":222:250  address payable public owner */\n    tag_4:\n      callvalue\n      dup1\n      iszero\n      tag_13\n      jumpi\n      0x00\n      dup1\n      revert\n    tag_13:\n      pop\n      tag_14\n      tag_15\n      jump\t// in\n    tag_14:\n      mload(0x40)\n      tag_16\n      swap2\n      swap1\n      tag_17\n      jump\t// in\n    tag_16:\n      mload(0x40)\n      dup1\n      swap2\n      sub\n      swap1\n      return\n        /* \"Payable.sol\":1264:1494  function transfer(address payable _to, uint _amount) public {\r... */\n    tag_5:\n      callvalue\n      dup1\n      iszero\n      tag_18\n      jumpi\n      0x00\n      dup1\n      revert\n    tag_18:\n      pop\n      tag_19\n      0x04\n      dup1\n      calldatasize\n      sub\n      dup2\n      add\n      swap1\n      tag_20\n      swap2\n      swap1\n      tag_21\n      jump\t// in\n    tag_20:\n      tag_22\n      jump\t// in\n    tag_19:\n      stop\n        /* \"Payable.sol\":550:585  function deposit() public payable{} */\n    tag_6:\n      tag_23\n      tag_24\n      jump\t// in\n    tag_23:\n      stop\n        /* \"Payable.sol\":720:751  function notPayable() public {} */\n    tag_9:\n      jump\t// out\n        /* \"Payable.sol\":818:1180  function withdraw() public {\r... */\n    tag_12:\n        /* \"Payable.sol\":916:927  uint amount */\n      0x00\n        /* \"Payable.sol\":930:951  address(this).balance */\n      selfbalance\n        /* \"Payable.sol\":916:951  uint amount = address(this).balance */\n      swap1\n      pop\n        /* \"Payable.sol\":1073:1085  bool success */\n      0x00\n        /* \"Payable.sol\":1091:1096  owner */\n      dup1\n      0x00\n      swap1\n      sload\n      swap1\n      0x0100\n      exp\n      swap1\n      div\n      0xffffffffffffffffffffffffffffffffffffffff\n      and\n        /* \"Payable.sol\":1091:1101  owner.call */\n      0xffffffffffffffffffffffffffffffffffffffff\n      and\n        /* \"Payable.sol\":1109:1115  amount */\n      dup3\n        /* \"Payable.sol\":1091:1120  owner.call{value: amount}(\"\") */\n      mload(0x40)\n      tag_27\n      swap1\n      tag_28\n      jump\t// in\n    tag_27:\n      0x00\n      mload(0x40)\n      dup1\n      dup4\n      sub\n      dup2\n      dup6\n      dup8\n      gas\n      call\n      swap3\n      pop\n      pop\n      pop\n      returndatasize\n      dup1\n      0x00\n      dup2\n      eq\n      tag_31\n      jumpi\n      mload(0x40)\n      swap2\n      pop\n      and(add(returndatasize, 0x3f), not(0x1f))\n      dup3\n      add\n      0x40\n      mstore\n      returndatasize\n      dup3\n      mstore\n      returndatasize\n      0x00\n      0x20\n      dup5\n      add\n      returndatacopy\n      jump(tag_30)\n    tag_31:\n      0x60\n      swap2\n      pop\n    tag_30:\n      pop\n        /* \"Payable.sol\":1072:1120  (bool success, ) = owner.call{value: amount}(\"\") */\n      pop\n      swap1\n      pop\n        /* \"Payable.sol\":1139:1146  success */\n      dup1\n        /* \"Payable.sol\":1131:1172  require(success,  \"Failed to send Ether\") */\n      tag_32\n      jumpi\n      mload(0x40)\n      0x08c379a000000000000000000000000000000000000000000000000000000000\n      dup2\n      mstore\n      0x04\n      add\n      tag_33\n      swap1\n      tag_34\n      jump\t// in\n    tag_33:\n      mload(0x40)\n      dup1\n      swap2\n      sub\n      swap1\n      revert\n    tag_32:\n        /* \"Payable.sol\":845:1180  {\r... */\n      pop\n      pop\n        /* \"Payable.sol\":818:1180  function withdraw() public {\r... */\n      jump\t// out\n        /* \"Payable.sol\":222:250  address payable public owner */\n    tag_15:\n      0x00\n      dup1\n      sload\n      swap1\n      0x0100\n      exp\n      swap1\n      div\n      0xffffffffffffffffffffffffffffffffffffffff\n      and\n      dup2\n      jump\t// out\n        /* \"Payable.sol\":1264:1494  function transfer(address payable _to, uint _amount) public {\r... */\n    tag_22:\n        /* \"Payable.sol\":1388:1400  bool success */\n      0x00\n        /* \"Payable.sol\":1406:1409  _to */\n      dup3\n        /* \"Payable.sol\":1406:1414  _to.call */\n      0xffffffffffffffffffffffffffffffffffffffff\n      and\n        /* \"Payable.sol\":1422:1429  _amount */\n      dup3\n        /* \"Payable.sol\":1406:1434  _to.call{value: _amount}(\"\") */\n      mload(0x40)\n      tag_36\n      swap1\n      tag_28\n      jump\t// in\n    tag_36:\n      0x00\n      mload(0x40)\n      dup1\n      dup4\n      sub\n      dup2\n      dup6\n      dup8\n      gas\n      call\n      swap3\n      pop\n      pop\n      pop\n      returndatasize\n      dup1\n      0x00\n      dup2\n      eq\n      tag_39\n      jumpi\n      mload(0x40)\n      swap2\n      pop\n      and(add(returndatasize, 0x3f), not(0x1f))\n      dup3\n      add\n      0x40\n      mstore\n      returndatasize\n      dup3\n      mstore\n      returndatasize\n      0x00\n      0x20\n      dup5\n      add\n      returndatacopy\n      jump(tag_38)\n    tag_39:\n      0x60\n      swap2\n      pop\n    tag_38:\n      pop\n        /* \"Payable.sol\":1387:1434  (bool success, ) = _to.call{value: _amount}(\"\") */\n      pop\n      swap1\n      pop\n        /* \"Payable.sol\":1454:1461  success */\n      dup1\n        /* \"Payable.sol\":1446:1486  require(success, \"Failed to send Ether\") */\n      tag_40\n      jumpi\n      mload(0x40)\n      0x08c379a000000000000000000000000000000000000000000000000000000000\n      dup2\n      mstore\n      0x04\n      add\n      tag_41\n      swap1\n      tag_34\n      jump\t// in\n    tag_41:\n      mload(0x40)\n      dup1\n      swap2\n      sub\n      swap1\n      revert\n    tag_40:\n        /* \"Payable.sol\":1324:1494  {\r... */\n      pop\n        /* \"Payable.sol\":1264:1494  function transfer(address payable _to, uint _amount) public {\r... */\n      pop\n      pop\n      jump\t// out\n        /* \"Payable.sol\":550:585  function deposit() public payable{} */\n    tag_24:\n      jump\t// out\n        /* \"#utility.yul\":7:162   */\n    tag_44:\n        /* \"#utility.yul\":61:66   */\n      0x00\n        /* \"#utility.yul\":99:105   */\n      dup2\n        /* \"#utility.yul\":86:106   */\n      calldataload\n        /* \"#utility.yul\":77:106   */\n      swap1\n      pop\n        /* \"#utility.yul\":115:156   */\n      tag_46\n        /* \"#utility.yul\":150:155   */\n      dup2\n        /* \"#utility.yul\":115:156   */\n      tag_47\n      jump\t// in\n    tag_46:\n        /* \"#utility.yul\":7:162   */\n      swap3\n      swap2\n      pop\n      pop\n      jump\t// out\n        /* \"#utility.yul\":168:307   */\n    tag_48:\n        /* \"#utility.yul\":214:219   */\n      0x00\n        /* \"#utility.yul\":252:258   */\n      dup2\n        /* \"#utility.yul\":239:259   */\n      calldataload\n        /* \"#utility.yul\":230:259   */\n      swap1\n      pop\n        /* \"#utility.yul\":268:301   */\n      tag_50\n        /* \"#utility.yul\":295:300   */\n      dup2\n        /* \"#utility.yul\":268:301   */\n      tag_51\n      jump\t// in\n    tag_50:\n        /* \"#utility.yul\":168:307   */\n      swap3\n      swap2\n      pop\n      pop\n      jump\t// out\n        /* \"#utility.yul\":313:803   */\n    tag_21:\n        /* \"#utility.yul\":389:395   */\n      0x00\n        /* \"#utility.yul\":397:403   */\n      dup1\n        /* \"#utility.yul\":446:448   */\n      0x40\n        /* \"#utility.yul\":434:443   */\n      dup4\n        /* \"#utility.yul\":425:432   */\n      dup6\n        /* \"#utility.yul\":421:444   */\n      sub\n        /* \"#utility.yul\":417:449   */\n      slt\n        /* \"#utility.yul\":414:533   */\n      iszero\n      tag_53\n      jumpi\n        /* \"#utility.yul\":452:531   */\n      tag_54\n      tag_55\n      jump\t// in\n    tag_54:\n        /* \"#utility.yul\":414:533   */\n    tag_53:\n        /* \"#utility.yul\":572:573   */\n      0x00\n        /* \"#utility.yul\":597:658   */\n      tag_56\n        /* \"#utility.yul\":650:657   */\n      dup6\n        /* \"#utility.yul\":641:647   */\n      dup3\n        /* \"#utility.yul\":630:639   */\n      dup7\n        /* \"#utility.yul\":626:648   */\n      add\n        /* \"#utility.yul\":597:658   */\n      tag_44\n      jump\t// in\n    tag_56:\n        /* \"#utility.yul\":587:658   */\n      swap3\n      pop\n        /* \"#utility.yul\":543:668   */\n      pop\n        /* \"#utility.yul\":707:709   */\n      0x20\n        /* \"#utility.yul\":733:786   */\n      tag_57\n        /* \"#utility.yul\":778:785   */\n      dup6\n        /* \"#utility.yul\":769:775   */\n      dup3\n        /* \"#utility.yul\":758:767   */\n      dup7\n        /* \"#utility.yul\":754:776   */\n      add\n        /* \"#utility.yul\":733:786   */\n      tag_48\n      jump\t// in\n    tag_57:\n        /* \"#utility.yul\":723:786   */\n      swap2\n      pop\n        /* \"#utility.yul\":678:796   */\n      pop\n        /* \"#utility.yul\":313:803   */\n      swap3\n      pop\n      swap3\n      swap1\n      pop\n      jump\t// out\n        /* \"#utility.yul\":809:951   */\n    tag_58:\n        /* \"#utility.yul\":912:944   */\n      tag_60\n        /* \"#utility.yul\":938:943   */\n      dup2\n        /* \"#utility.yul\":912:944   */\n      tag_61\n      jump\t// in\n    tag_60:\n        /* \"#utility.yul\":907:910   */\n      dup3\n        /* \"#utility.yul\":900:945   */\n      mstore\n        /* \"#utility.yul\":809:951   */\n      pop\n      pop\n      jump\t// out\n        /* \"#utility.yul\":957:1323   */\n    tag_62:\n        /* \"#utility.yul\":1099:1102   */\n      0x00\n        /* \"#utility.yul\":1120:1187   */\n      tag_64\n        /* \"#utility.yul\":1184:1186   */\n      0x14\n        /* \"#utility.yul\":1179:1182   */\n      dup4\n        /* \"#utility.yul\":1120:1187   */\n      tag_65\n      jump\t// in\n    tag_64:\n        /* \"#utility.yul\":1113:1187   */\n      swap2\n      pop\n        /* \"#utility.yul\":1196:1289   */\n      tag_66\n        /* \"#utility.yul\":1285:1288   */\n      dup3\n        /* \"#utility.yul\":1196:1289   */\n      tag_67\n      jump\t// in\n    tag_66:\n        /* \"#utility.yul\":1314:1316   */\n      0x20\n        /* \"#utility.yul\":1309:1312   */\n      dup3\n        /* \"#utility.yul\":1305:1317   */\n      add\n        /* \"#utility.yul\":1298:1317   */\n      swap1\n      pop\n        /* \"#utility.yul\":957:1323   */\n      swap2\n      swap1\n      pop\n      jump\t// out\n        /* \"#utility.yul\":1329:1727   */\n    tag_68:\n        /* \"#utility.yul\":1488:1491   */\n      0x00\n        /* \"#utility.yul\":1509:1592   */\n      tag_70\n        /* \"#utility.yul\":1590:1591   */\n      0x00\n        /* \"#utility.yul\":1585:1588   */\n      dup4\n        /* \"#utility.yul\":1509:1592   */\n      tag_71\n      jump\t// in\n    tag_70:\n        /* \"#utility.yul\":1502:1592   */\n      swap2\n      pop\n        /* \"#utility.yul\":1601:1694   */\n      tag_72\n        /* \"#utility.yul\":1690:1693   */\n      dup3\n        /* \"#utility.yul\":1601:1694   */\n      tag_73\n      jump\t// in\n    tag_72:\n        /* \"#utility.yul\":1719:1720   */\n      0x00\n        /* \"#utility.yul\":1714:1717   */\n      dup3\n        /* \"#utility.yul\":1710:1721   */\n      add\n        /* \"#utility.yul\":1703:1721   */\n      swap1\n      pop\n        /* \"#utility.yul\":1329:1727   */\n      swap2\n      swap1\n      pop\n      jump\t// out\n        /* \"#utility.yul\":1733:2112   */\n    tag_28:\n        /* \"#utility.yul\":1917:1920   */\n      0x00\n        /* \"#utility.yul\":1939:2086   */\n      tag_75\n        /* \"#utility.yul\":2082:2085   */\n      dup3\n        /* \"#utility.yul\":1939:2086   */\n      tag_68\n      jump\t// in\n    tag_75:\n        /* \"#utility.yul\":1932:2086   */\n      swap2\n      pop\n        /* \"#utility.yul\":2103:2106   */\n      dup2\n        /* \"#utility.yul\":2096:2106   */\n      swap1\n      pop\n        /* \"#utility.yul\":1733:2112   */\n      swap2\n      swap1\n      pop\n      jump\t// out\n        /* \"#utility.yul\":2118:2372   */\n    tag_17:\n        /* \"#utility.yul\":2227:2231   */\n      0x00\n        /* \"#utility.yul\":2265:2267   */\n      0x20\n        /* \"#utility.yul\":2254:2263   */\n      dup3\n        /* \"#utility.yul\":2250:2268   */\n      add\n        /* \"#utility.yul\":2242:2268   */\n      swap1\n      pop\n        /* \"#utility.yul\":2278:2365   */\n      tag_77\n        /* \"#utility.yul\":2362:2363   */\n      0x00\n        /* \"#utility.yul\":2351:2360   */\n      dup4\n        /* \"#utility.yul\":2347:2364   */\n      add\n        /* \"#utility.yul\":2338:2344   */\n      dup5\n        /* \"#utility.yul\":2278:2365   */\n      tag_58\n      jump\t// in\n    tag_77:\n        /* \"#utility.yul\":2118:2372   */\n      swap3\n      swap2\n      pop\n      pop\n      jump\t// out\n        /* \"#utility.yul\":2378:2797   */\n    tag_34:\n        /* \"#utility.yul\":2544:2548   */\n      0x00\n        /* \"#utility.yul\":2582:2584   */\n      0x20\n        /* \"#utility.yul\":2571:2580   */\n      dup3\n        /* \"#utility.yul\":2567:2585   */\n      add\n        /* \"#utility.yul\":2559:2585   */\n      swap1\n      pop\n        /* \"#utility.yul\":2631:2640   */\n      dup2\n        /* \"#utility.yul\":2625:2629   */\n      dup2\n        /* \"#utility.yul\":2621:2641   */\n      sub\n        /* \"#utility.yul\":2617:2618   */\n      0x00\n        /* \"#utility.yul\":2606:2615   */\n      dup4\n        /* \"#utility.yul\":2602:2619   */\n      add\n        /* \"#utility.yul\":2595:2642   */\n      mstore\n        /* \"#utility.yul\":2659:2790   */\n      tag_79\n        /* \"#utility.yul\":2785:2789   */\n      dup2\n        /* \"#utility.yul\":2659:2790   */\n      tag_62\n      jump\t// in\n    tag_79:\n        /* \"#utility.yul\":2651:2790   */\n      swap1\n      pop\n        /* \"#utility.yul\":2378:2797   */\n      swap2\n      swap1\n      pop\n      jump\t// out\n        /* \"#utility.yul\":2884:3031   */\n    tag_71:\n        /* \"#utility.yul\":2985:2996   */\n      0x00\n        /* \"#utility.yul\":3022:3025   */\n      dup2\n        /* \"#utility.yul\":3007:3025   */\n      swap1\n      pop\n        /* \"#utility.yul\":2884:3031   */\n      swap3\n      swap2\n      pop\n      pop\n      jump\t// out\n        /* \"#utility.yul\":3037:3206   */\n    tag_65:\n        /* \"#utility.yul\":3121:3132   */\n      0x00\n        /* \"#utility.yul\":3155:3161   */\n      dup3\n        /* \"#utility.yul\":3150:3153   */\n      dup3\n        /* \"#utility.yul\":3143:3162   */\n      mstore\n        /* \"#utility.yul\":3195:3199   */\n      0x20\n        /* \"#utility.yul\":3190:3193   */\n      dup3\n        /* \"#utility.yul\":3186:3200   */\n      add\n        /* \"#utility.yul\":3171:3200   */\n      swap1\n      pop\n        /* \"#utility.yul\":3037:3206   */\n      swap3\n      swap2\n      pop\n      pop\n      jump\t// out\n        /* \"#utility.yul\":3212:3316   */\n    tag_61:\n        /* \"#utility.yul\":3257:3264   */\n      0x00\n        /* \"#utility.yul\":3286:3310   */\n      tag_85\n        /* \"#utility.yul\":3304:3309   */\n      dup3\n        /* \"#utility.yul\":3286:3310   */\n      tag_86\n      jump\t// in\n    tag_85:\n        /* \"#utility.yul\":3275:3310   */\n      swap1\n      pop\n        /* \"#utility.yul\":3212:3316   */\n      swap2\n      swap1\n      pop\n      jump\t// out\n        /* \"#utility.yul\":3322:3448   */\n    tag_86:\n        /* \"#utility.yul\":3359:3366   */\n      0x00\n        /* \"#utility.yul\":3399:3441   */\n      0xffffffffffffffffffffffffffffffffffffffff\n        /* \"#utility.yul\":3392:3397   */\n      dup3\n        /* \"#utility.yul\":3388:3442   */\n      and\n        /* \"#utility.yul\":3377:3442   */\n      swap1\n      pop\n        /* \"#utility.yul\":3322:3448   */\n      swap2\n      swap1\n      pop\n      jump\t// out\n        /* \"#utility.yul\":3454:3531   */\n    tag_88:\n        /* \"#utility.yul\":3491:3498   */\n      0x00\n        /* \"#utility.yul\":3520:3525   */\n      dup2\n        /* \"#utility.yul\":3509:3525   */\n      swap1\n      pop\n        /* \"#utility.yul\":3454:3531   */\n      swap2\n      swap1\n      pop\n      jump\t// out\n        /* \"#utility.yul\":3660:3777   */\n    tag_55:\n        /* \"#utility.yul\":3769:3770   */\n      0x00\n        /* \"#utility.yul\":3766:3767   */\n      dup1\n        /* \"#utility.yul\":3759:3771   */\n      revert\n        /* \"#utility.yul\":3783:3953   */\n    tag_67:\n        /* \"#utility.yul\":3923:3945   */\n      0x4661696c656420746f2073656e64204574686572000000000000000000000000\n        /* \"#utility.yul\":3919:3920   */\n      0x00\n        /* \"#utility.yul\":3911:3917   */\n      dup3\n        /* \"#utility.yul\":3907:3921   */\n      add\n        /* \"#utility.yul\":3900:3946   */\n      mstore\n        /* \"#utility.yul\":3783:3953   */\n      pop\n      jump\t// out\n        /* \"#utility.yul\":3959:4073   */\n    tag_73:\n      pop\n      jump\t// out\n        /* \"#utility.yul\":4079:4217   */\n    tag_47:\n        /* \"#utility.yul\":4160:4192   */\n      tag_96\n        /* \"#utility.yul\":4186:4191   */\n      dup2\n        /* \"#utility.yul\":4160:4192   */\n      tag_61\n      jump\t// in\n    tag_96:\n        /* \"#utility.yul\":4153:4158   */\n      dup2\n        /* \"#utility.yul\":4150:4193   */\n      eq\n        /* \"#utility.yul\":4140:4211   */\n      tag_97\n      jumpi\n        /* \"#utility.yul\":4207:4208   */\n      0x00\n        /* \"#utility.yul\":4204:4205   */\n      dup1\n        /* \"#utility.yul\":4197:4209   */\n      revert\n        /* \"#utility.yul\":4140:4211   */\n    tag_97:\n        /* \"#utility.yul\":4079:4217   */\n      pop\n      jump\t// out\n        /* \"#utility.yul\":4223:4345   */\n    tag_51:\n        /* \"#utility.yul\":4296:4320   */\n      tag_99\n        /* \"#utility.yul\":4314:4319   */\n      dup2\n        /* \"#utility.yul\":4296:4320   */\n      tag_88\n      jump\t// in\n    tag_99:\n        /* \"#utility.yul\":4289:4294   */\n      dup2\n        /* \"#utility.yul\":4286:4321   */\n      eq\n        /* \"#utility.yul\":4276:4339   */\n      tag_100\n      jumpi\n        /* \"#utility.yul\":4335:4336   */\n      0x00\n        /* \"#utility.yul\":4332:4333   */\n      dup1\n        /* \"#utility.yul\":4325:4337   */\n      revert\n        /* \"#utility.yul\":4276:4339   */\n    tag_100:\n        /* \"#utility.yul\":4223:4345   */\n      pop\n      jump\t// out\n\n    auxdata: 0xa26469706673582212200c4baa9cc66c6f81f3f73da34beb776097b4c981add289070f2b0e5fd9c2ad9e64736f6c63430008070033\n}\n",
				"bytecode": {
					"linkReferences": {},
					"object": "6080604052336000806101000a81548173ffffffffffffffffffffffffffffffffffffffff021916908373ffffffffffffffffffffffffffffffffffffffff160217905550610486806100536000396000f3fe60806040526004361061004a5760003560e01c8063273884bd1461004f5780633ccfd60b146100665780638da5cb5b1461007d578063a9059cbb146100a8578063d0e30db0146100d1575b600080fd5b34801561005b57600080fd5b506100646100db565b005b34801561007257600080fd5b5061007b6100dd565b005b34801561008957600080fd5b506100926101b3565b60405161009f919061035e565b60405180910390f35b3480156100b457600080fd5b506100cf60048036038101906100ca91906102b4565b6101d7565b005b6100d9610288565b005b565b600047905060008060009054906101000a900473ffffffffffffffffffffffffffffffffffffffff1673ffffffffffffffffffffffffffffffffffffffff168260405161012990610349565b60006040518083038185875af1925050503d8060008114610166576040519150601f19603f3d011682016040523d82523d6000602084013e61016b565b606091505b50509050806101af576040517f08c379a00000000000000000000000000000000000000000000000000000000081526004016101a690610379565b60405180910390fd5b5050565b60008054906101000a900473ffffffffffffffffffffffffffffffffffffffff1681565b60008273ffffffffffffffffffffffffffffffffffffffff16826040516101fd90610349565b60006040518083038185875af1925050503d806000811461023a576040519150601f19603f3d011682016040523d82523d6000602084013e61023f565b606091505b5050905080610283576040517f08c379a000000000000000000000000000000000000000000000000000000000815260040161027a90610379565b60405180910390fd5b505050565b565b60008135905061029981610422565b92915050565b6000813590506102ae81610439565b92915050565b600080604083850312156102cb576102ca6103f1565b5b60006102d98582860161028a565b92505060206102ea8582860161029f565b9150509250929050565b6102fd816103b5565b82525050565b60006103106014836103a4565b915061031b826103f6565b602082019050919050565b6000610333600083610399565b915061033e8261041f565b600082019050919050565b600061035482610326565b9150819050919050565b600060208201905061037360008301846102f4565b92915050565b6000602082019050818103600083015261039281610303565b9050919050565b600081905092915050565b600082825260208201905092915050565b60006103c0826103c7565b9050919050565b600073ffffffffffffffffffffffffffffffffffffffff82169050919050565b6000819050919050565b600080fd5b7f4661696c656420746f2073656e64204574686572000000000000000000000000600082015250565b50565b61042b816103b5565b811461043657600080fd5b50565b610442816103e7565b811461044d57600080fd5b5056fea26469706673582212200c4baa9cc66c6f81f3f73da34beb776097b4c981add289070f2b0e5fd9c2ad9e64736f6c63430008070033",
					"opcodes": "PUSH1 0x80 PUSH1 0x40 MSTORE CALLER PUSH1 0x0 DUP1 PUSH2 0x100 EXP DUP2 SLOAD DUP2 PUSH20 0xFFFFFFFFFFFFFFFFFFFFFFFFFFFFFFFFFFFFFFFF MUL NOT AND SWAP1 DUP4 PUSH20 0xFFFFFFFFFFFFFFFFFFFFFFFFFFFFFFFFFFFFFFFF AND MUL OR SWAP1 SSTORE POP PUSH2 0x486 DUP1 PUSH2 0x53 PUSH1 0x0 CODECOPY PUSH1 0x0 RETURN INVALID PUSH1 0x80 PUSH1 0x40 MSTORE PUSH1 0x4 CALLDATASIZE LT PUSH2 0x4A JUMPI PUSH1 0x0 CALLDATALOAD PUSH1 0xE0 SHR DUP1 PUSH4 0x273884BD EQ PUSH2 0x4F JUMPI DUP1 PUSH4 0x3CCFD60B EQ PUSH2 0x66 JUMPI DUP1 PUSH4 0x8DA5CB5B EQ PUSH2 0x7D JUMPI DUP1 PUSH4 0xA9059CBB EQ PUSH2 0xA8 JUMPI DUP1 PUSH4 0xD0E30DB0 EQ PUSH2 0xD1 JUMPI JUMPDEST PUSH1 0x0 DUP1 REVERT JUMPDEST CALLVALUE DUP1 ISZERO PUSH2 0x5B JUMPI PUSH1 0x0 DUP1 REVERT JUMPDEST POP PUSH2 0x64 PUSH2 0xDB JUMP JUMPDEST STOP JUMPDEST CALLVALUE DUP1 ISZERO PUSH2 0x72 JUMPI PUSH1 0x0 DUP1 REVERT JUMPDEST POP PUSH2 0x7B PUSH2 0xDD JUMP JUMPDEST STOP JUMPDEST CALLVALUE DUP1 ISZERO PUSH2 0x89 JUMPI PUSH1 0x0 DUP1 REVERT JUMPDEST POP PUSH2 0x92 PUSH2 0x1B3 JUMP JUMPDEST PUSH1 0x40 MLOAD PUSH2 0x9F SWAP2 SWAP1 PUSH2 0x35E JUMP JUMPDEST PUSH1 0x40 MLOAD DUP1 SWAP2 SUB SWAP1 RETURN JUMPDEST CALLVALUE DUP1 ISZERO PUSH2 0xB4 JUMPI PUSH1 0x0 DUP1 REVERT JUMPDEST POP PUSH2 0xCF PUSH1 0x4 DUP1 CALLDATASIZE SUB DUP2 ADD SWAP1 PUSH2 0xCA SWAP2 SWAP1 PUSH2 0x2B4 JUMP JUMPDEST PUSH2 0x1D7 JUMP JUMPDEST STOP JUMPDEST PUSH2 0xD9 PUSH2 0x288 JUMP JUMPDEST STOP JUMPDEST JUMP JUMPDEST PUSH1 0x0 SELFBALANCE SWAP1 POP PUSH1 0x0 DUP1 PUSH1 0x0 SWAP1 SLOAD SWAP1 PUSH2 0x100 EXP SWAP1 DIV PUSH20 0xFFFFFFFFFFFFFFFFFFFFFFFFFFFFFFFFFFFFFFFF AND PUSH20 0xFFFFFFFFFFFFFFFFFFFFFFFFFFFFFFFFFFFFFFFF AND DUP3 PUSH1 0x40 MLOAD PUSH2 0x129 SWAP1 PUSH2 0x349 JUMP JUMPDEST PUSH1 0x0 PUSH1 0x40 MLOAD DUP1 DUP4 SUB DUP2 DUP6 DUP8 GAS CALL SWAP3 POP POP POP RETURNDATASIZE DUP1 PUSH1 0x0 DUP2 EQ PUSH2 0x166 JUMPI PUSH1 0x40 MLOAD SWAP2 POP PUSH1 0x1F NOT PUSH1 0x3F RETURNDATASIZE ADD AND DUP3 ADD PUSH1 0x40 MSTORE RETURNDATASIZE DUP3 MSTORE RETURNDATASIZE PUSH1 0x0 PUSH1 0x20 DUP5 ADD RETURNDATACOPY PUSH2 0x16B JUMP JUMPDEST PUSH1 0x60 SWAP2 POP JUMPDEST POP POP SWAP1 POP DUP1 PUSH2 0x1AF JUMPI PUSH1 0x40 MLOAD PUSH32 0x8C379A000000000000000000000000000000000000000000000000000000000 DUP2 MSTORE PUSH1 0x4 ADD PUSH2 0x1A6 SWAP1 PUSH2 0x379 JUMP JUMPDEST PUSH1 0x40 MLOAD DUP1 SWAP2 SUB SWAP1 REVERT JUMPDEST POP POP JUMP JUMPDEST PUSH1 0x0 DUP1 SLOAD SWAP1 PUSH2 0x100 EXP SWAP1 DIV PUSH20 0xFFFFFFFFFFFFFFFFFFFFFFFFFFFFFFFFFFFFFFFF AND DUP2 JUMP JUMPDEST PUSH1 0x0 DUP3 PUSH20 0xFFFFFFFFFFFFFFFFFFFFFFFFFFFFFFFFFFFFFFFF AND DUP3 PUSH1 0x40 MLOAD PUSH2 0x1FD SWAP1 PUSH2 0x349 JUMP JUMPDEST PUSH1 0x0 PUSH1 0x40 MLOAD DUP1 DUP4 SUB DUP2 DUP6 DUP8 GAS CALL SWAP3 POP POP POP RETURNDATASIZE DUP1 PUSH1 0x0 DUP2 EQ PUSH2 0x23A JUMPI PUSH1 0x40 MLOAD SWAP2 POP PUSH1 0x1F NOT PUSH1 0x3F RETURNDATASIZE ADD AND DUP3 ADD PUSH1 0x40 MSTORE RETURNDATASIZE DUP3 MSTORE RETURNDATASIZE PUSH1 0x0 PUSH1 0x20 DUP5 ADD RETURNDATACOPY PUSH2 0x23F JUMP JUMPDEST PUSH1 0x60 SWAP2 POP JUMPDEST POP POP SWAP1 POP DUP1 PUSH2 0x283 JUMPI PUSH1 0x40 MLOAD PUSH32 0x8C379A000000000000000000000000000000000000000000000000000000000 DUP2 MSTORE PUSH1 0x4 ADD PUSH2 0x27A SWAP1 PUSH2 0x379 JUMP JUMPDEST PUSH1 0x40 MLOAD DUP1 SWAP2 SUB SWAP1 REVERT JUMPDEST POP POP POP JUMP JUMPDEST JUMP JUMPDEST PUSH1 0x0 DUP2 CALLDATALOAD SWAP1 POP PUSH2 0x299 DUP2 PUSH2 0x422 JUMP JUMPDEST SWAP3 SWAP2 POP POP JUMP JUMPDEST PUSH1 0x0 DUP2 CALLDATALOAD SWAP1 POP PUSH2 0x2AE DUP2 PUSH2 0x439 JUMP JUMPDEST SWAP3 SWAP2 POP POP JUMP JUMPDEST PUSH1 0x0 DUP1 PUSH1 0x40 DUP4 DUP6 SUB SLT ISZERO PUSH2 0x2CB JUMPI PUSH2 0x2CA PUSH2 0x3F1 JUMP JUMPDEST JUMPDEST PUSH1 0x0 PUSH2 0x2D9 DUP6 DUP3 DUP7 ADD PUSH2 0x28A JUMP JUMPDEST SWAP3 POP POP PUSH1 0x20 PUSH2 0x2EA DUP6 DUP3 DUP7 ADD PUSH2 0x29F JUMP JUMPDEST SWAP2 POP POP SWAP3 POP SWAP3 SWAP1 POP JUMP JUMPDEST PUSH2 0x2FD DUP2 PUSH2 0x3B5 JUMP JUMPDEST DUP3 MSTORE POP POP JUMP JUMPDEST PUSH1 0x0 PUSH2 0x310 PUSH1 0x14 DUP4 PUSH2 0x3A4 JUMP JUMPDEST SWAP2 POP PUSH2 0x31B DUP3 PUSH2 0x3F6 JUMP JUMPDEST PUSH1 0x20 DUP3 ADD SWAP1 POP SWAP2 SWAP1 POP JUMP JUMPDEST PUSH1 0x0 PUSH2 0x333 PUSH1 0x0 DUP4 PUSH2 0x399 JUMP JUMPDEST SWAP2 POP PUSH2 0x33E DUP3 PUSH2 0x41F JUMP JUMPDEST PUSH1 0x0 DUP3 ADD SWAP1 POP SWAP2 SWAP1 POP JUMP JUMPDEST PUSH1 0x0 PUSH2 0x354 DUP3 PUSH2 0x326 JUMP JUMPDEST SWAP2 POP DUP2 SWAP1 POP SWAP2 SWAP1 POP JUMP JUMPDEST PUSH1 0x0 PUSH1 0x20 DUP3 ADD SWAP1 POP PUSH2 0x373 PUSH1 0x0 DUP4 ADD DUP5 PUSH2 0x2F4 JUMP JUMPDEST SWAP3 SWAP2 POP POP JUMP JUMPDEST PUSH1 0x0 PUSH1 0x20 DUP3 ADD SWAP1 POP DUP2 DUP2 SUB PUSH1 0x0 DUP4 ADD MSTORE PUSH2 0x392 DUP2 PUSH2 0x303 JUMP JUMPDEST SWAP1 POP SWAP2 SWAP1 POP JUMP JUMPDEST PUSH1 0x0 DUP2 SWAP1 POP SWAP3 SWAP2 POP POP JUMP JUMPDEST PUSH1 0x0 DUP3 DUP3 MSTORE PUSH1 0x20 DUP3 ADD SWAP1 POP SWAP3 SWAP2 POP POP JUMP JUMPDEST PUSH1 0x0 PUSH2 0x3C0 DUP3 PUSH2 0x3C7 JUMP JUMPDEST SWAP1 POP SWAP2 SWAP1 POP JUMP JUMPDEST PUSH1 0x0 PUSH20 0xFFFFFFFFFFFFFFFFFFFFFFFFFFFFFFFFFFFFFFFF DUP3 AND SWAP1 POP SWAP2 SWAP1 POP JUMP JUMPDEST PUSH1 0x0 DUP2 SWAP1 POP SWAP2 SWAP1 POP JUMP JUMPDEST PUSH1 0x0 DUP1 REVERT JUMPDEST PUSH32 0x4661696C656420746F2073656E64204574686572000000000000000000000000 PUSH1 0x0 DUP3 ADD MSTORE POP JUMP JUMPDEST POP JUMP JUMPDEST PUSH2 0x42B DUP2 PUSH2 0x3B5 JUMP JUMPDEST DUP2 EQ PUSH2 0x436 JUMPI PUSH1 0x0 DUP1 REVERT JUMPDEST POP JUMP JUMPDEST PUSH2 0x442 DUP2 PUSH2 0x3E7 JUMP JUMPDEST DUP2 EQ PUSH2 0x44D JUMPI PUSH1 0x0 DUP1 REVERT JUMPDEST POP JUMP INVALID LOG2 PUSH5 0x6970667358 0x22 SLT KECCAK256 0xC 0x4B 0xAA SWAP13 0xC6 PUSH13 0x6F81F3F73DA34BEB776097B4C9 DUP2 0xAD 0xD2 DUP10 SMOD 0xF 0x2B 0xE 0x5F 0xD9 0xC2 0xAD SWAP15 PUSH5 0x736F6C6343 STOP ADDMOD SMOD STOP CALLER "
				},
				"gasEstimates": {
					"creation": {
						"codeDepositCost": "231600",
						"executionCost": "24517",
						"totalCost": "256117"
					},
					"external": {
						"deposit()": "186",
						"notPayable()": "122",
						"owner()": "2533",
						"transfer(address,uint256)": "infinite",
						"withdraw()": "infinite"
					}
				},
				"methodIdentifiers": {
					"deposit()": "d0e30db0",
					"notPayable()": "273884bd",
					"owner()": "8da5cb5b",
					"transfer(address,uint256)": "a9059cbb",
					"withdraw()": "3ccfd60b"
				}
			},
			"storageLayout": {
				"storage": [
					{
						"astId": 3,
						"contract": "Payable.sol:Payable",
						"label": "owner",
						"offset": 0,
						"slot": "0",
						"type": "t_address_payable"
					}
				],
				"types": {
					"t_address_payable": {
						"encoding": "inplace",
						"label": "address payable",
						"numberOfBytes": "20"
					}
				}
			},
			"userdoc": {
				"kind": "user",
				"methods": {},
				"version": 1
			}
		}
	}
}