{
	"Error.sol": {
		"Error": {
			"abi": [
				{
					"inputs": [
						{
							"internalType": "uint256",
							"name": "_i",
							"type": "uint256"
						}
					],
					"name": "testRequire",
					"outputs": [],
					"stateMutability": "pure",
					"type": "function"
				},
				{
					"inputs": [
						{
							"internalType": "uint256",
							"name": "_i",
							"type": "uint256"
						}
					],
					"name": "testRevert",
					"outputs": [],
					"stateMutability": "pure",
					"type": "function"
				}
			],
			"devdoc": {
				"kind": "dev",
				"methods": {},
				"version": 1
			},
			"evm": {
				"assembly": "    /* \"Error.sol\":463:1077  contract Error{... */\n  mstore(0x40, 0x80)\n  callvalue\n  dup1\n  iszero\n  tag_1\n  jumpi\n  0x00\n  dup1\n  revert\ntag_1:\n  pop\n  dataSize(sub_0)\n  dup1\n  dataOffset(sub_0)\n  0x00\n  codecopy\n  0x00\n  return\nstop\n\nsub_0: assembly {\n        /* \"Error.sol\":463:1077  contract Error{... */\n      mstore(0x40, 0x80)\n      callvalue\n      dup1\n      iszero\n      tag_1\n      jumpi\n      0x00\n      dup1\n      revert\n    tag_1:\n      pop\n      jumpi(tag_2, lt(calldatasize, 0x04))\n      shr(0xe0, calldataload(0x00))\n      dup1\n      0x20987767\n      eq\n      tag_3\n      jumpi\n      dup1\n      0xb8bd717f\n      eq\n      tag_4\n      jumpi\n    tag_2:\n      0x00\n      dup1\n      revert\n        /* \"Error.sol\":791:1066  function testRevert(uint _i) public pure{... */\n    tag_3:\n      tag_5\n      0x04\n      dup1\n      calldatasize\n      sub\n      dup2\n      add\n      swap1\n      tag_6\n      swap2\n      swap1\n      tag_7\n      jump\t// in\n    tag_6:\n      tag_8\n      jump\t// in\n    tag_5:\n      stop\n        /* \"Error.sol\":486:783  function testRequire(uint _i) public pure{... */\n    tag_4:\n      tag_9\n      0x04\n      dup1\n      calldatasize\n      sub\n      dup2\n      add\n      swap1\n      tag_10\n      swap2\n      swap1\n      tag_7\n      jump\t// in\n    tag_10:\n      tag_11\n      jump\t// in\n    tag_9:\n      stop\n        /* \"Error.sol\":791:1066  function testRevert(uint _i) public pure{... */\n    tag_8:\n        /* \"Error.sol\":990:992  10 */\n      0x0a\n        /* \"Error.sol\":984:986  _i */\n      dup2\n        /* \"Error.sol\":984:992  _i <= 10 */\n      gt\n        /* \"Error.sol\":980:1059  if( _i <= 10){... */\n      tag_13\n      jumpi\n        /* \"Error.sol\":1008:1047  revert(\"Input must be greater than 10\") */\n      mload(0x40)\n      0x08c379a000000000000000000000000000000000000000000000000000000000\n      dup2\n      mstore\n      0x04\n      add\n      tag_14\n      swap1\n      tag_15\n      jump\t// in\n    tag_14:\n      mload(0x40)\n      dup1\n      swap2\n      sub\n      swap1\n      revert\n        /* \"Error.sol\":980:1059  if( _i <= 10){... */\n    tag_13:\n        /* \"Error.sol\":791:1066  function testRevert(uint _i) public pure{... */\n      pop\n      jump\t// out\n        /* \"Error.sol\":486:783  function testRequire(uint _i) public pure{... */\n    tag_11:\n        /* \"Error.sol\":739:741  10 */\n      0x0a\n        /* \"Error.sol\":734:736  _i */\n      dup2\n        /* \"Error.sol\":734:741  _i > 10 */\n      gt\n        /* \"Error.sol\":726:775  require(_i > 10, \"Input must be greater than 10\") */\n      tag_17\n      jumpi\n      mload(0x40)\n      0x08c379a000000000000000000000000000000000000000000000000000000000\n      dup2\n      mstore\n      0x04\n      add\n      tag_18\n      swap1\n      tag_15\n      jump\t// in\n    tag_18:\n      mload(0x40)\n      dup1\n      swap2\n      sub\n      swap1\n      revert\n    tag_17:\n        /* \"Error.sol\":486:783  function testRequire(uint _i) public pure{... */\n      pop\n      jump\t// out\n        /* \"#utility.yul\":88:205   */\n    tag_20:\n        /* \"#utility.yul\":197:198   */\n      0x00\n        /* \"#utility.yul\":194:195   */\n      dup1\n        /* \"#utility.yul\":187:199   */\n      revert\n        /* \"#utility.yul\":334:411   */\n    tag_22:\n        /* \"#utility.yul\":371:378   */\n      0x00\n        /* \"#utility.yul\":400:405   */\n      dup2\n        /* \"#utility.yul\":389:405   */\n      swap1\n      pop\n        /* \"#utility.yul\":334:411   */\n      swap2\n      swap1\n      pop\n      jump\t// out\n        /* \"#utility.yul\":417:539   */\n    tag_23:\n        /* \"#utility.yul\":490:514   */\n      tag_34\n        /* \"#utility.yul\":508:513   */\n      dup2\n        /* \"#utility.yul\":490:514   */\n      tag_22\n      jump\t// in\n    tag_34:\n        /* \"#utility.yul\":483:488   */\n      dup2\n        /* \"#utility.yul\":480:515   */\n      eq\n        /* \"#utility.yul\":470:533   */\n      tag_35\n      jumpi\n        /* \"#utility.yul\":529:530   */\n      0x00\n        /* \"#utility.yul\":526:527   */\n      dup1\n        /* \"#utility.yul\":519:531   */\n      revert\n        /* \"#utility.yul\":470:533   */\n    tag_35:\n        /* \"#utility.yul\":417:539   */\n      pop\n      jump\t// out\n        /* \"#utility.yul\":545:684   */\n    tag_24:\n        /* \"#utility.yul\":591:596   */\n      0x00\n        /* \"#utility.yul\":629:635   */\n      dup2\n        /* \"#utility.yul\":616:636   */\n      calldataload\n        /* \"#utility.yul\":607:636   */\n      swap1\n      pop\n        /* \"#utility.yul\":645:678   */\n      tag_37\n        /* \"#utility.yul\":672:677   */\n      dup2\n        /* \"#utility.yul\":645:678   */\n      tag_23\n      jump\t// in\n    tag_37:\n        /* \"#utility.yul\":545:684   */\n      swap3\n      swap2\n      pop\n      pop\n      jump\t// out\n        /* \"#utility.yul\":690:1019   */\n    tag_7:\n        /* \"#utility.yul\":749:755   */\n      0x00\n        /* \"#utility.yul\":798:800   */\n      0x20\n        /* \"#utility.yul\":786:795   */\n      dup3\n        /* \"#utility.yul\":777:784   */\n      dup5\n        /* \"#utility.yul\":773:796   */\n      sub\n        /* \"#utility.yul\":769:801   */\n      slt\n        /* \"#utility.yul\":766:885   */\n      iszero\n      tag_39\n      jumpi\n        /* \"#utility.yul\":804:883   */\n      tag_40\n      tag_20\n      jump\t// in\n    tag_40:\n        /* \"#utility.yul\":766:885   */\n    tag_39:\n        /* \"#utility.yul\":924:925   */\n      0x00\n        /* \"#utility.yul\":949:1002   */\n      tag_41\n        /* \"#utility.yul\":994:1001   */\n      dup5\n        /* \"#utility.yul\":985:991   */\n      dup3\n        /* \"#utility.yul\":974:983   */\n      dup6\n        /* \"#utility.yul\":970:992   */\n      add\n        /* \"#utility.yul\":949:1002   */\n      tag_24\n      jump\t// in\n    tag_41:\n        /* \"#utility.yul\":939:1002   */\n      swap2\n      pop\n        /* \"#utility.yul\":895:1012   */\n      pop\n        /* \"#utility.yul\":690:1019   */\n      swap3\n      swap2\n      pop\n      pop\n      jump\t// out\n        /* \"#utility.yul\":1025:1194   */\n    tag_25:\n        /* \"#utility.yul\":1109:1120   */\n      0x00\n        /* \"#utility.yul\":1143:1149   */\n      dup3\n        /* \"#utility.yul\":1138:1141   */\n      dup3\n        /* \"#utility.yul\":1131:1150   */\n      mstore\n        /* \"#utility.yul\":1183:1187   */\n      0x20\n        /* \"#utility.yul\":1178:1181   */\n      dup3\n        /* \"#utility.yul\":1174:1188   */\n      add\n        /* \"#utility.yul\":1159:1188   */\n      swap1\n      pop\n        /* \"#utility.yul\":1025:1194   */\n      swap3\n      swap2\n      pop\n      pop\n      jump\t// out\n        /* \"#utility.yul\":1200:1379   */\n    tag_26:\n        /* \"#utility.yul\":1340:1371   */\n      0x496e707574206d7573742062652067726561746572207468616e203130000000\n        /* \"#utility.yul\":1336:1337   */\n      0x00\n        /* \"#utility.yul\":1328:1334   */\n      dup3\n        /* \"#utility.yul\":1324:1338   */\n      add\n        /* \"#utility.yul\":1317:1372   */\n      mstore\n        /* \"#utility.yul\":1200:1379   */\n      pop\n      jump\t// out\n        /* \"#utility.yul\":1385:1751   */\n    tag_27:\n        /* \"#utility.yul\":1527:1530   */\n      0x00\n        /* \"#utility.yul\":1548:1615   */\n      tag_45\n        /* \"#utility.yul\":1612:1614   */\n      0x1d\n        /* \"#utility.yul\":1607:1610   */\n      dup4\n        /* \"#utility.yul\":1548:1615   */\n      tag_25\n      jump\t// in\n    tag_45:\n        /* \"#utility.yul\":1541:1615   */\n      swap2\n      pop\n        /* \"#utility.yul\":1624:1717   */\n      tag_46\n        /* \"#utility.yul\":1713:1716   */\n      dup3\n        /* \"#utility.yul\":1624:1717   */\n      tag_26\n      jump\t// in\n    tag_46:\n        /* \"#utility.yul\":1742:1744   */\n      0x20\n        /* \"#utility.yul\":1737:1740   */\n      dup3\n        /* \"#utility.yul\":1733:1745   */\n      add\n        /* \"#utility.yul\":1726:1745   */\n      swap1\n      pop\n        /* \"#utility.yul\":1385:1751   */\n      swap2\n      swap1\n      pop\n      jump\t// out\n        /* \"#utility.yul\":1757:2176   */\n    tag_15:\n        /* \"#utility.yul\":1923:1927   */\n      0x00\n        /* \"#utility.yul\":1961:1963   */\n      0x20\n        /* \"#utility.yul\":1950:1959   */\n      dup3\n        /* \"#utility.yul\":1946:1964   */\n      add\n        /* \"#utility.yul\":1938:1964   */\n      swap1\n      pop\n        /* \"#utility.yul\":2010:2019   */\n      dup2\n        /* \"#utility.yul\":2004:2008   */\n      dup2\n        /* \"#utility.yul\":2000:2020   */\n      sub\n        /* \"#utility.yul\":1996:1997   */\n      0x00\n        /* \"#utility.yul\":1985:1994   */\n      dup4\n        /* \"#utility.yul\":1981:1998   */\n      add\n        /* \"#utility.yul\":1974:2021   */\n      mstore\n        /* \"#utility.yul\":2038:2169   */\n      tag_48\n        /* \"#utility.yul\":2164:2168   */\n      dup2\n        /* \"#utility.yul\":2038:2169   */\n      tag_27\n      jump\t// in\n    tag_48:\n        /* \"#utility.yul\":2030:2169   */\n      swap1\n      pop\n        /* \"#utility.yul\":1757:2176   */\n      swap2\n      swap1\n      pop\n      jump\t// out\n\n    auxdata: 0xa2646970667358221220ecd47480981c662ee82338c638e267a5279f49c9d0ba946727c77b56e8b1017764736f6c634300080f0033\n}\n",
				"bytecode": {
					"linkReferences": {},
					"object": "608060405234801561001057600080fd5b5061021a806100206000396000f3fe608060405234801561001057600080fd5b50600436106100365760003560e01c8063209877671461003b578063b8bd717f14610057575b600080fd5b6100556004803603810190610050919061013a565b610073565b005b610071600480360381019061006c919061013a565b6100b9565b005b600a81116100b6576040517f08c379a00000000000000000000000000000000000000000000000000000000081526004016100ad906101c4565b60405180910390fd5b50565b600a81116100fc576040517f08c379a00000000000000000000000000000000000000000000000000000000081526004016100f3906101c4565b60405180910390fd5b50565b600080fd5b6000819050919050565b61011781610104565b811461012257600080fd5b50565b6000813590506101348161010e565b92915050565b6000602082840312156101505761014f6100ff565b5b600061015e84828501610125565b91505092915050565b600082825260208201905092915050565b7f496e707574206d7573742062652067726561746572207468616e203130000000600082015250565b60006101ae601d83610167565b91506101b982610178565b602082019050919050565b600060208201905081810360008301526101dd816101a1565b905091905056fea2646970667358221220ecd47480981c662ee82338c638e267a5279f49c9d0ba946727c77b56e8b1017764736f6c634300080f0033",
					"opcodes": "PUSH1 0x80 PUSH1 0x40 MSTORE CALLVALUE DUP1 ISZERO PUSH2 0x10 JUMPI PUSH1 0x0 DUP1 REVERT JUMPDEST POP PUSH2 0x21A DUP1 PUSH2 0x20 PUSH1 0x0 CODECOPY PUSH1 0x0 RETURN INVALID PUSH1 0x80 PUSH1 0x40 MSTORE CALLVALUE DUP1 ISZERO PUSH2 0x10 JUMPI PUSH1 0x0 DUP1 REVERT JUMPDEST POP PUSH1 0x4 CALLDATASIZE LT PUSH2 0x36 JUMPI PUSH1 0x0 CALLDATALOAD PUSH1 0xE0 SHR DUP1 PUSH4 0x20987767 EQ PUSH2 0x3B JUMPI DUP1 PUSH4 0xB8BD717F EQ PUSH2 0x57 JUMPI JUMPDEST PUSH1 0x0 DUP1 REVERT JUMPDEST PUSH2 0x55 PUSH1 0x4 DUP1 CALLDATASIZE SUB DUP2 ADD SWAP1 PUSH2 0x50 SWAP2 SWAP1 PUSH2 0x13A JUMP JUMPDEST PUSH2 0x73 JUMP JUMPDEST STOP JUMPDEST PUSH2 0x71 PUSH1 0x4 DUP1 CALLDATASIZE SUB DUP2 ADD SWAP1 PUSH2 0x6C SWAP2 SWAP1 PUSH2 0x13A JUMP JUMPDEST PUSH2 0xB9 JUMP JUMPDEST STOP JUMPDEST PUSH1 0xA DUP2 GT PUSH2 0xB6 JUMPI PUSH1 0x40 MLOAD PUSH32 0x8C379A000000000000000000000000000000000000000000000000000000000 DUP2 MSTORE PUSH1 0x4 ADD PUSH2 0xAD SWAP1 PUSH2 0x1C4 JUMP JUMPDEST PUSH1 0x40 MLOAD DUP1 SWAP2 SUB SWAP1 REVERT JUMPDEST POP JUMP JUMPDEST PUSH1 0xA DUP2 GT PUSH2 0xFC JUMPI PUSH1 0x40 MLOAD PUSH32 0x8C379A000000000000000000000000000000000000000000000000000000000 DUP2 MSTORE PUSH1 0x4 ADD PUSH2 0xF3 SWAP1 PUSH2 0x1C4 JUMP JUMPDEST PUSH1 0x40 MLOAD DUP1 SWAP2 SUB SWAP1 REVERT JUMPDEST POP JUMP JUMPDEST PUSH1 0x0 DUP1 REVERT JUMPDEST PUSH1 0x0 DUP2 SWAP1 POP SWAP2 SWAP1 POP JUMP JUMPDEST PUSH2 0x117 DUP2 PUSH2 0x104 JUMP JUMPDEST DUP2 EQ PUSH2 0x122 JUMPI PUSH1 0x0 DUP1 REVERT JUMPDEST POP JUMP JUMPDEST PUSH1 0x0 DUP2 CALLDATALOAD SWAP1 POP PUSH2 0x134 DUP2 PUSH2 0x10E JUMP JUMPDEST SWAP3 SWAP2 POP POP JUMP JUMPDEST PUSH1 0x0 PUSH1 0x20 DUP3 DUP5 SUB SLT ISZERO PUSH2 0x150 JUMPI PUSH2 0x14F PUSH2 0xFF JUMP JUMPDEST JUMPDEST PUSH1 0x0 PUSH2 0x15E DUP5 DUP3 DUP6 ADD PUSH2 0x125 JUMP JUMPDEST SWAP2 POP POP SWAP3 SWAP2 POP POP JUMP JUMPDEST PUSH1 0x0 DUP3 DUP3 MSTORE PUSH1 0x20 DUP3 ADD SWAP1 POP SWAP3 SWAP2 POP POP JUMP JUMPDEST PUSH32 0x496E707574206D7573742062652067726561746572207468616E203130000000 PUSH1 0x0 DUP3 ADD MSTORE POP JUMP JUMPDEST PUSH1 0x0 PUSH2 0x1AE PUSH1 0x1D DUP4 PUSH2 0x167 JUMP JUMPDEST SWAP2 POP PUSH2 0x1B9 DUP3 PUSH2 0x178 JUMP JUMPDEST PUSH1 0x20 DUP3 ADD SWAP1 POP SWAP2 SWAP1 POP JUMP JUMPDEST PUSH1 0x0 PUSH1 0x20 DUP3 ADD SWAP1 POP DUP2 DUP2 SUB PUSH1 0x0 DUP4 ADD MSTORE PUSH2 0x1DD DUP2 PUSH2 0x1A1 JUMP JUMPDEST SWAP1 POP SWAP2 SWAP1 POP JUMP INVALID LOG2 PUSH5 0x6970667358 0x22 SLT KECCAK256 0xEC 0xD4 PUSH21 0x80981C662EE82338C638E267A5279F49C9D0BA9467 0x27 0xC7 PUSH28 0x56E8B1017764736F6C634300080F0033000000000000000000000000 "
				},
				"gasEstimates": {
					"creation": {
						"codeDepositCost": "107600",
						"executionCost": "153",
						"totalCost": "107753"
					},
					"external": {
						"testRequire(uint256)": "716",
						"testRevert(uint256)": "694"
					}
				},
				"methodIdentifiers": {
					"testRequire(uint256)": "b8bd717f",
					"testRevert(uint256)": "20987767"
				}
			},
			"storageLayout": {
				"storage": [],
				"types": null
			},
			"userdoc": {
				"kind": "user",
				"methods": {},
				"version": 1
			}
		}
	}
}