{
	"Function.sol": {
		"Function": {
			"abi": [
				{
					"inputs": [],
					"name": "assigned",
					"outputs": [
						{
							"internalType": "uint256",
							"name": "x",
							"type": "uint256"
						},
						{
							"internalType": "bool",
							"name": "b",
							"type": "bool"
						},
						{
							"internalType": "uint256",
							"name": "y",
							"type": "uint256"
						}
					],
					"stateMutability": "pure",
					"type": "function"
				},
				{
					"inputs": [],
					"name": "destructuringAssignments",
					"outputs": [
						{
							"internalType": "uint256",
							"name": "",
							"type": "uint256"
						},
						{
							"internalType": "bool",
							"name": "",
							"type": "bool"
						},
						{
							"internalType": "uint256",
							"name": "",
							"type": "uint256"
						},
						{
							"internalType": "uint256",
							"name": "",
							"type": "uint256"
						},
						{
							"internalType": "uint256",
							"name": "",
							"type": "uint256"
						}
					],
					"stateMutability": "pure",
					"type": "function"
				},
				{
					"inputs": [],
					"name": "named",
					"outputs": [
						{
							"internalType": "uint256",
							"name": "x",
							"type": "uint256"
						},
						{
							"internalType": "bool",
							"name": "b",
							"type": "bool"
						},
						{
							"internalType": "uint256",
							"name": "y",
							"type": "uint256"
						}
					],
					"stateMutability": "pure",
					"type": "function"
				},
				{
					"inputs": [],
					"name": "returnMany",
					"outputs": [
						{
							"internalType": "uint256",
							"name": "",
							"type": "uint256"
						},
						{
							"internalType": "bool",
							"name": "",
							"type": "bool"
						},
						{
							"internalType": "uint256",
							"name": "",
							"type": "uint256"
						}
					],
					"stateMutability": "pure",
					"type": "function"
				}
			],
			"devdoc": {
				"kind": "dev",
				"methods": {},
				"version": 1
			},
			"evm": {
				"assembly": "    /* \"Function.sol\":203:1094  contract Function{... */\n  mstore(0x40, 0x80)\n  callvalue\n  dup1\n  iszero\n  tag_1\n  jumpi\n  0x00\n  dup1\n  revert\ntag_1:\n  pop\n  dataSize(sub_0)\n  dup1\n  dataOffset(sub_0)\n  0x00\n  codecopy\n  0x00\n  return\nstop\n\nsub_0: assembly {\n        /* \"Function.sol\":203:1094  contract Function{... */\n      mstore(0x40, 0x80)\n      callvalue\n      dup1\n      iszero\n      tag_1\n      jumpi\n      0x00\n      dup1\n      revert\n    tag_1:\n      pop\n      jumpi(tag_2, lt(calldatasize, 0x04))\n      shr(0xe0, calldataload(0x00))\n      dup1\n      0x45f907a8\n      eq\n      tag_3\n      jumpi\n      dup1\n      0x68873440\n      eq\n      tag_4\n      jumpi\n      dup1\n      0x86887544\n      eq\n      tag_5\n      jumpi\n      dup1\n      0xadb4d990\n      eq\n      tag_6\n      jumpi\n    tag_2:\n      0x00\n      dup1\n      revert\n        /* \"Function.sol\":415:514  function named() public pure returns (uint x, bool b, uint y){... */\n    tag_3:\n      tag_7\n      tag_8\n      jump\t// in\n    tag_7:\n      mload(0x40)\n      tag_9\n      swap4\n      swap3\n      swap2\n      swap1\n      tag_10\n      jump\t// in\n    tag_9:\n      mload(0x40)\n      dup1\n      swap2\n      sub\n      swap1\n      return\n        /* \"Function.sol\":869:1089  function destructuringAssignments() public pure returns (uint, bool, uint, uint, uint){... */\n    tag_4:\n      tag_11\n      tag_12\n      jump\t// in\n    tag_11:\n      mload(0x40)\n      tag_13\n      swap6\n      swap5\n      swap4\n      swap3\n      swap2\n      swap1\n      tag_14\n      jump\t// in\n    tag_13:\n      mload(0x40)\n      dup1\n      swap2\n      sub\n      swap1\n      return\n        /* \"Function.sol\":273:371  function returnMany() public pure returns (uint, bool, uint){... */\n    tag_5:\n      tag_15\n      tag_16\n      jump\t// in\n    tag_15:\n      mload(0x40)\n      tag_17\n      swap4\n      swap3\n      swap2\n      swap1\n      tag_10\n      jump\t// in\n    tag_17:\n      mload(0x40)\n      dup1\n      swap2\n      sub\n      swap1\n      return\n        /* \"Function.sol\":633:756  function assigned() public pure returns( uint x, bool b, uint y){... */\n    tag_6:\n      tag_18\n      tag_19\n      jump\t// in\n    tag_18:\n      mload(0x40)\n      tag_20\n      swap4\n      swap3\n      swap2\n      swap1\n      tag_10\n      jump\t// in\n    tag_20:\n      mload(0x40)\n      dup1\n      swap2\n      sub\n      swap1\n      return\n        /* \"Function.sol\":415:514  function named() public pure returns (uint x, bool b, uint y){... */\n    tag_8:\n        /* \"Function.sol\":453:459  uint x */\n      0x00\n        /* \"Function.sol\":461:467  bool b */\n      dup1\n        /* \"Function.sol\":469:475  uint y */\n      0x00\n        /* \"Function.sol\":495:496  1 */\n      0x01\n        /* \"Function.sol\":498:502  true */\n      dup1\n        /* \"Function.sol\":504:505  2 */\n      0x02\n        /* \"Function.sol\":487:506  return (1, true, 2) */\n      swap3\n      pop\n      swap3\n      pop\n      swap3\n      pop\n        /* \"Function.sol\":415:514  function named() public pure returns (uint x, bool b, uint y){... */\n      swap1\n      swap2\n      swap3\n      jump\t// out\n        /* \"Function.sol\":869:1089  function destructuringAssignments() public pure returns (uint, bool, uint, uint, uint){... */\n    tag_12:\n        /* \"Function.sol\":926:930  uint */\n      0x00\n        /* \"Function.sol\":932:936  bool */\n      dup1\n        /* \"Function.sol\":938:942  uint */\n      0x00\n        /* \"Function.sol\":944:948  uint */\n      dup1\n        /* \"Function.sol\":950:954  uint */\n      0x00\n        /* \"Function.sol\":968:974  uint i */\n      dup1\n        /* \"Function.sol\":977:983  bool b */\n      0x00\n        /* \"Function.sol\":986:992  uint j */\n      dup1\n        /* \"Function.sol\":996:1008  returnMany() */\n      tag_23\n        /* \"Function.sol\":996:1006  returnMany */\n      tag_16\n        /* \"Function.sol\":996:1008  returnMany() */\n      jump\t// in\n    tag_23:\n        /* \"Function.sol\":966:1008  ( uint i , bool b , uint j) = returnMany() */\n      swap3\n      pop\n      swap3\n      pop\n      swap3\n      pop\n        /* \"Function.sol\":1021:1027  uint x */\n      0x00\n        /* \"Function.sol\":1031:1037  uint y */\n      dup1\n        /* \"Function.sol\":1042:1043  4 */\n      0x04\n        /* \"Function.sol\":1044:1045  5 */\n      0x05\n        /* \"Function.sol\":1046:1047  6 */\n      0x06\n        /* \"Function.sol\":1019:1048  ( uint x, , uint y) = (4,5,6) */\n      swap3\n      pop\n      pop\n      swap2\n      pop\n        /* \"Function.sol\":1067:1068  i */\n      dup5\n        /* \"Function.sol\":1070:1071  b */\n      dup5\n        /* \"Function.sol\":1073:1074  j */\n      dup5\n        /* \"Function.sol\":1076:1077  x */\n      dup5\n        /* \"Function.sol\":1079:1080  y */\n      dup5\n        /* \"Function.sol\":1059:1081  return (i, b, j, x, y) */\n      swap10\n      pop\n      swap10\n      pop\n      swap10\n      pop\n      swap10\n      pop\n      swap10\n      pop\n      pop\n      pop\n      pop\n      pop\n      pop\n        /* \"Function.sol\":869:1089  function destructuringAssignments() public pure returns (uint, bool, uint, uint, uint){... */\n      swap1\n      swap2\n      swap3\n      swap4\n      swap5\n      jump\t// out\n        /* \"Function.sol\":273:371  function returnMany() public pure returns (uint, bool, uint){... */\n    tag_16:\n        /* \"Function.sol\":316:320  uint */\n      0x00\n        /* \"Function.sol\":322:326  bool */\n      dup1\n        /* \"Function.sol\":328:332  uint */\n      0x00\n        /* \"Function.sol\":352:353  1 */\n      0x01\n        /* \"Function.sol\":355:359  true */\n      dup1\n        /* \"Function.sol\":361:362  2 */\n      0x02\n        /* \"Function.sol\":344:363  return (1, true, 2) */\n      swap3\n      pop\n      swap3\n      pop\n      swap3\n      pop\n        /* \"Function.sol\":273:371  function returnMany() public pure returns (uint, bool, uint){... */\n      swap1\n      swap2\n      swap3\n      jump\t// out\n        /* \"Function.sol\":633:756  function assigned() public pure returns( uint x, bool b, uint y){... */\n    tag_19:\n        /* \"Function.sol\":674:680  uint x */\n      0x00\n        /* \"Function.sol\":682:688  bool b */\n      dup1\n        /* \"Function.sol\":690:696  uint y */\n      0x00\n        /* \"Function.sol\":712:713  1 */\n      0x01\n        /* \"Function.sol\":708:713  x = 1 */\n      swap3\n      pop\n        /* \"Function.sol\":728:732  true */\n      0x01\n        /* \"Function.sol\":724:732  b = true */\n      swap2\n      pop\n        /* \"Function.sol\":747:748  2 */\n      0x02\n        /* \"Function.sol\":743:748  y = 2 */\n      swap1\n      pop\n        /* \"Function.sol\":633:756  function assigned() public pure returns( uint x, bool b, uint y){... */\n      swap1\n      swap2\n      swap3\n      jump\t// out\n        /* \"#utility.yul\":7:84   */\n    tag_26:\n        /* \"#utility.yul\":44:51   */\n      0x00\n        /* \"#utility.yul\":73:78   */\n      dup2\n        /* \"#utility.yul\":62:78   */\n      swap1\n      pop\n        /* \"#utility.yul\":7:84   */\n      swap2\n      swap1\n      pop\n      jump\t// out\n        /* \"#utility.yul\":90:208   */\n    tag_27:\n        /* \"#utility.yul\":177:201   */\n      tag_33\n        /* \"#utility.yul\":195:200   */\n      dup2\n        /* \"#utility.yul\":177:201   */\n      tag_26\n      jump\t// in\n    tag_33:\n        /* \"#utility.yul\":172:175   */\n      dup3\n        /* \"#utility.yul\":165:202   */\n      mstore\n        /* \"#utility.yul\":90:208   */\n      pop\n      pop\n      jump\t// out\n        /* \"#utility.yul\":214:304   */\n    tag_28:\n        /* \"#utility.yul\":248:255   */\n      0x00\n        /* \"#utility.yul\":291:296   */\n      dup2\n        /* \"#utility.yul\":284:297   */\n      iszero\n        /* \"#utility.yul\":277:298   */\n      iszero\n        /* \"#utility.yul\":266:298   */\n      swap1\n      pop\n        /* \"#utility.yul\":214:304   */\n      swap2\n      swap1\n      pop\n      jump\t// out\n        /* \"#utility.yul\":310:419   */\n    tag_29:\n        /* \"#utility.yul\":391:412   */\n      tag_36\n        /* \"#utility.yul\":406:411   */\n      dup2\n        /* \"#utility.yul\":391:412   */\n      tag_28\n      jump\t// in\n    tag_36:\n        /* \"#utility.yul\":386:389   */\n      dup3\n        /* \"#utility.yul\":379:413   */\n      mstore\n        /* \"#utility.yul\":310:419   */\n      pop\n      pop\n      jump\t// out\n        /* \"#utility.yul\":425:855   */\n    tag_10:\n        /* \"#utility.yul\":568:572   */\n      0x00\n        /* \"#utility.yul\":606:608   */\n      0x60\n        /* \"#utility.yul\":595:604   */\n      dup3\n        /* \"#utility.yul\":591:609   */\n      add\n        /* \"#utility.yul\":583:609   */\n      swap1\n      pop\n        /* \"#utility.yul\":619:690   */\n      tag_38\n        /* \"#utility.yul\":687:688   */\n      0x00\n        /* \"#utility.yul\":676:685   */\n      dup4\n        /* \"#utility.yul\":672:689   */\n      add\n        /* \"#utility.yul\":663:669   */\n      dup7\n        /* \"#utility.yul\":619:690   */\n      tag_27\n      jump\t// in\n    tag_38:\n        /* \"#utility.yul\":700:766   */\n      tag_39\n        /* \"#utility.yul\":762:764   */\n      0x20\n        /* \"#utility.yul\":751:760   */\n      dup4\n        /* \"#utility.yul\":747:765   */\n      add\n        /* \"#utility.yul\":738:744   */\n      dup6\n        /* \"#utility.yul\":700:766   */\n      tag_29\n      jump\t// in\n    tag_39:\n        /* \"#utility.yul\":776:848   */\n      tag_40\n        /* \"#utility.yul\":844:846   */\n      0x40\n        /* \"#utility.yul\":833:842   */\n      dup4\n        /* \"#utility.yul\":829:847   */\n      add\n        /* \"#utility.yul\":820:826   */\n      dup5\n        /* \"#utility.yul\":776:848   */\n      tag_27\n      jump\t// in\n    tag_40:\n        /* \"#utility.yul\":425:855   */\n      swap5\n      swap4\n      pop\n      pop\n      pop\n      pop\n      jump\t// out\n        /* \"#utility.yul\":861:1513   */\n    tag_14:\n        /* \"#utility.yul\":1060:1064   */\n      0x00\n        /* \"#utility.yul\":1098:1101   */\n      0xa0\n        /* \"#utility.yul\":1087:1096   */\n      dup3\n        /* \"#utility.yul\":1083:1102   */\n      add\n        /* \"#utility.yul\":1075:1102   */\n      swap1\n      pop\n        /* \"#utility.yul\":1112:1183   */\n      tag_42\n        /* \"#utility.yul\":1180:1181   */\n      0x00\n        /* \"#utility.yul\":1169:1178   */\n      dup4\n        /* \"#utility.yul\":1165:1182   */\n      add\n        /* \"#utility.yul\":1156:1162   */\n      dup9\n        /* \"#utility.yul\":1112:1183   */\n      tag_27\n      jump\t// in\n    tag_42:\n        /* \"#utility.yul\":1193:1259   */\n      tag_43\n        /* \"#utility.yul\":1255:1257   */\n      0x20\n        /* \"#utility.yul\":1244:1253   */\n      dup4\n        /* \"#utility.yul\":1240:1258   */\n      add\n        /* \"#utility.yul\":1231:1237   */\n      dup8\n        /* \"#utility.yul\":1193:1259   */\n      tag_29\n      jump\t// in\n    tag_43:\n        /* \"#utility.yul\":1269:1341   */\n      tag_44\n        /* \"#utility.yul\":1337:1339   */\n      0x40\n        /* \"#utility.yul\":1326:1335   */\n      dup4\n        /* \"#utility.yul\":1322:1340   */\n      add\n        /* \"#utility.yul\":1313:1319   */\n      dup7\n        /* \"#utility.yul\":1269:1341   */\n      tag_27\n      jump\t// in\n    tag_44:\n        /* \"#utility.yul\":1351:1423   */\n      tag_45\n        /* \"#utility.yul\":1419:1421   */\n      0x60\n        /* \"#utility.yul\":1408:1417   */\n      dup4\n        /* \"#utility.yul\":1404:1422   */\n      add\n        /* \"#utility.yul\":1395:1401   */\n      dup6\n        /* \"#utility.yul\":1351:1423   */\n      tag_27\n      jump\t// in\n    tag_45:\n        /* \"#utility.yul\":1433:1506   */\n      tag_46\n        /* \"#utility.yul\":1501:1504   */\n      0x80\n        /* \"#utility.yul\":1490:1499   */\n      dup4\n        /* \"#utility.yul\":1486:1505   */\n      add\n        /* \"#utility.yul\":1477:1483   */\n      dup5\n        /* \"#utility.yul\":1433:1506   */\n      tag_27\n      jump\t// in\n    tag_46:\n        /* \"#utility.yul\":861:1513   */\n      swap7\n      swap6\n      pop\n      pop\n      pop\n      pop\n      pop\n      pop\n      jump\t// out\n\n    auxdata: 0xa2646970667358221220f561015ff2b508050bb8d6b65a3e92f6868adeb62528fa622200333fb442e4b164736f6c634300080f0033\n}\n",
				"bytecode": {
					"linkReferences": {},
					"object": "608060405234801561001057600080fd5b5061024a806100206000396000f3fe608060405234801561001057600080fd5b506004361061004c5760003560e01c806345f907a81461005157806368873440146100715780638688754414610093578063adb4d990146100b3575b600080fd5b6100596100d3565b6040516100689392919061018a565b60405180910390f35b6100796100e8565b60405161008a9594939291906101c1565b60405180910390f35b61009b61012b565b6040516100aa9392919061018a565b60405180910390f35b6100bb610140565b6040516100ca9392919061018a565b60405180910390f35b60008060006001806002925092509250909192565b6000806000806000806000806100fc61012b565b925092509250600080600460056006925050915084848484849950995099509950995050505050509091929394565b60008060006001806002925092509250909192565b6000806000600192506001915060029050909192565b6000819050919050565b61016981610156565b82525050565b60008115159050919050565b6101848161016f565b82525050565b600060608201905061019f6000830186610160565b6101ac602083018561017b565b6101b96040830184610160565b949350505050565b600060a0820190506101d66000830188610160565b6101e3602083018761017b565b6101f06040830186610160565b6101fd6060830185610160565b61020a6080830184610160565b969550505050505056fea2646970667358221220f561015ff2b508050bb8d6b65a3e92f6868adeb62528fa622200333fb442e4b164736f6c634300080f0033",
					"opcodes": "PUSH1 0x80 PUSH1 0x40 MSTORE CALLVALUE DUP1 ISZERO PUSH2 0x10 JUMPI PUSH1 0x0 DUP1 REVERT JUMPDEST POP PUSH2 0x24A DUP1 PUSH2 0x20 PUSH1 0x0 CODECOPY PUSH1 0x0 RETURN INVALID PUSH1 0x80 PUSH1 0x40 MSTORE CALLVALUE DUP1 ISZERO PUSH2 0x10 JUMPI PUSH1 0x0 DUP1 REVERT JUMPDEST POP PUSH1 0x4 CALLDATASIZE LT PUSH2 0x4C JUMPI PUSH1 0x0 CALLDATALOAD PUSH1 0xE0 SHR DUP1 PUSH4 0x45F907A8 EQ PUSH2 0x51 JUMPI DUP1 PUSH4 0x68873440 EQ PUSH2 0x71 JUMPI DUP1 PUSH4 0x86887544 EQ PUSH2 0x93 JUMPI DUP1 PUSH4 0xADB4D990 EQ PUSH2 0xB3 JUMPI JUMPDEST PUSH1 0x0 DUP1 REVERT JUMPDEST PUSH2 0x59 PUSH2 0xD3 JUMP JUMPDEST PUSH1 0x40 MLOAD PUSH2 0x68 SWAP4 SWAP3 SWAP2 SWAP1 PUSH2 0x18A JUMP JUMPDEST PUSH1 0x40 MLOAD DUP1 SWAP2 SUB SWAP1 RETURN JUMPDEST PUSH2 0x79 PUSH2 0xE8 JUMP JUMPDEST PUSH1 0x40 MLOAD PUSH2 0x8A SWAP6 SWAP5 SWAP4 SWAP3 SWAP2 SWAP1 PUSH2 0x1C1 JUMP JUMPDEST PUSH1 0x40 MLOAD DUP1 SWAP2 SUB SWAP1 RETURN JUMPDEST PUSH2 0x9B PUSH2 0x12B JUMP JUMPDEST PUSH1 0x40 MLOAD PUSH2 0xAA SWAP4 SWAP3 SWAP2 SWAP1 PUSH2 0x18A JUMP JUMPDEST PUSH1 0x40 MLOAD DUP1 SWAP2 SUB SWAP1 RETURN JUMPDEST PUSH2 0xBB PUSH2 0x140 JUMP JUMPDEST PUSH1 0x40 MLOAD PUSH2 0xCA SWAP4 SWAP3 SWAP2 SWAP1 PUSH2 0x18A JUMP JUMPDEST PUSH1 0x40 MLOAD DUP1 SWAP2 SUB SWAP1 RETURN JUMPDEST PUSH1 0x0 DUP1 PUSH1 0x0 PUSH1 0x1 DUP1 PUSH1 0x2 SWAP3 POP SWAP3 POP SWAP3 POP SWAP1 SWAP2 SWAP3 JUMP JUMPDEST PUSH1 0x0 DUP1 PUSH1 0x0 DUP1 PUSH1 0x0 DUP1 PUSH1 0x0 DUP1 PUSH2 0xFC PUSH2 0x12B JUMP JUMPDEST SWAP3 POP SWAP3 POP SWAP3 POP PUSH1 0x0 DUP1 PUSH1 0x4 PUSH1 0x5 PUSH1 0x6 SWAP3 POP POP SWAP2 POP DUP5 DUP5 DUP5 DUP5 DUP5 SWAP10 POP SWAP10 POP SWAP10 POP SWAP10 POP SWAP10 POP POP POP POP POP POP SWAP1 SWAP2 SWAP3 SWAP4 SWAP5 JUMP JUMPDEST PUSH1 0x0 DUP1 PUSH1 0x0 PUSH1 0x1 DUP1 PUSH1 0x2 SWAP3 POP SWAP3 POP SWAP3 POP SWAP1 SWAP2 SWAP3 JUMP JUMPDEST PUSH1 0x0 DUP1 PUSH1 0x0 PUSH1 0x1 SWAP3 POP PUSH1 0x1 SWAP2 POP PUSH1 0x2 SWAP1 POP SWAP1 SWAP2 SWAP3 JUMP JUMPDEST PUSH1 0x0 DUP2 SWAP1 POP SWAP2 SWAP1 POP JUMP JUMPDEST PUSH2 0x169 DUP2 PUSH2 0x156 JUMP JUMPDEST DUP3 MSTORE POP POP JUMP JUMPDEST PUSH1 0x0 DUP2 ISZERO ISZERO SWAP1 POP SWAP2 SWAP1 POP JUMP JUMPDEST PUSH2 0x184 DUP2 PUSH2 0x16F JUMP JUMPDEST DUP3 MSTORE POP POP JUMP JUMPDEST PUSH1 0x0 PUSH1 0x60 DUP3 ADD SWAP1 POP PUSH2 0x19F PUSH1 0x0 DUP4 ADD DUP7 PUSH2 0x160 JUMP JUMPDEST PUSH2 0x1AC PUSH1 0x20 DUP4 ADD DUP6 PUSH2 0x17B JUMP JUMPDEST PUSH2 0x1B9 PUSH1 0x40 DUP4 ADD DUP5 PUSH2 0x160 JUMP JUMPDEST SWAP5 SWAP4 POP POP POP POP JUMP JUMPDEST PUSH1 0x0 PUSH1 0xA0 DUP3 ADD SWAP1 POP PUSH2 0x1D6 PUSH1 0x0 DUP4 ADD DUP9 PUSH2 0x160 JUMP JUMPDEST PUSH2 0x1E3 PUSH1 0x20 DUP4 ADD DUP8 PUSH2 0x17B JUMP JUMPDEST PUSH2 0x1F0 PUSH1 0x40 DUP4 ADD DUP7 PUSH2 0x160 JUMP JUMPDEST PUSH2 0x1FD PUSH1 0x60 DUP4 ADD DUP6 PUSH2 0x160 JUMP JUMPDEST PUSH2 0x20A PUSH1 0x80 DUP4 ADD DUP5 PUSH2 0x160 JUMP JUMPDEST SWAP7 SWAP6 POP POP POP POP POP POP JUMP INVALID LOG2 PUSH5 0x6970667358 0x22 SLT KECCAK256 CREATE2 PUSH2 0x15F CALLCODE 0xB5 ADDMOD SDIV SIGNEXTEND 0xB8 0xD6 0xB6 GAS RETURNDATACOPY SWAP3 0xF6 DUP7 DUP11 0xDE 0xB6 0x25 0x28 STATICCALL PUSH3 0x220033 EXTCODEHASH 0xB4 TIMESTAMP 0xE4 0xB1 PUSH5 0x736F6C6343 STOP ADDMOD 0xF STOP CALLER "
				},
				"gasEstimates": {
					"creation": {
						"codeDepositCost": "117200",
						"executionCost": "165",
						"totalCost": "117365"
					},
					"external": {
						"assigned()": "infinite",
						"destructuringAssignments()": "infinite",
						"named()": "infinite",
						"returnMany()": "infinite"
					}
				},
				"methodIdentifiers": {
					"assigned()": "adb4d990",
					"destructuringAssignments()": "68873440",
					"named()": "45f907a8",
					"returnMany()": "86887544"
				}
			},
			"storageLayout": {
				"storage": [],
				"types": null
			},
			"userdoc": {
				"kind": "user",
				"methods": {},
				"version": 1
			}
		}
	}
}