{
	"Constructor.sol": {
		"Y": {
			"abi": [
				{
					"inputs": [
						{
							"internalType": "string",
							"name": "_text",
							"type": "string"
						}
					],
					"stateMutability": "nonpayable",
					"type": "constructor"
				},
				{
					"inputs": [],
					"name": "text",
					"outputs": [
						{
							"internalType": "string",
							"name": "",
							"type": "string"
						}
					],
					"stateMutability": "view",
					"type": "function"
				}
			],
			"devdoc": {
				"kind": "dev",
				"methods": {},
				"version": 1
			},
			"evm": {
				"assembly": "    /* \"Constructor.sol\":296:404  contract Y{... */\n  mstore(0x40, 0x80)\n    /* \"Constructor.sol\":338:401  constructor(string memory _text){... */\n  callvalue\n  dup1\n  iszero\n  tag_1\n  jumpi\n  0x00\n  dup1\n  revert\ntag_1:\n  pop\n  mload(0x40)\n  sub(codesize, bytecodeSize)\n  dup1\n  bytecodeSize\n  dup4\n  codecopy\n  dup2\n  dup2\n  add\n  0x40\n  mstore\n  dup2\n  add\n  swap1\n  tag_2\n  swap2\n  swap1\n  tag_3\n  jump\t// in\ntag_2:\n    /* \"Constructor.sol\":388:393  _text */\n  dup1\n    /* \"Constructor.sol\":381:385  text */\n  0x00\n    /* \"Constructor.sol\":381:393  text = _text */\n  swap1\n  dup2\n  tag_6\n  swap2\n  swap1\n  tag_7\n  jump\t// in\ntag_6:\n  pop\n    /* \"Constructor.sol\":338:401  constructor(string memory _text){... */\n  pop\n    /* \"Constructor.sol\":296:404  contract Y{... */\n  jump(tag_8)\n    /* \"#utility.yul\":7:82   */\ntag_9:\n    /* \"#utility.yul\":40:46   */\n  0x00\n    /* \"#utility.yul\":73:75   */\n  0x40\n    /* \"#utility.yul\":67:76   */\n  mload\n    /* \"#utility.yul\":57:76   */\n  swap1\n  pop\n    /* \"#utility.yul\":7:82   */\n  swap1\n  jump\t// out\n    /* \"#utility.yul\":88:205   */\ntag_10:\n    /* \"#utility.yul\":197:198   */\n  0x00\n    /* \"#utility.yul\":194:195   */\n  dup1\n    /* \"#utility.yul\":187:199   */\n  revert\n    /* \"#utility.yul\":211:328   */\ntag_11:\n    /* \"#utility.yul\":320:321   */\n  0x00\n    /* \"#utility.yul\":317:318   */\n  dup1\n    /* \"#utility.yul\":310:322   */\n  revert\n    /* \"#utility.yul\":334:451   */\ntag_12:\n    /* \"#utility.yul\":443:444   */\n  0x00\n    /* \"#utility.yul\":440:441   */\n  dup1\n    /* \"#utility.yul\":433:445   */\n  revert\n    /* \"#utility.yul\":457:574   */\ntag_13:\n    /* \"#utility.yul\":566:567   */\n  0x00\n    /* \"#utility.yul\":563:564   */\n  dup1\n    /* \"#utility.yul\":556:568   */\n  revert\n    /* \"#utility.yul\":580:682   */\ntag_14:\n    /* \"#utility.yul\":621:627   */\n  0x00\n    /* \"#utility.yul\":672:674   */\n  0x1f\n    /* \"#utility.yul\":668:675   */\n  not\n    /* \"#utility.yul\":663:665   */\n  0x1f\n    /* \"#utility.yul\":656:661   */\n  dup4\n    /* \"#utility.yul\":652:666   */\n  add\n    /* \"#utility.yul\":648:676   */\n  and\n    /* \"#utility.yul\":638:676   */\n  swap1\n  pop\n    /* \"#utility.yul\":580:682   */\n  swap2\n  swap1\n  pop\n  jump\t// out\n    /* \"#utility.yul\":688:868   */\ntag_15:\n    /* \"#utility.yul\":736:813   */\n  0x4e487b7100000000000000000000000000000000000000000000000000000000\n    /* \"#utility.yul\":733:734   */\n  0x00\n    /* \"#utility.yul\":726:814   */\n  mstore\n    /* \"#utility.yul\":833:837   */\n  0x41\n    /* \"#utility.yul\":830:831   */\n  0x04\n    /* \"#utility.yul\":823:838   */\n  mstore\n    /* \"#utility.yul\":857:861   */\n  0x24\n    /* \"#utility.yul\":854:855   */\n  0x00\n    /* \"#utility.yul\":847:862   */\n  revert\n    /* \"#utility.yul\":874:1155   */\ntag_16:\n    /* \"#utility.yul\":957:984   */\n  tag_50\n    /* \"#utility.yul\":979:983   */\n  dup3\n    /* \"#utility.yul\":957:984   */\n  tag_14\n  jump\t// in\ntag_50:\n    /* \"#utility.yul\":949:955   */\n  dup2\n    /* \"#utility.yul\":945:985   */\n  add\n    /* \"#utility.yul\":1087:1093   */\n  dup2\n    /* \"#utility.yul\":1075:1085   */\n  dup2\n    /* \"#utility.yul\":1072:1094   */\n  lt\n    /* \"#utility.yul\":1051:1069   */\n  0xffffffffffffffff\n    /* \"#utility.yul\":1039:1049   */\n  dup3\n    /* \"#utility.yul\":1036:1070   */\n  gt\n    /* \"#utility.yul\":1033:1095   */\n  or\n    /* \"#utility.yul\":1030:1118   */\n  iszero\n  tag_51\n  jumpi\n    /* \"#utility.yul\":1098:1116   */\n  tag_52\n  tag_15\n  jump\t// in\ntag_52:\n    /* \"#utility.yul\":1030:1118   */\ntag_51:\n    /* \"#utility.yul\":1138:1148   */\n  dup1\n    /* \"#utility.yul\":1134:1136   */\n  0x40\n    /* \"#utility.yul\":1127:1149   */\n  mstore\n    /* \"#utility.yul\":917:1155   */\n  pop\n    /* \"#utility.yul\":874:1155   */\n  pop\n  pop\n  jump\t// out\n    /* \"#utility.yul\":1161:1290   */\ntag_17:\n    /* \"#utility.yul\":1195:1201   */\n  0x00\n    /* \"#utility.yul\":1222:1242   */\n  tag_54\n  tag_9\n  jump\t// in\ntag_54:\n    /* \"#utility.yul\":1212:1242   */\n  swap1\n  pop\n    /* \"#utility.yul\":1251:1284   */\n  tag_55\n    /* \"#utility.yul\":1279:1283   */\n  dup3\n    /* \"#utility.yul\":1271:1277   */\n  dup3\n    /* \"#utility.yul\":1251:1284   */\n  tag_16\n  jump\t// in\ntag_55:\n    /* \"#utility.yul\":1161:1290   */\n  swap2\n  swap1\n  pop\n  jump\t// out\n    /* \"#utility.yul\":1296:1604   */\ntag_18:\n    /* \"#utility.yul\":1358:1362   */\n  0x00\n    /* \"#utility.yul\":1448:1466   */\n  0xffffffffffffffff\n    /* \"#utility.yul\":1440:1446   */\n  dup3\n    /* \"#utility.yul\":1437:1467   */\n  gt\n    /* \"#utility.yul\":1434:1490   */\n  iszero\n  tag_57\n  jumpi\n    /* \"#utility.yul\":1470:1488   */\n  tag_58\n  tag_15\n  jump\t// in\ntag_58:\n    /* \"#utility.yul\":1434:1490   */\ntag_57:\n    /* \"#utility.yul\":1508:1537   */\n  tag_59\n    /* \"#utility.yul\":1530:1536   */\n  dup3\n    /* \"#utility.yul\":1508:1537   */\n  tag_14\n  jump\t// in\ntag_59:\n    /* \"#utility.yul\":1500:1537   */\n  swap1\n  pop\n    /* \"#utility.yul\":1592:1596   */\n  0x20\n    /* \"#utility.yul\":1586:1590   */\n  dup2\n    /* \"#utility.yul\":1582:1597   */\n  add\n    /* \"#utility.yul\":1574:1597   */\n  swap1\n  pop\n    /* \"#utility.yul\":1296:1604   */\n  swap2\n  swap1\n  pop\n  jump\t// out\n    /* \"#utility.yul\":1610:1917   */\ntag_19:\n    /* \"#utility.yul\":1678:1679   */\n  0x00\n    /* \"#utility.yul\":1688:1801   */\ntag_61:\n    /* \"#utility.yul\":1702:1708   */\n  dup4\n    /* \"#utility.yul\":1699:1700   */\n  dup2\n    /* \"#utility.yul\":1696:1709   */\n  lt\n    /* \"#utility.yul\":1688:1801   */\n  iszero\n  tag_63\n  jumpi\n    /* \"#utility.yul\":1787:1788   */\n  dup1\n    /* \"#utility.yul\":1782:1785   */\n  dup3\n    /* \"#utility.yul\":1778:1789   */\n  add\n    /* \"#utility.yul\":1772:1790   */\n  mload\n    /* \"#utility.yul\":1768:1769   */\n  dup2\n    /* \"#utility.yul\":1763:1766   */\n  dup5\n    /* \"#utility.yul\":1759:1770   */\n  add\n    /* \"#utility.yul\":1752:1791   */\n  mstore\n    /* \"#utility.yul\":1724:1726   */\n  0x20\n    /* \"#utility.yul\":1721:1722   */\n  dup2\n    /* \"#utility.yul\":1717:1727   */\n  add\n    /* \"#utility.yul\":1712:1727   */\n  swap1\n  pop\n    /* \"#utility.yul\":1688:1801   */\n  jump(tag_61)\ntag_63:\n    /* \"#utility.yul\":1819:1825   */\n  dup4\n    /* \"#utility.yul\":1816:1817   */\n  dup2\n    /* \"#utility.yul\":1813:1826   */\n  gt\n    /* \"#utility.yul\":1810:1911   */\n  iszero\n  tag_64\n  jumpi\n    /* \"#utility.yul\":1899:1900   */\n  0x00\n    /* \"#utility.yul\":1890:1896   */\n  dup5\n    /* \"#utility.yul\":1885:1888   */\n  dup5\n    /* \"#utility.yul\":1881:1897   */\n  add\n    /* \"#utility.yul\":1874:1901   */\n  mstore\n    /* \"#utility.yul\":1810:1911   */\ntag_64:\n    /* \"#utility.yul\":1659:1917   */\n  pop\n    /* \"#utility.yul\":1610:1917   */\n  pop\n  pop\n  pop\n  jump\t// out\n    /* \"#utility.yul\":1923:2344   */\ntag_20:\n    /* \"#utility.yul\":2012:2017   */\n  0x00\n    /* \"#utility.yul\":2037:2103   */\n  tag_66\n    /* \"#utility.yul\":2053:2102   */\n  tag_67\n    /* \"#utility.yul\":2095:2101   */\n  dup5\n    /* \"#utility.yul\":2053:2102   */\n  tag_18\n  jump\t// in\ntag_67:\n    /* \"#utility.yul\":2037:2103   */\n  tag_17\n  jump\t// in\ntag_66:\n    /* \"#utility.yul\":2028:2103   */\n  swap1\n  pop\n    /* \"#utility.yul\":2126:2132   */\n  dup3\n    /* \"#utility.yul\":2119:2124   */\n  dup2\n    /* \"#utility.yul\":2112:2133   */\n  mstore\n    /* \"#utility.yul\":2164:2168   */\n  0x20\n    /* \"#utility.yul\":2157:2162   */\n  dup2\n    /* \"#utility.yul\":2153:2169   */\n  add\n    /* \"#utility.yul\":2202:2205   */\n  dup5\n    /* \"#utility.yul\":2193:2199   */\n  dup5\n    /* \"#utility.yul\":2188:2191   */\n  dup5\n    /* \"#utility.yul\":2184:2200   */\n  add\n    /* \"#utility.yul\":2181:2206   */\n  gt\n    /* \"#utility.yul\":2178:2290   */\n  iszero\n  tag_68\n  jumpi\n    /* \"#utility.yul\":2209:2288   */\n  tag_69\n  tag_13\n  jump\t// in\ntag_69:\n    /* \"#utility.yul\":2178:2290   */\ntag_68:\n    /* \"#utility.yul\":2299:2338   */\n  tag_70\n    /* \"#utility.yul\":2331:2337   */\n  dup5\n    /* \"#utility.yul\":2326:2329   */\n  dup3\n    /* \"#utility.yul\":2321:2324   */\n  dup6\n    /* \"#utility.yul\":2299:2338   */\n  tag_19\n  jump\t// in\ntag_70:\n    /* \"#utility.yul\":2018:2344   */\n  pop\n    /* \"#utility.yul\":1923:2344   */\n  swap4\n  swap3\n  pop\n  pop\n  pop\n  jump\t// out\n    /* \"#utility.yul\":2364:2719   */\ntag_21:\n    /* \"#utility.yul\":2431:2436   */\n  0x00\n    /* \"#utility.yul\":2480:2483   */\n  dup3\n    /* \"#utility.yul\":2473:2477   */\n  0x1f\n    /* \"#utility.yul\":2465:2471   */\n  dup4\n    /* \"#utility.yul\":2461:2478   */\n  add\n    /* \"#utility.yul\":2457:2484   */\n  slt\n    /* \"#utility.yul\":2447:2569   */\n  tag_72\n  jumpi\n    /* \"#utility.yul\":2488:2567   */\n  tag_73\n  tag_12\n  jump\t// in\ntag_73:\n    /* \"#utility.yul\":2447:2569   */\ntag_72:\n    /* \"#utility.yul\":2598:2604   */\n  dup2\n    /* \"#utility.yul\":2592:2605   */\n  mload\n    /* \"#utility.yul\":2623:2713   */\n  tag_74\n    /* \"#utility.yul\":2709:2712   */\n  dup5\n    /* \"#utility.yul\":2701:2707   */\n  dup3\n    /* \"#utility.yul\":2694:2698   */\n  0x20\n    /* \"#utility.yul\":2686:2692   */\n  dup7\n    /* \"#utility.yul\":2682:2699   */\n  add\n    /* \"#utility.yul\":2623:2713   */\n  tag_20\n  jump\t// in\ntag_74:\n    /* \"#utility.yul\":2614:2713   */\n  swap2\n  pop\n    /* \"#utility.yul\":2437:2719   */\n  pop\n    /* \"#utility.yul\":2364:2719   */\n  swap3\n  swap2\n  pop\n  pop\n  jump\t// out\n    /* \"#utility.yul\":2725:3249   */\ntag_3:\n    /* \"#utility.yul\":2805:2811   */\n  0x00\n    /* \"#utility.yul\":2854:2856   */\n  0x20\n    /* \"#utility.yul\":2842:2851   */\n  dup3\n    /* \"#utility.yul\":2833:2840   */\n  dup5\n    /* \"#utility.yul\":2829:2852   */\n  sub\n    /* \"#utility.yul\":2825:2857   */\n  slt\n    /* \"#utility.yul\":2822:2941   */\n  iszero\n  tag_76\n  jumpi\n    /* \"#utility.yul\":2860:2939   */\n  tag_77\n  tag_10\n  jump\t// in\ntag_77:\n    /* \"#utility.yul\":2822:2941   */\ntag_76:\n    /* \"#utility.yul\":3001:3002   */\n  0x00\n    /* \"#utility.yul\":2990:2999   */\n  dup3\n    /* \"#utility.yul\":2986:3003   */\n  add\n    /* \"#utility.yul\":2980:3004   */\n  mload\n    /* \"#utility.yul\":3031:3049   */\n  0xffffffffffffffff\n    /* \"#utility.yul\":3023:3029   */\n  dup2\n    /* \"#utility.yul\":3020:3050   */\n  gt\n    /* \"#utility.yul\":3017:3134   */\n  iszero\n  tag_78\n  jumpi\n    /* \"#utility.yul\":3053:3132   */\n  tag_79\n  tag_11\n  jump\t// in\ntag_79:\n    /* \"#utility.yul\":3017:3134   */\ntag_78:\n    /* \"#utility.yul\":3158:3232   */\n  tag_80\n    /* \"#utility.yul\":3224:3231   */\n  dup5\n    /* \"#utility.yul\":3215:3221   */\n  dup3\n    /* \"#utility.yul\":3204:3213   */\n  dup6\n    /* \"#utility.yul\":3200:3222   */\n  add\n    /* \"#utility.yul\":3158:3232   */\n  tag_21\n  jump\t// in\ntag_80:\n    /* \"#utility.yul\":3148:3232   */\n  swap2\n  pop\n    /* \"#utility.yul\":2951:3242   */\n  pop\n    /* \"#utility.yul\":2725:3249   */\n  swap3\n  swap2\n  pop\n  pop\n  jump\t// out\n    /* \"#utility.yul\":3255:3354   */\ntag_22:\n    /* \"#utility.yul\":3307:3313   */\n  0x00\n    /* \"#utility.yul\":3341:3346   */\n  dup2\n    /* \"#utility.yul\":3335:3347   */\n  mload\n    /* \"#utility.yul\":3325:3347   */\n  swap1\n  pop\n    /* \"#utility.yul\":3255:3354   */\n  swap2\n  swap1\n  pop\n  jump\t// out\n    /* \"#utility.yul\":3360:3540   */\ntag_23:\n    /* \"#utility.yul\":3408:3485   */\n  0x4e487b7100000000000000000000000000000000000000000000000000000000\n    /* \"#utility.yul\":3405:3406   */\n  0x00\n    /* \"#utility.yul\":3398:3486   */\n  mstore\n    /* \"#utility.yul\":3505:3509   */\n  0x22\n    /* \"#utility.yul\":3502:3503   */\n  0x04\n    /* \"#utility.yul\":3495:3510   */\n  mstore\n    /* \"#utility.yul\":3529:3533   */\n  0x24\n    /* \"#utility.yul\":3526:3527   */\n  0x00\n    /* \"#utility.yul\":3519:3534   */\n  revert\n    /* \"#utility.yul\":3546:3866   */\ntag_24:\n    /* \"#utility.yul\":3590:3596   */\n  0x00\n    /* \"#utility.yul\":3627:3628   */\n  0x02\n    /* \"#utility.yul\":3621:3625   */\n  dup3\n    /* \"#utility.yul\":3617:3629   */\n  div\n    /* \"#utility.yul\":3607:3629   */\n  swap1\n  pop\n    /* \"#utility.yul\":3674:3675   */\n  0x01\n    /* \"#utility.yul\":3668:3672   */\n  dup3\n    /* \"#utility.yul\":3664:3676   */\n  and\n    /* \"#utility.yul\":3695:3713   */\n  dup1\n    /* \"#utility.yul\":3685:3766   */\n  tag_84\n  jumpi\n    /* \"#utility.yul\":3751:3755   */\n  0x7f\n    /* \"#utility.yul\":3743:3749   */\n  dup3\n    /* \"#utility.yul\":3739:3756   */\n  and\n    /* \"#utility.yul\":3729:3756   */\n  swap2\n  pop\n    /* \"#utility.yul\":3685:3766   */\ntag_84:\n    /* \"#utility.yul\":3813:3815   */\n  0x20\n    /* \"#utility.yul\":3805:3811   */\n  dup3\n    /* \"#utility.yul\":3802:3816   */\n  lt\n    /* \"#utility.yul\":3782:3800   */\n  dup2\n    /* \"#utility.yul\":3779:3817   */\n  sub\n    /* \"#utility.yul\":3776:3860   */\n  tag_85\n  jumpi\n    /* \"#utility.yul\":3832:3850   */\n  tag_86\n  tag_23\n  jump\t// in\ntag_86:\n    /* \"#utility.yul\":3776:3860   */\ntag_85:\n    /* \"#utility.yul\":3597:3866   */\n  pop\n    /* \"#utility.yul\":3546:3866   */\n  swap2\n  swap1\n  pop\n  jump\t// out\n    /* \"#utility.yul\":3872:4013   */\ntag_25:\n    /* \"#utility.yul\":3921:3925   */\n  0x00\n    /* \"#utility.yul\":3944:3947   */\n  dup2\n    /* \"#utility.yul\":3936:3947   */\n  swap1\n  pop\n    /* \"#utility.yul\":3967:3970   */\n  dup2\n    /* \"#utility.yul\":3964:3965   */\n  0x00\n    /* \"#utility.yul\":3957:3971   */\n  mstore\n    /* \"#utility.yul\":4001:4005   */\n  0x20\n    /* \"#utility.yul\":3998:3999   */\n  0x00\n    /* \"#utility.yul\":3988:4006   */\n  keccak256\n    /* \"#utility.yul\":3980:4006   */\n  swap1\n  pop\n    /* \"#utility.yul\":3872:4013   */\n  swap2\n  swap1\n  pop\n  jump\t// out\n    /* \"#utility.yul\":4019:4112   */\ntag_26:\n    /* \"#utility.yul\":4056:4062   */\n  0x00\n    /* \"#utility.yul\":4103:4105   */\n  0x20\n    /* \"#utility.yul\":4098:4100   */\n  0x1f\n    /* \"#utility.yul\":4091:4096   */\n  dup4\n    /* \"#utility.yul\":4087:4101   */\n  add\n    /* \"#utility.yul\":4083:4106   */\n  div\n    /* \"#utility.yul\":4073:4106   */\n  swap1\n  pop\n    /* \"#utility.yul\":4019:4112   */\n  swap2\n  swap1\n  pop\n  jump\t// out\n    /* \"#utility.yul\":4118:4225   */\ntag_27:\n    /* \"#utility.yul\":4162:4170   */\n  0x00\n    /* \"#utility.yul\":4212:4217   */\n  dup3\n    /* \"#utility.yul\":4206:4210   */\n  dup3\n    /* \"#utility.yul\":4202:4218   */\n  shl\n    /* \"#utility.yul\":4181:4218   */\n  swap1\n  pop\n    /* \"#utility.yul\":4118:4225   */\n  swap3\n  swap2\n  pop\n  pop\n  jump\t// out\n    /* \"#utility.yul\":4231:4624   */\ntag_28:\n    /* \"#utility.yul\":4300:4306   */\n  0x00\n    /* \"#utility.yul\":4350:4351   */\n  0x08\n    /* \"#utility.yul\":4338:4348   */\n  dup4\n    /* \"#utility.yul\":4334:4352   */\n  mul\n    /* \"#utility.yul\":4373:4470   */\n  tag_91\n    /* \"#utility.yul\":4403:4469   */\n  0xffffffffffffffffffffffffffffffffffffffffffffffffffffffffffffffff\n    /* \"#utility.yul\":4392:4401   */\n  dup3\n    /* \"#utility.yul\":4373:4470   */\n  tag_27\n  jump\t// in\ntag_91:\n    /* \"#utility.yul\":4491:4530   */\n  tag_92\n    /* \"#utility.yul\":4521:4529   */\n  dup7\n    /* \"#utility.yul\":4510:4519   */\n  dup4\n    /* \"#utility.yul\":4491:4530   */\n  tag_27\n  jump\t// in\ntag_92:\n    /* \"#utility.yul\":4479:4530   */\n  swap6\n  pop\n    /* \"#utility.yul\":4563:4567   */\n  dup1\n    /* \"#utility.yul\":4559:4568   */\n  not\n    /* \"#utility.yul\":4552:4557   */\n  dup5\n    /* \"#utility.yul\":4548:4569   */\n  and\n    /* \"#utility.yul\":4539:4569   */\n  swap4\n  pop\n    /* \"#utility.yul\":4612:4616   */\n  dup1\n    /* \"#utility.yul\":4602:4610   */\n  dup7\n    /* \"#utility.yul\":4598:4617   */\n  and\n    /* \"#utility.yul\":4591:4596   */\n  dup5\n    /* \"#utility.yul\":4588:4618   */\n  or\n    /* \"#utility.yul\":4578:4618   */\n  swap3\n  pop\n    /* \"#utility.yul\":4307:4624   */\n  pop\n  pop\n    /* \"#utility.yul\":4231:4624   */\n  swap4\n  swap3\n  pop\n  pop\n  pop\n  jump\t// out\n    /* \"#utility.yul\":4630:4707   */\ntag_29:\n    /* \"#utility.yul\":4667:4674   */\n  0x00\n    /* \"#utility.yul\":4696:4701   */\n  dup2\n    /* \"#utility.yul\":4685:4701   */\n  swap1\n  pop\n    /* \"#utility.yul\":4630:4707   */\n  swap2\n  swap1\n  pop\n  jump\t// out\n    /* \"#utility.yul\":4713:4773   */\ntag_30:\n    /* \"#utility.yul\":4741:4744   */\n  0x00\n    /* \"#utility.yul\":4762:4767   */\n  dup2\n    /* \"#utility.yul\":4755:4767   */\n  swap1\n  pop\n    /* \"#utility.yul\":4713:4773   */\n  swap2\n  swap1\n  pop\n  jump\t// out\n    /* \"#utility.yul\":4779:4921   */\ntag_31:\n    /* \"#utility.yul\":4829:4838   */\n  0x00\n    /* \"#utility.yul\":4862:4915   */\n  tag_96\n    /* \"#utility.yul\":4880:4914   */\n  tag_97\n    /* \"#utility.yul\":4889:4913   */\n  tag_98\n    /* \"#utility.yul\":4907:4912   */\n  dup5\n    /* \"#utility.yul\":4889:4913   */\n  tag_29\n  jump\t// in\ntag_98:\n    /* \"#utility.yul\":4880:4914   */\n  tag_30\n  jump\t// in\ntag_97:\n    /* \"#utility.yul\":4862:4915   */\n  tag_29\n  jump\t// in\ntag_96:\n    /* \"#utility.yul\":4849:4915   */\n  swap1\n  pop\n    /* \"#utility.yul\":4779:4921   */\n  swap2\n  swap1\n  pop\n  jump\t// out\n    /* \"#utility.yul\":4927:5002   */\ntag_32:\n    /* \"#utility.yul\":4970:4973   */\n  0x00\n    /* \"#utility.yul\":4991:4996   */\n  dup2\n    /* \"#utility.yul\":4984:4996   */\n  swap1\n  pop\n    /* \"#utility.yul\":4927:5002   */\n  swap2\n  swap1\n  pop\n  jump\t// out\n    /* \"#utility.yul\":5008:5277   */\ntag_33:\n    /* \"#utility.yul\":5118:5157   */\n  tag_101\n    /* \"#utility.yul\":5149:5156   */\n  dup4\n    /* \"#utility.yul\":5118:5157   */\n  tag_31\n  jump\t// in\ntag_101:\n    /* \"#utility.yul\":5179:5270   */\n  tag_102\n    /* \"#utility.yul\":5228:5269   */\n  tag_103\n    /* \"#utility.yul\":5252:5268   */\n  dup3\n    /* \"#utility.yul\":5228:5269   */\n  tag_32\n  jump\t// in\ntag_103:\n    /* \"#utility.yul\":5220:5226   */\n  dup5\n    /* \"#utility.yul\":5213:5217   */\n  dup5\n    /* \"#utility.yul\":5207:5218   */\n  sload\n    /* \"#utility.yul\":5179:5270   */\n  tag_28\n  jump\t// in\ntag_102:\n    /* \"#utility.yul\":5173:5177   */\n  dup3\n    /* \"#utility.yul\":5166:5271   */\n  sstore\n    /* \"#utility.yul\":5084:5277   */\n  pop\n    /* \"#utility.yul\":5008:5277   */\n  pop\n  pop\n  pop\n  jump\t// out\n    /* \"#utility.yul\":5283:5356   */\ntag_34:\n    /* \"#utility.yul\":5328:5331   */\n  0x00\n    /* \"#utility.yul\":5283:5356   */\n  swap1\n  jump\t// out\n    /* \"#utility.yul\":5362:5551   */\ntag_35:\n    /* \"#utility.yul\":5439:5471   */\n  tag_106\n  tag_34\n  jump\t// in\ntag_106:\n    /* \"#utility.yul\":5480:5545   */\n  tag_107\n    /* \"#utility.yul\":5538:5544   */\n  dup2\n    /* \"#utility.yul\":5530:5536   */\n  dup5\n    /* \"#utility.yul\":5524:5528   */\n  dup5\n    /* \"#utility.yul\":5480:5545   */\n  tag_33\n  jump\t// in\ntag_107:\n    /* \"#utility.yul\":5415:5551   */\n  pop\n    /* \"#utility.yul\":5362:5551   */\n  pop\n  pop\n  jump\t// out\n    /* \"#utility.yul\":5557:5743   */\ntag_36:\n    /* \"#utility.yul\":5617:5737   */\ntag_109:\n    /* \"#utility.yul\":5634:5637   */\n  dup2\n    /* \"#utility.yul\":5627:5632   */\n  dup2\n    /* \"#utility.yul\":5624:5638   */\n  lt\n    /* \"#utility.yul\":5617:5737   */\n  iszero\n  tag_111\n  jumpi\n    /* \"#utility.yul\":5688:5727   */\n  tag_112\n    /* \"#utility.yul\":5725:5726   */\n  0x00\n    /* \"#utility.yul\":5718:5723   */\n  dup3\n    /* \"#utility.yul\":5688:5727   */\n  tag_35\n  jump\t// in\ntag_112:\n    /* \"#utility.yul\":5661:5662   */\n  0x01\n    /* \"#utility.yul\":5654:5659   */\n  dup2\n    /* \"#utility.yul\":5650:5663   */\n  add\n    /* \"#utility.yul\":5641:5663   */\n  swap1\n  pop\n    /* \"#utility.yul\":5617:5737   */\n  jump(tag_109)\ntag_111:\n    /* \"#utility.yul\":5557:5743   */\n  pop\n  pop\n  jump\t// out\n    /* \"#utility.yul\":5749:6292   */\ntag_37:\n    /* \"#utility.yul\":5850:5852   */\n  0x1f\n    /* \"#utility.yul\":5845:5848   */\n  dup3\n    /* \"#utility.yul\":5842:5853   */\n  gt\n    /* \"#utility.yul\":5839:6285   */\n  iszero\n  tag_114\n  jumpi\n    /* \"#utility.yul\":5884:5922   */\n  tag_115\n    /* \"#utility.yul\":5916:5921   */\n  dup2\n    /* \"#utility.yul\":5884:5922   */\n  tag_25\n  jump\t// in\ntag_115:\n    /* \"#utility.yul\":5968:5997   */\n  tag_116\n    /* \"#utility.yul\":5986:5996   */\n  dup5\n    /* \"#utility.yul\":5968:5997   */\n  tag_26\n  jump\t// in\ntag_116:\n    /* \"#utility.yul\":5958:5966   */\n  dup2\n    /* \"#utility.yul\":5954:5998   */\n  add\n    /* \"#utility.yul\":6151:6153   */\n  0x20\n    /* \"#utility.yul\":6139:6149   */\n  dup6\n    /* \"#utility.yul\":6136:6154   */\n  lt\n    /* \"#utility.yul\":6133:6182   */\n  iszero\n  tag_117\n  jumpi\n    /* \"#utility.yul\":6172:6180   */\n  dup2\n    /* \"#utility.yul\":6157:6180   */\n  swap1\n  pop\n    /* \"#utility.yul\":6133:6182   */\ntag_117:\n    /* \"#utility.yul\":6195:6275   */\n  tag_118\n    /* \"#utility.yul\":6251:6273   */\n  tag_119\n    /* \"#utility.yul\":6269:6272   */\n  dup6\n    /* \"#utility.yul\":6251:6273   */\n  tag_26\n  jump\t// in\ntag_119:\n    /* \"#utility.yul\":6241:6249   */\n  dup4\n    /* \"#utility.yul\":6237:6274   */\n  add\n    /* \"#utility.yul\":6224:6235   */\n  dup3\n    /* \"#utility.yul\":6195:6275   */\n  tag_36\n  jump\t// in\ntag_118:\n    /* \"#utility.yul\":5854:6285   */\n  pop\n  pop\n    /* \"#utility.yul\":5839:6285   */\ntag_114:\n    /* \"#utility.yul\":5749:6292   */\n  pop\n  pop\n  pop\n  jump\t// out\n    /* \"#utility.yul\":6298:6415   */\ntag_38:\n    /* \"#utility.yul\":6352:6360   */\n  0x00\n    /* \"#utility.yul\":6402:6407   */\n  dup3\n    /* \"#utility.yul\":6396:6400   */\n  dup3\n    /* \"#utility.yul\":6392:6408   */\n  shr\n    /* \"#utility.yul\":6371:6408   */\n  swap1\n  pop\n    /* \"#utility.yul\":6298:6415   */\n  swap3\n  swap2\n  pop\n  pop\n  jump\t// out\n    /* \"#utility.yul\":6421:6590   */\ntag_39:\n    /* \"#utility.yul\":6465:6471   */\n  0x00\n    /* \"#utility.yul\":6498:6549   */\n  tag_122\n    /* \"#utility.yul\":6546:6547   */\n  0x00\n    /* \"#utility.yul\":6542:6548   */\n  not\n    /* \"#utility.yul\":6534:6539   */\n  dup5\n    /* \"#utility.yul\":6531:6532   */\n  0x08\n    /* \"#utility.yul\":6527:6540   */\n  mul\n    /* \"#utility.yul\":6498:6549   */\n  tag_38\n  jump\t// in\ntag_122:\n    /* \"#utility.yul\":6494:6550   */\n  not\n    /* \"#utility.yul\":6579:6583   */\n  dup1\n    /* \"#utility.yul\":6573:6577   */\n  dup4\n    /* \"#utility.yul\":6569:6584   */\n  and\n    /* \"#utility.yul\":6559:6584   */\n  swap2\n  pop\n    /* \"#utility.yul\":6472:6590   */\n  pop\n    /* \"#utility.yul\":6421:6590   */\n  swap3\n  swap2\n  pop\n  pop\n  jump\t// out\n    /* \"#utility.yul\":6595:6890   */\ntag_40:\n    /* \"#utility.yul\":6671:6675   */\n  0x00\n    /* \"#utility.yul\":6817:6846   */\n  tag_124\n    /* \"#utility.yul\":6842:6845   */\n  dup4\n    /* \"#utility.yul\":6836:6840   */\n  dup4\n    /* \"#utility.yul\":6817:6846   */\n  tag_39\n  jump\t// in\ntag_124:\n    /* \"#utility.yul\":6809:6846   */\n  swap2\n  pop\n    /* \"#utility.yul\":6879:6882   */\n  dup3\n    /* \"#utility.yul\":6876:6877   */\n  0x02\n    /* \"#utility.yul\":6872:6883   */\n  mul\n    /* \"#utility.yul\":6866:6870   */\n  dup3\n    /* \"#utility.yul\":6863:6884   */\n  or\n    /* \"#utility.yul\":6855:6884   */\n  swap1\n  pop\n    /* \"#utility.yul\":6595:6890   */\n  swap3\n  swap2\n  pop\n  pop\n  jump\t// out\n    /* \"#utility.yul\":6895:8290   */\ntag_7:\n    /* \"#utility.yul\":7012:7049   */\n  tag_126\n    /* \"#utility.yul\":7045:7048   */\n  dup3\n    /* \"#utility.yul\":7012:7049   */\n  tag_22\n  jump\t// in\ntag_126:\n    /* \"#utility.yul\":7114:7132   */\n  0xffffffffffffffff\n    /* \"#utility.yul\":7106:7112   */\n  dup2\n    /* \"#utility.yul\":7103:7133   */\n  gt\n    /* \"#utility.yul\":7100:7156   */\n  iszero\n  tag_127\n  jumpi\n    /* \"#utility.yul\":7136:7154   */\n  tag_128\n  tag_15\n  jump\t// in\ntag_128:\n    /* \"#utility.yul\":7100:7156   */\ntag_127:\n    /* \"#utility.yul\":7180:7218   */\n  tag_129\n    /* \"#utility.yul\":7212:7216   */\n  dup3\n    /* \"#utility.yul\":7206:7217   */\n  sload\n    /* \"#utility.yul\":7180:7218   */\n  tag_24\n  jump\t// in\ntag_129:\n    /* \"#utility.yul\":7265:7332   */\n  tag_130\n    /* \"#utility.yul\":7325:7331   */\n  dup3\n    /* \"#utility.yul\":7317:7323   */\n  dup3\n    /* \"#utility.yul\":7311:7315   */\n  dup6\n    /* \"#utility.yul\":7265:7332   */\n  tag_37\n  jump\t// in\ntag_130:\n    /* \"#utility.yul\":7359:7360   */\n  0x00\n    /* \"#utility.yul\":7383:7387   */\n  0x20\n    /* \"#utility.yul\":7370:7387   */\n  swap1\n  pop\n    /* \"#utility.yul\":7415:7417   */\n  0x1f\n    /* \"#utility.yul\":7407:7413   */\n  dup4\n    /* \"#utility.yul\":7404:7418   */\n  gt\n    /* \"#utility.yul\":7432:7433   */\n  0x01\n    /* \"#utility.yul\":7427:8045   */\n  dup2\n  eq\n  tag_132\n  jumpi\n    /* \"#utility.yul\":8089:8090   */\n  0x00\n    /* \"#utility.yul\":8106:8112   */\n  dup5\n    /* \"#utility.yul\":8103:8180   */\n  iszero\n  tag_133\n  jumpi\n    /* \"#utility.yul\":8155:8164   */\n  dup3\n    /* \"#utility.yul\":8150:8153   */\n  dup8\n    /* \"#utility.yul\":8146:8165   */\n  add\n    /* \"#utility.yul\":8140:8166   */\n  mload\n    /* \"#utility.yul\":8131:8166   */\n  swap1\n  pop\n    /* \"#utility.yul\":8103:8180   */\ntag_133:\n    /* \"#utility.yul\":8206:8273   */\n  tag_134\n    /* \"#utility.yul\":8266:8272   */\n  dup6\n    /* \"#utility.yul\":8259:8264   */\n  dup3\n    /* \"#utility.yul\":8206:8273   */\n  tag_40\n  jump\t// in\ntag_134:\n    /* \"#utility.yul\":8200:8204   */\n  dup7\n    /* \"#utility.yul\":8193:8274   */\n  sstore\n    /* \"#utility.yul\":8062:8284   */\n  pop\n    /* \"#utility.yul\":7397:8284   */\n  jump(tag_131)\n    /* \"#utility.yul\":7427:8045   */\ntag_132:\n    /* \"#utility.yul\":7479:7483   */\n  0x1f\n    /* \"#utility.yul\":7475:7484   */\n  not\n    /* \"#utility.yul\":7467:7473   */\n  dup5\n    /* \"#utility.yul\":7463:7485   */\n  and\n    /* \"#utility.yul\":7513:7550   */\n  tag_135\n    /* \"#utility.yul\":7545:7549   */\n  dup7\n    /* \"#utility.yul\":7513:7550   */\n  tag_25\n  jump\t// in\ntag_135:\n    /* \"#utility.yul\":7572:7573   */\n  0x00\n    /* \"#utility.yul\":7586:7794   */\ntag_136:\n    /* \"#utility.yul\":7600:7607   */\n  dup3\n    /* \"#utility.yul\":7597:7598   */\n  dup2\n    /* \"#utility.yul\":7594:7608   */\n  lt\n    /* \"#utility.yul\":7586:7794   */\n  iszero\n  tag_138\n  jumpi\n    /* \"#utility.yul\":7679:7688   */\n  dup5\n    /* \"#utility.yul\":7674:7677   */\n  dup10\n    /* \"#utility.yul\":7670:7689   */\n  add\n    /* \"#utility.yul\":7664:7690   */\n  mload\n    /* \"#utility.yul\":7656:7662   */\n  dup3\n    /* \"#utility.yul\":7649:7691   */\n  sstore\n    /* \"#utility.yul\":7730:7731   */\n  0x01\n    /* \"#utility.yul\":7722:7728   */\n  dup3\n    /* \"#utility.yul\":7718:7732   */\n  add\n    /* \"#utility.yul\":7708:7732   */\n  swap2\n  pop\n    /* \"#utility.yul\":7777:7779   */\n  0x20\n    /* \"#utility.yul\":7766:7775   */\n  dup6\n    /* \"#utility.yul\":7762:7780   */\n  add\n    /* \"#utility.yul\":7749:7780   */\n  swap5\n  pop\n    /* \"#utility.yul\":7623:7627   */\n  0x20\n    /* \"#utility.yul\":7620:7621   */\n  dup2\n    /* \"#utility.yul\":7616:7628   */\n  add\n    /* \"#utility.yul\":7611:7628   */\n  swap1\n  pop\n    /* \"#utility.yul\":7586:7794   */\n  jump(tag_136)\ntag_138:\n    /* \"#utility.yul\":7822:7828   */\n  dup7\n    /* \"#utility.yul\":7813:7820   */\n  dup4\n    /* \"#utility.yul\":7810:7829   */\n  lt\n    /* \"#utility.yul\":7807:7986   */\n  iszero\n  tag_139\n  jumpi\n    /* \"#utility.yul\":7880:7889   */\n  dup5\n    /* \"#utility.yul\":7875:7878   */\n  dup10\n    /* \"#utility.yul\":7871:7890   */\n  add\n    /* \"#utility.yul\":7865:7891   */\n  mload\n    /* \"#utility.yul\":7923:7971   */\n  tag_140\n    /* \"#utility.yul\":7965:7969   */\n  0x1f\n    /* \"#utility.yul\":7957:7963   */\n  dup10\n    /* \"#utility.yul\":7953:7970   */\n  and\n    /* \"#utility.yul\":7942:7951   */\n  dup3\n    /* \"#utility.yul\":7923:7971   */\n  tag_39\n  jump\t// in\ntag_140:\n    /* \"#utility.yul\":7915:7921   */\n  dup4\n    /* \"#utility.yul\":7908:7972   */\n  sstore\n    /* \"#utility.yul\":7830:7986   */\n  pop\n    /* \"#utility.yul\":7807:7986   */\ntag_139:\n    /* \"#utility.yul\":8032:8033   */\n  0x01\n    /* \"#utility.yul\":8028:8029   */\n  0x02\n    /* \"#utility.yul\":8020:8026   */\n  dup9\n    /* \"#utility.yul\":8016:8030   */\n  mul\n    /* \"#utility.yul\":8012:8034   */\n  add\n    /* \"#utility.yul\":8006:8010   */\n  dup9\n    /* \"#utility.yul\":7999:8035   */\n  sstore\n    /* \"#utility.yul\":7434:8045   */\n  pop\n  pop\n  pop\n    /* \"#utility.yul\":7397:8284   */\ntag_131:\n  pop\n    /* \"#utility.yul\":6987:8290   */\n  pop\n  pop\n  pop\n    /* \"#utility.yul\":6895:8290   */\n  pop\n  pop\n  jump\t// out\n    /* \"Constructor.sol\":296:404  contract Y{... */\ntag_8:\n  dataSize(sub_0)\n  dup1\n  dataOffset(sub_0)\n  0x00\n  codecopy\n  0x00\n  return\nstop\n\nsub_0: assembly {\n        /* \"Constructor.sol\":296:404  contract Y{... */\n      mstore(0x40, 0x80)\n      callvalue\n      dup1\n      iszero\n      tag_1\n      jumpi\n      0x00\n      dup1\n      revert\n    tag_1:\n      pop\n      jumpi(tag_2, lt(calldatasize, 0x04))\n      shr(0xe0, calldataload(0x00))\n      dup1\n      0x1f1bd692\n      eq\n      tag_3\n      jumpi\n    tag_2:\n      0x00\n      dup1\n      revert\n        /* \"Constructor.sol\":313:331  string public text */\n    tag_3:\n      tag_4\n      tag_5\n      jump\t// in\n    tag_4:\n      mload(0x40)\n      tag_6\n      swap2\n      swap1\n      tag_7\n      jump\t// in\n    tag_6:\n      mload(0x40)\n      dup1\n      swap2\n      sub\n      swap1\n      return\n    tag_5:\n      0x00\n      dup1\n      sload\n      tag_8\n      swap1\n      tag_9\n      jump\t// in\n    tag_8:\n      dup1\n      0x1f\n      add\n      0x20\n      dup1\n      swap2\n      div\n      mul\n      0x20\n      add\n      mload(0x40)\n      swap1\n      dup2\n      add\n      0x40\n      mstore\n      dup1\n      swap3\n      swap2\n      swap1\n      dup2\n      dup2\n      mstore\n      0x20\n      add\n      dup3\n      dup1\n      sload\n      tag_10\n      swap1\n      tag_9\n      jump\t// in\n    tag_10:\n      dup1\n      iszero\n      tag_11\n      jumpi\n      dup1\n      0x1f\n      lt\n      tag_12\n      jumpi\n      0x0100\n      dup1\n      dup4\n      sload\n      div\n      mul\n      dup4\n      mstore\n      swap2\n      0x20\n      add\n      swap2\n      jump(tag_11)\n    tag_12:\n      dup3\n      add\n      swap2\n      swap1\n      0x00\n      mstore\n      keccak256(0x00, 0x20)\n      swap1\n    tag_13:\n      dup2\n      sload\n      dup2\n      mstore\n      swap1\n      0x01\n      add\n      swap1\n      0x20\n      add\n      dup1\n      dup4\n      gt\n      tag_13\n      jumpi\n      dup3\n      swap1\n      sub\n      0x1f\n      and\n      dup3\n      add\n      swap2\n    tag_11:\n      pop\n      pop\n      pop\n      pop\n      pop\n      dup2\n      jump\t// out\n        /* \"#utility.yul\":7:106   */\n    tag_14:\n        /* \"#utility.yul\":59:65   */\n      0x00\n        /* \"#utility.yul\":93:98   */\n      dup2\n        /* \"#utility.yul\":87:99   */\n      mload\n        /* \"#utility.yul\":77:99   */\n      swap1\n      pop\n        /* \"#utility.yul\":7:106   */\n      swap2\n      swap1\n      pop\n      jump\t// out\n        /* \"#utility.yul\":112:281   */\n    tag_15:\n        /* \"#utility.yul\":196:207   */\n      0x00\n        /* \"#utility.yul\":230:236   */\n      dup3\n        /* \"#utility.yul\":225:228   */\n      dup3\n        /* \"#utility.yul\":218:237   */\n      mstore\n        /* \"#utility.yul\":270:274   */\n      0x20\n        /* \"#utility.yul\":265:268   */\n      dup3\n        /* \"#utility.yul\":261:275   */\n      add\n        /* \"#utility.yul\":246:275   */\n      swap1\n      pop\n        /* \"#utility.yul\":112:281   */\n      swap3\n      swap2\n      pop\n      pop\n      jump\t// out\n        /* \"#utility.yul\":287:594   */\n    tag_16:\n        /* \"#utility.yul\":355:356   */\n      0x00\n        /* \"#utility.yul\":365:478   */\n    tag_24:\n        /* \"#utility.yul\":379:385   */\n      dup4\n        /* \"#utility.yul\":376:377   */\n      dup2\n        /* \"#utility.yul\":373:386   */\n      lt\n        /* \"#utility.yul\":365:478   */\n      iszero\n      tag_26\n      jumpi\n        /* \"#utility.yul\":464:465   */\n      dup1\n        /* \"#utility.yul\":459:462   */\n      dup3\n        /* \"#utility.yul\":455:466   */\n      add\n        /* \"#utility.yul\":449:467   */\n      mload\n        /* \"#utility.yul\":445:446   */\n      dup2\n        /* \"#utility.yul\":440:443   */\n      dup5\n        /* \"#utility.yul\":436:447   */\n      add\n        /* \"#utility.yul\":429:468   */\n      mstore\n        /* \"#utility.yul\":401:403   */\n      0x20\n        /* \"#utility.yul\":398:399   */\n      dup2\n        /* \"#utility.yul\":394:404   */\n      add\n        /* \"#utility.yul\":389:404   */\n      swap1\n      pop\n        /* \"#utility.yul\":365:478   */\n      jump(tag_24)\n    tag_26:\n        /* \"#utility.yul\":496:502   */\n      dup4\n        /* \"#utility.yul\":493:494   */\n      dup2\n        /* \"#utility.yul\":490:503   */\n      gt\n        /* \"#utility.yul\":487:588   */\n      iszero\n      tag_27\n      jumpi\n        /* \"#utility.yul\":576:577   */\n      0x00\n        /* \"#utility.yul\":567:573   */\n      dup5\n        /* \"#utility.yul\":562:565   */\n      dup5\n        /* \"#utility.yul\":558:574   */\n      add\n        /* \"#utility.yul\":551:578   */\n      mstore\n        /* \"#utility.yul\":487:588   */\n    tag_27:\n        /* \"#utility.yul\":336:594   */\n      pop\n        /* \"#utility.yul\":287:594   */\n      pop\n      pop\n      pop\n      jump\t// out\n        /* \"#utility.yul\":600:702   */\n    tag_17:\n        /* \"#utility.yul\":641:647   */\n      0x00\n        /* \"#utility.yul\":692:694   */\n      0x1f\n        /* \"#utility.yul\":688:695   */\n      not\n        /* \"#utility.yul\":683:685   */\n      0x1f\n        /* \"#utility.yul\":676:681   */\n      dup4\n        /* \"#utility.yul\":672:686   */\n      add\n        /* \"#utility.yul\":668:696   */\n      and\n        /* \"#utility.yul\":658:696   */\n      swap1\n      pop\n        /* \"#utility.yul\":600:702   */\n      swap2\n      swap1\n      pop\n      jump\t// out\n        /* \"#utility.yul\":708:1072   */\n    tag_18:\n        /* \"#utility.yul\":796:799   */\n      0x00\n        /* \"#utility.yul\":824:863   */\n      tag_30\n        /* \"#utility.yul\":857:862   */\n      dup3\n        /* \"#utility.yul\":824:863   */\n      tag_14\n      jump\t// in\n    tag_30:\n        /* \"#utility.yul\":879:950   */\n      tag_31\n        /* \"#utility.yul\":943:949   */\n      dup2\n        /* \"#utility.yul\":938:941   */\n      dup6\n        /* \"#utility.yul\":879:950   */\n      tag_15\n      jump\t// in\n    tag_31:\n        /* \"#utility.yul\":872:950   */\n      swap4\n      pop\n        /* \"#utility.yul\":959:1011   */\n      tag_32\n        /* \"#utility.yul\":1004:1010   */\n      dup2\n        /* \"#utility.yul\":999:1002   */\n      dup6\n        /* \"#utility.yul\":992:996   */\n      0x20\n        /* \"#utility.yul\":985:990   */\n      dup7\n        /* \"#utility.yul\":981:997   */\n      add\n        /* \"#utility.yul\":959:1011   */\n      tag_16\n      jump\t// in\n    tag_32:\n        /* \"#utility.yul\":1036:1065   */\n      tag_33\n        /* \"#utility.yul\":1058:1064   */\n      dup2\n        /* \"#utility.yul\":1036:1065   */\n      tag_17\n      jump\t// in\n    tag_33:\n        /* \"#utility.yul\":1031:1034   */\n      dup5\n        /* \"#utility.yul\":1027:1066   */\n      add\n        /* \"#utility.yul\":1020:1066   */\n      swap2\n      pop\n        /* \"#utility.yul\":800:1072   */\n      pop\n        /* \"#utility.yul\":708:1072   */\n      swap3\n      swap2\n      pop\n      pop\n      jump\t// out\n        /* \"#utility.yul\":1078:1391   */\n    tag_7:\n        /* \"#utility.yul\":1191:1195   */\n      0x00\n        /* \"#utility.yul\":1229:1231   */\n      0x20\n        /* \"#utility.yul\":1218:1227   */\n      dup3\n        /* \"#utility.yul\":1214:1232   */\n      add\n        /* \"#utility.yul\":1206:1232   */\n      swap1\n      pop\n        /* \"#utility.yul\":1278:1287   */\n      dup2\n        /* \"#utility.yul\":1272:1276   */\n      dup2\n        /* \"#utility.yul\":1268:1288   */\n      sub\n        /* \"#utility.yul\":1264:1265   */\n      0x00\n        /* \"#utility.yul\":1253:1262   */\n      dup4\n        /* \"#utility.yul\":1249:1266   */\n      add\n        /* \"#utility.yul\":1242:1289   */\n      mstore\n        /* \"#utility.yul\":1306:1384   */\n      tag_35\n        /* \"#utility.yul\":1379:1383   */\n      dup2\n        /* \"#utility.yul\":1370:1376   */\n      dup5\n        /* \"#utility.yul\":1306:1384   */\n      tag_18\n      jump\t// in\n    tag_35:\n        /* \"#utility.yul\":1298:1384   */\n      swap1\n      pop\n        /* \"#utility.yul\":1078:1391   */\n      swap3\n      swap2\n      pop\n      pop\n      jump\t// out\n        /* \"#utility.yul\":1397:1577   */\n    tag_19:\n        /* \"#utility.yul\":1445:1522   */\n      0x4e487b7100000000000000000000000000000000000000000000000000000000\n        /* \"#utility.yul\":1442:1443   */\n      0x00\n        /* \"#utility.yul\":1435:1523   */\n      mstore\n        /* \"#utility.yul\":1542:1546   */\n      0x22\n        /* \"#utility.yul\":1539:1540   */\n      0x04\n        /* \"#utility.yul\":1532:1547   */\n      mstore\n        /* \"#utility.yul\":1566:1570   */\n      0x24\n        /* \"#utility.yul\":1563:1564   */\n      0x00\n        /* \"#utility.yul\":1556:1571   */\n      revert\n        /* \"#utility.yul\":1583:1903   */\n    tag_9:\n        /* \"#utility.yul\":1627:1633   */\n      0x00\n        /* \"#utility.yul\":1664:1665   */\n      0x02\n        /* \"#utility.yul\":1658:1662   */\n      dup3\n        /* \"#utility.yul\":1654:1666   */\n      div\n        /* \"#utility.yul\":1644:1666   */\n      swap1\n      pop\n        /* \"#utility.yul\":1711:1712   */\n      0x01\n        /* \"#utility.yul\":1705:1709   */\n      dup3\n        /* \"#utility.yul\":1701:1713   */\n      and\n        /* \"#utility.yul\":1732:1750   */\n      dup1\n        /* \"#utility.yul\":1722:1803   */\n      tag_38\n      jumpi\n        /* \"#utility.yul\":1788:1792   */\n      0x7f\n        /* \"#utility.yul\":1780:1786   */\n      dup3\n        /* \"#utility.yul\":1776:1793   */\n      and\n        /* \"#utility.yul\":1766:1793   */\n      swap2\n      pop\n        /* \"#utility.yul\":1722:1803   */\n    tag_38:\n        /* \"#utility.yul\":1850:1852   */\n      0x20\n        /* \"#utility.yul\":1842:1848   */\n      dup3\n        /* \"#utility.yul\":1839:1853   */\n      lt\n        /* \"#utility.yul\":1819:1837   */\n      dup2\n        /* \"#utility.yul\":1816:1854   */\n      sub\n        /* \"#utility.yul\":1813:1897   */\n      tag_39\n      jumpi\n        /* \"#utility.yul\":1869:1887   */\n      tag_40\n      tag_19\n      jump\t// in\n    tag_40:\n        /* \"#utility.yul\":1813:1897   */\n    tag_39:\n        /* \"#utility.yul\":1634:1903   */\n      pop\n        /* \"#utility.yul\":1583:1903   */\n      swap2\n      swap1\n      pop\n      jump\t// out\n\n    auxdata: 0xa2646970667358221220892784318391c7b31c336a2e5253dd6f7549e88634c60af5ec774029296209d564736f6c634300080f0033\n}\n",
				"bytecode": {
					"linkReferences": {},
					"object": "608060405234801561001057600080fd5b5060405161073e38038061073e833981810160405281019061003291906101c6565b80600090816100419190610430565b5050610502565b6000604051905090565b600080fd5b600080fd5b600080fd5b600080fd5b6000601f19601f8301169050919050565b7f4e487b7100000000000000000000000000000000000000000000000000000000600052604160045260246000fd5b6100af82610066565b810181811067ffffffffffffffff821117156100ce576100cd610077565b5b80604052505050565b60006100e1610048565b90506100ed82826100a6565b919050565b600067ffffffffffffffff82111561010d5761010c610077565b5b61011682610066565b9050602081019050919050565b60005b83811015610141578082015181840152602081019050610126565b83811115610150576000848401525b50505050565b6000610169610164846100f2565b6100d7565b90508281526020810184848401111561018557610184610061565b5b610190848285610123565b509392505050565b600082601f8301126101ad576101ac61005c565b5b81516101bd848260208601610156565b91505092915050565b6000602082840312156101dc576101db610052565b5b600082015167ffffffffffffffff8111156101fa576101f9610057565b5b61020684828501610198565b91505092915050565b600081519050919050565b7f4e487b7100000000000000000000000000000000000000000000000000000000600052602260045260246000fd5b6000600282049050600182168061026157607f821691505b6020821081036102745761027361021a565b5b50919050565b60008190508160005260206000209050919050565b60006020601f8301049050919050565b600082821b905092915050565b6000600883026102dc7fffffffffffffffffffffffffffffffffffffffffffffffffffffffffffffffff8261029f565b6102e6868361029f565b95508019841693508086168417925050509392505050565b6000819050919050565b6000819050919050565b600061032d610328610323846102fe565b610308565b6102fe565b9050919050565b6000819050919050565b61034783610312565b61035b61035382610334565b8484546102ac565b825550505050565b600090565b610370610363565b61037b81848461033e565b505050565b5b8181101561039f57610394600082610368565b600181019050610381565b5050565b601f8211156103e4576103b58161027a565b6103be8461028f565b810160208510156103cd578190505b6103e16103d98561028f565b830182610380565b50505b505050565b600082821c905092915050565b6000610407600019846008026103e9565b1980831691505092915050565b600061042083836103f6565b9150826002028217905092915050565b6104398261020f565b67ffffffffffffffff81111561045257610451610077565b5b61045c8254610249565b6104678282856103a3565b600060209050601f83116001811461049a5760008415610488578287015190505b6104928582610414565b8655506104fa565b601f1984166104a88661027a565b60005b828110156104d0578489015182556001820191506020850194506020810190506104ab565b868310156104ed57848901516104e9601f8916826103f6565b8355505b6001600288020188555050505b505050505050565b61022d806105116000396000f3fe608060405234801561001057600080fd5b506004361061002b5760003560e01c80631f1bd69214610030575b600080fd5b61003861004e565b6040516100459190610175565b60405180910390f35b6000805461005b906101c6565b80601f0160208091040260200160405190810160405280929190818152602001828054610087906101c6565b80156100d45780601f106100a9576101008083540402835291602001916100d4565b820191906000526020600020905b8154815290600101906020018083116100b757829003601f168201915b505050505081565b600081519050919050565b600082825260208201905092915050565b60005b838110156101165780820151818401526020810190506100fb565b83811115610125576000848401525b50505050565b6000601f19601f8301169050919050565b6000610147826100dc565b61015181856100e7565b93506101618185602086016100f8565b61016a8161012b565b840191505092915050565b6000602082019050818103600083015261018f818461013c565b905092915050565b7f4e487b7100000000000000000000000000000000000000000000000000000000600052602260045260246000fd5b600060028204905060018216806101de57607f821691505b6020821081036101f1576101f0610197565b5b5091905056fea2646970667358221220892784318391c7b31c336a2e5253dd6f7549e88634c60af5ec774029296209d564736f6c634300080f0033",
					"opcodes": "PUSH1 0x80 PUSH1 0x40 MSTORE CALLVALUE DUP1 ISZERO PUSH2 0x10 JUMPI PUSH1 0x0 DUP1 REVERT JUMPDEST POP PUSH1 0x40 MLOAD PUSH2 0x73E CODESIZE SUB DUP1 PUSH2 0x73E DUP4 CODECOPY DUP2 DUP2 ADD PUSH1 0x40 MSTORE DUP2 ADD SWAP1 PUSH2 0x32 SWAP2 SWAP1 PUSH2 0x1C6 JUMP JUMPDEST DUP1 PUSH1 0x0 SWAP1 DUP2 PUSH2 0x41 SWAP2 SWAP1 PUSH2 0x430 JUMP JUMPDEST POP POP PUSH2 0x502 JUMP JUMPDEST PUSH1 0x0 PUSH1 0x40 MLOAD SWAP1 POP SWAP1 JUMP JUMPDEST PUSH1 0x0 DUP1 REVERT JUMPDEST PUSH1 0x0 DUP1 REVERT JUMPDEST PUSH1 0x0 DUP1 REVERT JUMPDEST PUSH1 0x0 DUP1 REVERT JUMPDEST PUSH1 0x0 PUSH1 0x1F NOT PUSH1 0x1F DUP4 ADD AND SWAP1 POP SWAP2 SWAP1 POP JUMP JUMPDEST PUSH32 0x4E487B7100000000000000000000000000000000000000000000000000000000 PUSH1 0x0 MSTORE PUSH1 0x41 PUSH1 0x4 MSTORE PUSH1 0x24 PUSH1 0x0 REVERT JUMPDEST PUSH2 0xAF DUP3 PUSH2 0x66 JUMP JUMPDEST DUP2 ADD DUP2 DUP2 LT PUSH8 0xFFFFFFFFFFFFFFFF DUP3 GT OR ISZERO PUSH2 0xCE JUMPI PUSH2 0xCD PUSH2 0x77 JUMP JUMPDEST JUMPDEST DUP1 PUSH1 0x40 MSTORE POP POP POP JUMP JUMPDEST PUSH1 0x0 PUSH2 0xE1 PUSH2 0x48 JUMP JUMPDEST SWAP1 POP PUSH2 0xED DUP3 DUP3 PUSH2 0xA6 JUMP JUMPDEST SWAP2 SWAP1 POP JUMP JUMPDEST PUSH1 0x0 PUSH8 0xFFFFFFFFFFFFFFFF DUP3 GT ISZERO PUSH2 0x10D JUMPI PUSH2 0x10C PUSH2 0x77 JUMP JUMPDEST JUMPDEST PUSH2 0x116 DUP3 PUSH2 0x66 JUMP JUMPDEST SWAP1 POP PUSH1 0x20 DUP2 ADD SWAP1 POP SWAP2 SWAP1 POP JUMP JUMPDEST PUSH1 0x0 JUMPDEST DUP4 DUP2 LT ISZERO PUSH2 0x141 JUMPI DUP1 DUP3 ADD MLOAD DUP2 DUP5 ADD MSTORE PUSH1 0x20 DUP2 ADD SWAP1 POP PUSH2 0x126 JUMP JUMPDEST DUP4 DUP2 GT ISZERO PUSH2 0x150 JUMPI PUSH1 0x0 DUP5 DUP5 ADD MSTORE JUMPDEST POP POP POP POP JUMP JUMPDEST PUSH1 0x0 PUSH2 0x169 PUSH2 0x164 DUP5 PUSH2 0xF2 JUMP JUMPDEST PUSH2 0xD7 JUMP JUMPDEST SWAP1 POP DUP3 DUP2 MSTORE PUSH1 0x20 DUP2 ADD DUP5 DUP5 DUP5 ADD GT ISZERO PUSH2 0x185 JUMPI PUSH2 0x184 PUSH2 0x61 JUMP JUMPDEST JUMPDEST PUSH2 0x190 DUP5 DUP3 DUP6 PUSH2 0x123 JUMP JUMPDEST POP SWAP4 SWAP3 POP POP POP JUMP JUMPDEST PUSH1 0x0 DUP3 PUSH1 0x1F DUP4 ADD SLT PUSH2 0x1AD JUMPI PUSH2 0x1AC PUSH2 0x5C JUMP JUMPDEST JUMPDEST DUP2 MLOAD PUSH2 0x1BD DUP5 DUP3 PUSH1 0x20 DUP7 ADD PUSH2 0x156 JUMP JUMPDEST SWAP2 POP POP SWAP3 SWAP2 POP POP JUMP JUMPDEST PUSH1 0x0 PUSH1 0x20 DUP3 DUP5 SUB SLT ISZERO PUSH2 0x1DC JUMPI PUSH2 0x1DB PUSH2 0x52 JUMP JUMPDEST JUMPDEST PUSH1 0x0 DUP3 ADD MLOAD PUSH8 0xFFFFFFFFFFFFFFFF DUP2 GT ISZERO PUSH2 0x1FA JUMPI PUSH2 0x1F9 PUSH2 0x57 JUMP JUMPDEST JUMPDEST PUSH2 0x206 DUP5 DUP3 DUP6 ADD PUSH2 0x198 JUMP JUMPDEST SWAP2 POP POP SWAP3 SWAP2 POP POP JUMP JUMPDEST PUSH1 0x0 DUP2 MLOAD SWAP1 POP SWAP2 SWAP1 POP JUMP JUMPDEST PUSH32 0x4E487B7100000000000000000000000000000000000000000000000000000000 PUSH1 0x0 MSTORE PUSH1 0x22 PUSH1 0x4 MSTORE PUSH1 0x24 PUSH1 0x0 REVERT JUMPDEST PUSH1 0x0 PUSH1 0x2 DUP3 DIV SWAP1 POP PUSH1 0x1 DUP3 AND DUP1 PUSH2 0x261 JUMPI PUSH1 0x7F DUP3 AND SWAP2 POP JUMPDEST PUSH1 0x20 DUP3 LT DUP2 SUB PUSH2 0x274 JUMPI PUSH2 0x273 PUSH2 0x21A JUMP JUMPDEST JUMPDEST POP SWAP2 SWAP1 POP JUMP JUMPDEST PUSH1 0x0 DUP2 SWAP1 POP DUP2 PUSH1 0x0 MSTORE PUSH1 0x20 PUSH1 0x0 KECCAK256 SWAP1 POP SWAP2 SWAP1 POP JUMP JUMPDEST PUSH1 0x0 PUSH1 0x20 PUSH1 0x1F DUP4 ADD DIV SWAP1 POP SWAP2 SWAP1 POP JUMP JUMPDEST PUSH1 0x0 DUP3 DUP3 SHL SWAP1 POP SWAP3 SWAP2 POP POP JUMP JUMPDEST PUSH1 0x0 PUSH1 0x8 DUP4 MUL PUSH2 0x2DC PUSH32 0xFFFFFFFFFFFFFFFFFFFFFFFFFFFFFFFFFFFFFFFFFFFFFFFFFFFFFFFFFFFFFFFF DUP3 PUSH2 0x29F JUMP JUMPDEST PUSH2 0x2E6 DUP7 DUP4 PUSH2 0x29F JUMP JUMPDEST SWAP6 POP DUP1 NOT DUP5 AND SWAP4 POP DUP1 DUP7 AND DUP5 OR SWAP3 POP POP POP SWAP4 SWAP3 POP POP POP JUMP JUMPDEST PUSH1 0x0 DUP2 SWAP1 POP SWAP2 SWAP1 POP JUMP JUMPDEST PUSH1 0x0 DUP2 SWAP1 POP SWAP2 SWAP1 POP JUMP JUMPDEST PUSH1 0x0 PUSH2 0x32D PUSH2 0x328 PUSH2 0x323 DUP5 PUSH2 0x2FE JUMP JUMPDEST PUSH2 0x308 JUMP JUMPDEST PUSH2 0x2FE JUMP JUMPDEST SWAP1 POP SWAP2 SWAP1 POP JUMP JUMPDEST PUSH1 0x0 DUP2 SWAP1 POP SWAP2 SWAP1 POP JUMP JUMPDEST PUSH2 0x347 DUP4 PUSH2 0x312 JUMP JUMPDEST PUSH2 0x35B PUSH2 0x353 DUP3 PUSH2 0x334 JUMP JUMPDEST DUP5 DUP5 SLOAD PUSH2 0x2AC JUMP JUMPDEST DUP3 SSTORE POP POP POP POP JUMP JUMPDEST PUSH1 0x0 SWAP1 JUMP JUMPDEST PUSH2 0x370 PUSH2 0x363 JUMP JUMPDEST PUSH2 0x37B DUP2 DUP5 DUP5 PUSH2 0x33E JUMP JUMPDEST POP POP POP JUMP JUMPDEST JUMPDEST DUP2 DUP2 LT ISZERO PUSH2 0x39F JUMPI PUSH2 0x394 PUSH1 0x0 DUP3 PUSH2 0x368 JUMP JUMPDEST PUSH1 0x1 DUP2 ADD SWAP1 POP PUSH2 0x381 JUMP JUMPDEST POP POP JUMP JUMPDEST PUSH1 0x1F DUP3 GT ISZERO PUSH2 0x3E4 JUMPI PUSH2 0x3B5 DUP2 PUSH2 0x27A JUMP JUMPDEST PUSH2 0x3BE DUP5 PUSH2 0x28F JUMP JUMPDEST DUP2 ADD PUSH1 0x20 DUP6 LT ISZERO PUSH2 0x3CD JUMPI DUP2 SWAP1 POP JUMPDEST PUSH2 0x3E1 PUSH2 0x3D9 DUP6 PUSH2 0x28F JUMP JUMPDEST DUP4 ADD DUP3 PUSH2 0x380 JUMP JUMPDEST POP POP JUMPDEST POP POP POP JUMP JUMPDEST PUSH1 0x0 DUP3 DUP3 SHR SWAP1 POP SWAP3 SWAP2 POP POP JUMP JUMPDEST PUSH1 0x0 PUSH2 0x407 PUSH1 0x0 NOT DUP5 PUSH1 0x8 MUL PUSH2 0x3E9 JUMP JUMPDEST NOT DUP1 DUP4 AND SWAP2 POP POP SWAP3 SWAP2 POP POP JUMP JUMPDEST PUSH1 0x0 PUSH2 0x420 DUP4 DUP4 PUSH2 0x3F6 JUMP JUMPDEST SWAP2 POP DUP3 PUSH1 0x2 MUL DUP3 OR SWAP1 POP SWAP3 SWAP2 POP POP JUMP JUMPDEST PUSH2 0x439 DUP3 PUSH2 0x20F JUMP JUMPDEST PUSH8 0xFFFFFFFFFFFFFFFF DUP2 GT ISZERO PUSH2 0x452 JUMPI PUSH2 0x451 PUSH2 0x77 JUMP JUMPDEST JUMPDEST PUSH2 0x45C DUP3 SLOAD PUSH2 0x249 JUMP JUMPDEST PUSH2 0x467 DUP3 DUP3 DUP6 PUSH2 0x3A3 JUMP JUMPDEST PUSH1 0x0 PUSH1 0x20 SWAP1 POP PUSH1 0x1F DUP4 GT PUSH1 0x1 DUP2 EQ PUSH2 0x49A JUMPI PUSH1 0x0 DUP5 ISZERO PUSH2 0x488 JUMPI DUP3 DUP8 ADD MLOAD SWAP1 POP JUMPDEST PUSH2 0x492 DUP6 DUP3 PUSH2 0x414 JUMP JUMPDEST DUP7 SSTORE POP PUSH2 0x4FA JUMP JUMPDEST PUSH1 0x1F NOT DUP5 AND PUSH2 0x4A8 DUP7 PUSH2 0x27A JUMP JUMPDEST PUSH1 0x0 JUMPDEST DUP3 DUP2 LT ISZERO PUSH2 0x4D0 JUMPI DUP5 DUP10 ADD MLOAD DUP3 SSTORE PUSH1 0x1 DUP3 ADD SWAP2 POP PUSH1 0x20 DUP6 ADD SWAP5 POP PUSH1 0x20 DUP2 ADD SWAP1 POP PUSH2 0x4AB JUMP JUMPDEST DUP7 DUP4 LT ISZERO PUSH2 0x4ED JUMPI DUP5 DUP10 ADD MLOAD PUSH2 0x4E9 PUSH1 0x1F DUP10 AND DUP3 PUSH2 0x3F6 JUMP JUMPDEST DUP4 SSTORE POP JUMPDEST PUSH1 0x1 PUSH1 0x2 DUP9 MUL ADD DUP9 SSTORE POP POP POP JUMPDEST POP POP POP POP POP POP JUMP JUMPDEST PUSH2 0x22D DUP1 PUSH2 0x511 PUSH1 0x0 CODECOPY PUSH1 0x0 RETURN INVALID PUSH1 0x80 PUSH1 0x40 MSTORE CALLVALUE DUP1 ISZERO PUSH2 0x10 JUMPI PUSH1 0x0 DUP1 REVERT JUMPDEST POP PUSH1 0x4 CALLDATASIZE LT PUSH2 0x2B JUMPI PUSH1 0x0 CALLDATALOAD PUSH1 0xE0 SHR DUP1 PUSH4 0x1F1BD692 EQ PUSH2 0x30 JUMPI JUMPDEST PUSH1 0x0 DUP1 REVERT JUMPDEST PUSH2 0x38 PUSH2 0x4E JUMP JUMPDEST PUSH1 0x40 MLOAD PUSH2 0x45 SWAP2 SWAP1 PUSH2 0x175 JUMP JUMPDEST PUSH1 0x40 MLOAD DUP1 SWAP2 SUB SWAP1 RETURN JUMPDEST PUSH1 0x0 DUP1 SLOAD PUSH2 0x5B SWAP1 PUSH2 0x1C6 JUMP JUMPDEST DUP1 PUSH1 0x1F ADD PUSH1 0x20 DUP1 SWAP2 DIV MUL PUSH1 0x20 ADD PUSH1 0x40 MLOAD SWAP1 DUP2 ADD PUSH1 0x40 MSTORE DUP1 SWAP3 SWAP2 SWAP1 DUP2 DUP2 MSTORE PUSH1 0x20 ADD DUP3 DUP1 SLOAD PUSH2 0x87 SWAP1 PUSH2 0x1C6 JUMP JUMPDEST DUP1 ISZERO PUSH2 0xD4 JUMPI DUP1 PUSH1 0x1F LT PUSH2 0xA9 JUMPI PUSH2 0x100 DUP1 DUP4 SLOAD DIV MUL DUP4 MSTORE SWAP2 PUSH1 0x20 ADD SWAP2 PUSH2 0xD4 JUMP JUMPDEST DUP3 ADD SWAP2 SWAP1 PUSH1 0x0 MSTORE PUSH1 0x20 PUSH1 0x0 KECCAK256 SWAP1 JUMPDEST DUP2 SLOAD DUP2 MSTORE SWAP1 PUSH1 0x1 ADD SWAP1 PUSH1 0x20 ADD DUP1 DUP4 GT PUSH2 0xB7 JUMPI DUP3 SWAP1 SUB PUSH1 0x1F AND DUP3 ADD SWAP2 JUMPDEST POP POP POP POP POP DUP2 JUMP JUMPDEST PUSH1 0x0 DUP2 MLOAD SWAP1 POP SWAP2 SWAP1 POP JUMP JUMPDEST PUSH1 0x0 DUP3 DUP3 MSTORE PUSH1 0x20 DUP3 ADD SWAP1 POP SWAP3 SWAP2 POP POP JUMP JUMPDEST PUSH1 0x0 JUMPDEST DUP4 DUP2 LT ISZERO PUSH2 0x116 JUMPI DUP1 DUP3 ADD MLOAD DUP2 DUP5 ADD MSTORE PUSH1 0x20 DUP2 ADD SWAP1 POP PUSH2 0xFB JUMP JUMPDEST DUP4 DUP2 GT ISZERO PUSH2 0x125 JUMPI PUSH1 0x0 DUP5 DUP5 ADD MSTORE JUMPDEST POP POP POP POP JUMP JUMPDEST PUSH1 0x0 PUSH1 0x1F NOT PUSH1 0x1F DUP4 ADD AND SWAP1 POP SWAP2 SWAP1 POP JUMP JUMPDEST PUSH1 0x0 PUSH2 0x147 DUP3 PUSH2 0xDC JUMP JUMPDEST PUSH2 0x151 DUP2 DUP6 PUSH2 0xE7 JUMP JUMPDEST SWAP4 POP PUSH2 0x161 DUP2 DUP6 PUSH1 0x20 DUP7 ADD PUSH2 0xF8 JUMP JUMPDEST PUSH2 0x16A DUP2 PUSH2 0x12B JUMP JUMPDEST DUP5 ADD SWAP2 POP POP SWAP3 SWAP2 POP POP JUMP JUMPDEST PUSH1 0x0 PUSH1 0x20 DUP3 ADD SWAP1 POP DUP2 DUP2 SUB PUSH1 0x0 DUP4 ADD MSTORE PUSH2 0x18F DUP2 DUP5 PUSH2 0x13C JUMP JUMPDEST SWAP1 POP SWAP3 SWAP2 POP POP JUMP JUMPDEST PUSH32 0x4E487B7100000000000000000000000000000000000000000000000000000000 PUSH1 0x0 MSTORE PUSH1 0x22 PUSH1 0x4 MSTORE PUSH1 0x24 PUSH1 0x0 REVERT JUMPDEST PUSH1 0x0 PUSH1 0x2 DUP3 DIV SWAP1 POP PUSH1 0x1 DUP3 AND DUP1 PUSH2 0x1DE JUMPI PUSH1 0x7F DUP3 AND SWAP2 POP JUMPDEST PUSH1 0x20 DUP3 LT DUP2 SUB PUSH2 0x1F1 JUMPI PUSH2 0x1F0 PUSH2 0x197 JUMP JUMPDEST JUMPDEST POP SWAP2 SWAP1 POP JUMP INVALID LOG2 PUSH5 0x6970667358 0x22 SLT KECCAK256 DUP10 0x27 DUP5 BALANCE DUP4 SWAP2 0xC7 0xB3 SHR CALLER PUSH11 0x2E5253DD6F7549E88634C6 EXP CREATE2 0xEC PUSH24 0x4029296209D564736F6C634300080F003300000000000000 "
				},
				"gasEstimates": {
					"creation": {
						"codeDepositCost": "111400",
						"executionCost": "infinite",
						"totalCost": "infinite"
					},
					"external": {
						"text()": "infinite"
					}
				},
				"methodIdentifiers": {
					"text()": "1f1bd692"
				}
			},
			"storageLayout": {
				"storage": [
					{
						"astId": 16,
						"contract": "Constructor.sol:Y",
						"label": "text",
						"offset": 0,
						"slot": "0",
						"type": "t_string_storage"
					}
				],
				"types": {
					"t_string_storage": {
						"encoding": "bytes",
						"label": "string",
						"numberOfBytes": "32"
					}
				}
			},
			"userdoc": {
				"kind": "user",
				"methods": {},
				"version": 1
			}
		}
	}
}