{
	"Structs.sol": {
		"Todos": {
			"abi": [
				{
					"inputs": [
						{
							"internalType": "string",
							"name": "_text",
							"type": "string"
						}
					],
					"name": "create",
					"outputs": [],
					"stateMutability": "nonpayable",
					"type": "function"
				},
				{
					"inputs": [
						{
							"internalType": "uint256",
							"name": "",
							"type": "uint256"
						}
					],
					"name": "todos",
					"outputs": [
						{
							"internalType": "string",
							"name": "text",
							"type": "string"
						},
						{
							"internalType": "bool",
							"name": "completed",
							"type": "bool"
						}
					],
					"stateMutability": "view",
					"type": "function"
				}
			],
			"devdoc": {
				"kind": "dev",
				"methods": {},
				"version": 1
			},
			"evm": {
				"assembly": "    /* \"Structs.sol\":261:886  contract Todos{... */\n  mstore(0x40, 0x80)\n  callvalue\n  dup1\n  iszero\n  tag_1\n  jumpi\n  0x00\n  dup1\n  revert\ntag_1:\n  pop\n  dataSize(sub_0)\n  dup1\n  dataOffset(sub_0)\n  0x00\n  codecopy\n  0x00\n  return\nstop\n\nsub_0: assembly {\n        /* \"Structs.sol\":261:886  contract Todos{... */\n      mstore(0x40, 0x80)\n      callvalue\n      dup1\n      iszero\n      tag_1\n      jumpi\n      0x00\n      dup1\n      revert\n    tag_1:\n      pop\n      jumpi(tag_2, lt(calldatasize, 0x04))\n      shr(0xe0, calldataload(0x00))\n      dup1\n      0xb6a46b3b\n      eq\n      tag_3\n      jumpi\n      dup1\n      0xbc8bc2b4\n      eq\n      tag_4\n      jumpi\n    tag_2:\n      0x00\n      dup1\n      revert\n        /* \"Structs.sol\":423:881  function create(string calldata _text) public {... */\n    tag_3:\n      tag_5\n      0x04\n      dup1\n      calldatasize\n      sub\n      dup2\n      add\n      swap1\n      tag_6\n      swap2\n      swap1\n      tag_7\n      jump\t// in\n    tag_6:\n      tag_8\n      jump\t// in\n    tag_5:\n      stop\n        /* \"Structs.sol\":397:416  Todo[] public todos */\n    tag_4:\n      tag_9\n      0x04\n      dup1\n      calldatasize\n      sub\n      dup2\n      add\n      swap1\n      tag_10\n      swap2\n      swap1\n      tag_11\n      jump\t// in\n    tag_10:\n      tag_12\n      jump\t// in\n    tag_9:\n      mload(0x40)\n      tag_13\n      swap3\n      swap2\n      swap1\n      tag_14\n      jump\t// in\n    tag_13:\n      mload(0x40)\n      dup1\n      swap2\n      sub\n      swap1\n      return\n        /* \"Structs.sol\":423:881  function create(string calldata _text) public {... */\n    tag_8:\n        /* \"Structs.sol\":563:568  todos */\n      0x00\n        /* \"Structs.sol\":574:592  Todo(_text, false) */\n      mload(0x40)\n      dup1\n      0x40\n      add\n      0x40\n      mstore\n      dup1\n        /* \"Structs.sol\":579:584  _text */\n      dup5\n      dup5\n        /* \"Structs.sol\":574:592  Todo(_text, false) */\n      dup1\n      dup1\n      0x1f\n      add\n      0x20\n      dup1\n      swap2\n      div\n      mul\n      0x20\n      add\n      mload(0x40)\n      swap1\n      dup2\n      add\n      0x40\n      mstore\n      dup1\n      swap4\n      swap3\n      swap2\n      swap1\n      dup2\n      dup2\n      mstore\n      0x20\n      add\n      dup4\n      dup4\n      dup1\n      dup3\n      dup5\n      calldatacopy\n      0x00\n      dup2\n      dup5\n      add\n      mstore\n      not(0x1f)\n      0x1f\n      dup3\n      add\n      and\n      swap1\n      pop\n      dup1\n      dup4\n      add\n      swap3\n      pop\n      pop\n      pop\n      pop\n      pop\n      pop\n      pop\n      dup2\n      mstore\n      0x20\n      add\n        /* \"Structs.sol\":586:591  false */\n      0x00\n        /* \"Structs.sol\":574:592  Todo(_text, false) */\n      iszero\n      iszero\n      dup2\n      mstore\n      pop\n        /* \"Structs.sol\":563:593  todos.push(Todo(_text, false)) */\n      swap1\n      dup1\n      0x01\n      dup2\n      sload\n      add\n      dup1\n      dup3\n      sstore\n      dup1\n      swap2\n      pop\n      pop\n      0x01\n      swap1\n      sub\n      swap1\n      0x00\n      mstore\n      keccak256(0x00, 0x20)\n      swap1\n      0x02\n      mul\n      add\n      0x00\n      swap1\n      swap2\n      swap1\n      swap2\n      swap1\n      swap2\n      pop\n      0x00\n      dup3\n      add\n      mload\n      dup2\n      0x00\n      add\n      swap1\n      dup2\n      tag_17\n      swap2\n      swap1\n      tag_18\n      jump\t// in\n    tag_17:\n      pop\n      0x20\n      dup3\n      add\n      mload\n      dup2\n      0x01\n      add\n      exp(0x0100, 0x00)\n      dup2\n      sload\n      dup2\n      0xff\n      mul\n      not\n      and\n      swap1\n      dup4\n      iszero\n      iszero\n      mul\n      or\n      swap1\n      sstore\n      pop\n      pop\n      pop\n        /* \"Structs.sol\":636:641  todos */\n      0x00\n        /* \"Structs.sol\":647:684  Todo({text: _text, completed: false}) */\n      mload(0x40)\n      dup1\n      0x40\n      add\n      0x40\n      mstore\n      dup1\n        /* \"Structs.sol\":659:664  _text */\n      dup5\n      dup5\n        /* \"Structs.sol\":647:684  Todo({text: _text, completed: false}) */\n      dup1\n      dup1\n      0x1f\n      add\n      0x20\n      dup1\n      swap2\n      div\n      mul\n      0x20\n      add\n      mload(0x40)\n      swap1\n      dup2\n      add\n      0x40\n      mstore\n      dup1\n      swap4\n      swap3\n      swap2\n      swap1\n      dup2\n      dup2\n      mstore\n      0x20\n      add\n      dup4\n      dup4\n      dup1\n      dup3\n      dup5\n      calldatacopy\n      0x00\n      dup2\n      dup5\n      add\n      mstore\n      not(0x1f)\n      0x1f\n      dup3\n      add\n      and\n      swap1\n      pop\n      dup1\n      dup4\n      add\n      swap3\n      pop\n      pop\n      pop\n      pop\n      pop\n      pop\n      pop\n      dup2\n      mstore\n      0x20\n      add\n        /* \"Structs.sol\":677:682  false */\n      0x00\n        /* \"Structs.sol\":647:684  Todo({text: _text, completed: false}) */\n      iszero\n      iszero\n      dup2\n      mstore\n      pop\n        /* \"Structs.sol\":636:685  todos.push(Todo({text: _text, completed: false})) */\n      swap1\n      dup1\n      0x01\n      dup2\n      sload\n      add\n      dup1\n      dup3\n      sstore\n      dup1\n      swap2\n      pop\n      pop\n      0x01\n      swap1\n      sub\n      swap1\n      0x00\n      mstore\n      keccak256(0x00, 0x20)\n      swap1\n      0x02\n      mul\n      add\n      0x00\n      swap1\n      swap2\n      swap1\n      swap2\n      swap1\n      swap2\n      pop\n      0x00\n      dup3\n      add\n      mload\n      dup2\n      0x00\n      add\n      swap1\n      dup2\n      tag_20\n      swap2\n      swap1\n      tag_18\n      jump\t// in\n    tag_20:\n      pop\n      0x20\n      dup3\n      add\n      mload\n      dup2\n      0x01\n      add\n      exp(0x0100, 0x00)\n      dup2\n      sload\n      dup2\n      0xff\n      mul\n      not\n      and\n      swap1\n      dup4\n      iszero\n      iszero\n      mul\n      or\n      swap1\n      sstore\n      pop\n      pop\n      pop\n        /* \"Structs.sol\":754:770  Todo memory todo */\n      tag_21\n      tag_22\n      jump\t// in\n    tag_21:\n        /* \"Structs.sol\":793:798  _text */\n      dup3\n      dup3\n        /* \"Structs.sol\":781:798  todo.text = _text */\n      dup1\n      dup1\n      0x1f\n      add\n      0x20\n      dup1\n      swap2\n      div\n      mul\n      0x20\n      add\n      mload(0x40)\n      swap1\n      dup2\n      add\n      0x40\n      mstore\n      dup1\n      swap4\n      swap3\n      swap2\n      swap1\n      dup2\n      dup2\n      mstore\n      0x20\n      add\n      dup4\n      dup4\n      dup1\n      dup3\n      dup5\n      calldatacopy\n      0x00\n      dup2\n      dup5\n      add\n      mstore\n      not(0x1f)\n      0x1f\n      dup3\n      add\n      and\n      swap1\n      pop\n      dup1\n      dup4\n      add\n      swap3\n      pop\n      pop\n      pop\n      pop\n      pop\n      pop\n      pop\n        /* \"Structs.sol\":781:785  todo */\n      dup2\n        /* \"Structs.sol\":781:790  todo.text */\n      0x00\n      add\n        /* \"Structs.sol\":781:798  todo.text = _text */\n      dup2\n      swap1\n      mstore\n      pop\n        /* \"Structs.sol\":857:862  todos */\n      0x00\n        /* \"Structs.sol\":868:872  todo */\n      dup2\n        /* \"Structs.sol\":857:873  todos.push(todo) */\n      swap1\n      dup1\n      0x01\n      dup2\n      sload\n      add\n      dup1\n      dup3\n      sstore\n      dup1\n      swap2\n      pop\n      pop\n      0x01\n      swap1\n      sub\n      swap1\n      0x00\n      mstore\n      keccak256(0x00, 0x20)\n      swap1\n      0x02\n      mul\n      add\n      0x00\n      swap1\n      swap2\n      swap1\n      swap2\n      swap1\n      swap2\n      pop\n      0x00\n      dup3\n      add\n      mload\n      dup2\n      0x00\n      add\n      swap1\n      dup2\n      tag_24\n      swap2\n      swap1\n      tag_18\n      jump\t// in\n    tag_24:\n      pop\n      0x20\n      dup3\n      add\n      mload\n      dup2\n      0x01\n      add\n      exp(0x0100, 0x00)\n      dup2\n      sload\n      dup2\n      0xff\n      mul\n      not\n      and\n      swap1\n      dup4\n      iszero\n      iszero\n      mul\n      or\n      swap1\n      sstore\n      pop\n      pop\n      pop\n        /* \"Structs.sol\":469:881  {... */\n      pop\n        /* \"Structs.sol\":423:881  function create(string calldata _text) public {... */\n      pop\n      pop\n      jump\t// out\n        /* \"Structs.sol\":397:416  Todo[] public todos */\n    tag_12:\n      0x00\n      dup2\n      dup2\n      sload\n      dup2\n      lt\n      tag_25\n      jumpi\n      0x00\n      dup1\n      revert\n    tag_25:\n      swap1\n      0x00\n      mstore\n      keccak256(0x00, 0x20)\n      swap1\n      0x02\n      mul\n      add\n      0x00\n      swap2\n      pop\n      swap1\n      pop\n      dup1\n      0x00\n      add\n      dup1\n      sload\n      tag_27\n      swap1\n      tag_28\n      jump\t// in\n    tag_27:\n      dup1\n      0x1f\n      add\n      0x20\n      dup1\n      swap2\n      div\n      mul\n      0x20\n      add\n      mload(0x40)\n      swap1\n      dup2\n      add\n      0x40\n      mstore\n      dup1\n      swap3\n      swap2\n      swap1\n      dup2\n      dup2\n      mstore\n      0x20\n      add\n      dup3\n      dup1\n      sload\n      tag_29\n      swap1\n      tag_28\n      jump\t// in\n    tag_29:\n      dup1\n      iszero\n      tag_30\n      jumpi\n      dup1\n      0x1f\n      lt\n      tag_31\n      jumpi\n      0x0100\n      dup1\n      dup4\n      sload\n      div\n      mul\n      dup4\n      mstore\n      swap2\n      0x20\n      add\n      swap2\n      jump(tag_30)\n    tag_31:\n      dup3\n      add\n      swap2\n      swap1\n      0x00\n      mstore\n      keccak256(0x00, 0x20)\n      swap1\n    tag_32:\n      dup2\n      sload\n      dup2\n      mstore\n      swap1\n      0x01\n      add\n      swap1\n      0x20\n      add\n      dup1\n      dup4\n      gt\n      tag_32\n      jumpi\n      dup3\n      swap1\n      sub\n      0x1f\n      and\n      dup3\n      add\n      swap2\n    tag_30:\n      pop\n      pop\n      pop\n      pop\n      pop\n      swap1\n      dup1\n      0x01\n      add\n      0x00\n      swap1\n      sload\n      swap1\n      0x0100\n      exp\n      swap1\n      div\n      0xff\n      and\n      swap1\n      pop\n      dup3\n      jump\t// out\n    tag_22:\n      mload(0x40)\n      dup1\n      0x40\n      add\n      0x40\n      mstore\n      dup1\n      0x60\n      dup2\n      mstore\n      0x20\n      add\n      iszero(iszero(0x00))\n      dup2\n      mstore\n      pop\n      swap1\n      jump\t// out\n        /* \"#utility.yul\":88:205   */\n    tag_34:\n        /* \"#utility.yul\":197:198   */\n      0x00\n        /* \"#utility.yul\":194:195   */\n      dup1\n        /* \"#utility.yul\":187:199   */\n      revert\n        /* \"#utility.yul\":211:328   */\n    tag_35:\n        /* \"#utility.yul\":320:321   */\n      0x00\n        /* \"#utility.yul\":317:318   */\n      dup1\n        /* \"#utility.yul\":310:322   */\n      revert\n        /* \"#utility.yul\":334:451   */\n    tag_36:\n        /* \"#utility.yul\":443:444   */\n      0x00\n        /* \"#utility.yul\":440:441   */\n      dup1\n        /* \"#utility.yul\":433:445   */\n      revert\n        /* \"#utility.yul\":457:574   */\n    tag_37:\n        /* \"#utility.yul\":566:567   */\n      0x00\n        /* \"#utility.yul\":563:564   */\n      dup1\n        /* \"#utility.yul\":556:568   */\n      revert\n        /* \"#utility.yul\":580:697   */\n    tag_38:\n        /* \"#utility.yul\":689:690   */\n      0x00\n        /* \"#utility.yul\":686:687   */\n      dup1\n        /* \"#utility.yul\":679:691   */\n      revert\n        /* \"#utility.yul\":717:1270   */\n    tag_39:\n        /* \"#utility.yul\":775:783   */\n      0x00\n        /* \"#utility.yul\":785:791   */\n      dup1\n        /* \"#utility.yul\":835:838   */\n      dup4\n        /* \"#utility.yul\":828:832   */\n      0x1f\n        /* \"#utility.yul\":820:826   */\n      dup5\n        /* \"#utility.yul\":816:833   */\n      add\n        /* \"#utility.yul\":812:839   */\n      slt\n        /* \"#utility.yul\":802:924   */\n      tag_75\n      jumpi\n        /* \"#utility.yul\":843:922   */\n      tag_76\n      tag_36\n      jump\t// in\n    tag_76:\n        /* \"#utility.yul\":802:924   */\n    tag_75:\n        /* \"#utility.yul\":956:962   */\n      dup3\n        /* \"#utility.yul\":943:963   */\n      calldataload\n        /* \"#utility.yul\":933:963   */\n      swap1\n      pop\n        /* \"#utility.yul\":986:1004   */\n      0xffffffffffffffff\n        /* \"#utility.yul\":978:984   */\n      dup2\n        /* \"#utility.yul\":975:1005   */\n      gt\n        /* \"#utility.yul\":972:1089   */\n      iszero\n      tag_77\n      jumpi\n        /* \"#utility.yul\":1008:1087   */\n      tag_78\n      tag_37\n      jump\t// in\n    tag_78:\n        /* \"#utility.yul\":972:1089   */\n    tag_77:\n        /* \"#utility.yul\":1122:1126   */\n      0x20\n        /* \"#utility.yul\":1114:1120   */\n      dup4\n        /* \"#utility.yul\":1110:1127   */\n      add\n        /* \"#utility.yul\":1098:1127   */\n      swap2\n      pop\n        /* \"#utility.yul\":1176:1179   */\n      dup4\n        /* \"#utility.yul\":1168:1172   */\n      0x01\n        /* \"#utility.yul\":1160:1166   */\n      dup3\n        /* \"#utility.yul\":1156:1173   */\n      mul\n        /* \"#utility.yul\":1146:1154   */\n      dup4\n        /* \"#utility.yul\":1142:1174   */\n      add\n        /* \"#utility.yul\":1139:1180   */\n      gt\n        /* \"#utility.yul\":1136:1264   */\n      iszero\n      tag_79\n      jumpi\n        /* \"#utility.yul\":1183:1262   */\n      tag_80\n      tag_38\n      jump\t// in\n    tag_80:\n        /* \"#utility.yul\":1136:1264   */\n    tag_79:\n        /* \"#utility.yul\":717:1270   */\n      swap3\n      pop\n      swap3\n      swap1\n      pop\n      jump\t// out\n        /* \"#utility.yul\":1276:1805   */\n    tag_7:\n        /* \"#utility.yul\":1347:1353   */\n      0x00\n        /* \"#utility.yul\":1355:1361   */\n      dup1\n        /* \"#utility.yul\":1404:1406   */\n      0x20\n        /* \"#utility.yul\":1392:1401   */\n      dup4\n        /* \"#utility.yul\":1383:1390   */\n      dup6\n        /* \"#utility.yul\":1379:1402   */\n      sub\n        /* \"#utility.yul\":1375:1407   */\n      slt\n        /* \"#utility.yul\":1372:1491   */\n      iszero\n      tag_82\n      jumpi\n        /* \"#utility.yul\":1410:1489   */\n      tag_83\n      tag_34\n      jump\t// in\n    tag_83:\n        /* \"#utility.yul\":1372:1491   */\n    tag_82:\n        /* \"#utility.yul\":1558:1559   */\n      0x00\n        /* \"#utility.yul\":1547:1556   */\n      dup4\n        /* \"#utility.yul\":1543:1560   */\n      add\n        /* \"#utility.yul\":1530:1561   */\n      calldataload\n        /* \"#utility.yul\":1588:1606   */\n      0xffffffffffffffff\n        /* \"#utility.yul\":1580:1586   */\n      dup2\n        /* \"#utility.yul\":1577:1607   */\n      gt\n        /* \"#utility.yul\":1574:1691   */\n      iszero\n      tag_84\n      jumpi\n        /* \"#utility.yul\":1610:1689   */\n      tag_85\n      tag_35\n      jump\t// in\n    tag_85:\n        /* \"#utility.yul\":1574:1691   */\n    tag_84:\n        /* \"#utility.yul\":1723:1788   */\n      tag_86\n        /* \"#utility.yul\":1780:1787   */\n      dup6\n        /* \"#utility.yul\":1771:1777   */\n      dup3\n        /* \"#utility.yul\":1760:1769   */\n      dup7\n        /* \"#utility.yul\":1756:1778   */\n      add\n        /* \"#utility.yul\":1723:1788   */\n      tag_39\n      jump\t// in\n    tag_86:\n        /* \"#utility.yul\":1705:1788   */\n      swap3\n      pop\n      swap3\n      pop\n        /* \"#utility.yul\":1501:1798   */\n      pop\n        /* \"#utility.yul\":1276:1805   */\n      swap3\n      pop\n      swap3\n      swap1\n      pop\n      jump\t// out\n        /* \"#utility.yul\":1811:1888   */\n    tag_40:\n        /* \"#utility.yul\":1848:1855   */\n      0x00\n        /* \"#utility.yul\":1877:1882   */\n      dup2\n        /* \"#utility.yul\":1866:1882   */\n      swap1\n      pop\n        /* \"#utility.yul\":1811:1888   */\n      swap2\n      swap1\n      pop\n      jump\t// out\n        /* \"#utility.yul\":1894:2016   */\n    tag_41:\n        /* \"#utility.yul\":1967:1991   */\n      tag_89\n        /* \"#utility.yul\":1985:1990   */\n      dup2\n        /* \"#utility.yul\":1967:1991   */\n      tag_40\n      jump\t// in\n    tag_89:\n        /* \"#utility.yul\":1960:1965   */\n      dup2\n        /* \"#utility.yul\":1957:1992   */\n      eq\n        /* \"#utility.yul\":1947:2010   */\n      tag_90\n      jumpi\n        /* \"#utility.yul\":2006:2007   */\n      0x00\n        /* \"#utility.yul\":2003:2004   */\n      dup1\n        /* \"#utility.yul\":1996:2008   */\n      revert\n        /* \"#utility.yul\":1947:2010   */\n    tag_90:\n        /* \"#utility.yul\":1894:2016   */\n      pop\n      jump\t// out\n        /* \"#utility.yul\":2022:2161   */\n    tag_42:\n        /* \"#utility.yul\":2068:2073   */\n      0x00\n        /* \"#utility.yul\":2106:2112   */\n      dup2\n        /* \"#utility.yul\":2093:2113   */\n      calldataload\n        /* \"#utility.yul\":2084:2113   */\n      swap1\n      pop\n        /* \"#utility.yul\":2122:2155   */\n      tag_92\n        /* \"#utility.yul\":2149:2154   */\n      dup2\n        /* \"#utility.yul\":2122:2155   */\n      tag_41\n      jump\t// in\n    tag_92:\n        /* \"#utility.yul\":2022:2161   */\n      swap3\n      swap2\n      pop\n      pop\n      jump\t// out\n        /* \"#utility.yul\":2167:2496   */\n    tag_11:\n        /* \"#utility.yul\":2226:2232   */\n      0x00\n        /* \"#utility.yul\":2275:2277   */\n      0x20\n        /* \"#utility.yul\":2263:2272   */\n      dup3\n        /* \"#utility.yul\":2254:2261   */\n      dup5\n        /* \"#utility.yul\":2250:2273   */\n      sub\n        /* \"#utility.yul\":2246:2278   */\n      slt\n        /* \"#utility.yul\":2243:2362   */\n      iszero\n      tag_94\n      jumpi\n        /* \"#utility.yul\":2281:2360   */\n      tag_95\n      tag_34\n      jump\t// in\n    tag_95:\n        /* \"#utility.yul\":2243:2362   */\n    tag_94:\n        /* \"#utility.yul\":2401:2402   */\n      0x00\n        /* \"#utility.yul\":2426:2479   */\n      tag_96\n        /* \"#utility.yul\":2471:2478   */\n      dup5\n        /* \"#utility.yul\":2462:2468   */\n      dup3\n        /* \"#utility.yul\":2451:2460   */\n      dup6\n        /* \"#utility.yul\":2447:2469   */\n      add\n        /* \"#utility.yul\":2426:2479   */\n      tag_42\n      jump\t// in\n    tag_96:\n        /* \"#utility.yul\":2416:2479   */\n      swap2\n      pop\n        /* \"#utility.yul\":2372:2489   */\n      pop\n        /* \"#utility.yul\":2167:2496   */\n      swap3\n      swap2\n      pop\n      pop\n      jump\t// out\n        /* \"#utility.yul\":2502:2601   */\n    tag_43:\n        /* \"#utility.yul\":2554:2560   */\n      0x00\n        /* \"#utility.yul\":2588:2593   */\n      dup2\n        /* \"#utility.yul\":2582:2594   */\n      mload\n        /* \"#utility.yul\":2572:2594   */\n      swap1\n      pop\n        /* \"#utility.yul\":2502:2601   */\n      swap2\n      swap1\n      pop\n      jump\t// out\n        /* \"#utility.yul\":2607:2776   */\n    tag_44:\n        /* \"#utility.yul\":2691:2702   */\n      0x00\n        /* \"#utility.yul\":2725:2731   */\n      dup3\n        /* \"#utility.yul\":2720:2723   */\n      dup3\n        /* \"#utility.yul\":2713:2732   */\n      mstore\n        /* \"#utility.yul\":2765:2769   */\n      0x20\n        /* \"#utility.yul\":2760:2763   */\n      dup3\n        /* \"#utility.yul\":2756:2770   */\n      add\n        /* \"#utility.yul\":2741:2770   */\n      swap1\n      pop\n        /* \"#utility.yul\":2607:2776   */\n      swap3\n      swap2\n      pop\n      pop\n      jump\t// out\n        /* \"#utility.yul\":2782:3089   */\n    tag_45:\n        /* \"#utility.yul\":2850:2851   */\n      0x00\n        /* \"#utility.yul\":2860:2973   */\n    tag_100:\n        /* \"#utility.yul\":2874:2880   */\n      dup4\n        /* \"#utility.yul\":2871:2872   */\n      dup2\n        /* \"#utility.yul\":2868:2881   */\n      lt\n        /* \"#utility.yul\":2860:2973   */\n      iszero\n      tag_102\n      jumpi\n        /* \"#utility.yul\":2959:2960   */\n      dup1\n        /* \"#utility.yul\":2954:2957   */\n      dup3\n        /* \"#utility.yul\":2950:2961   */\n      add\n        /* \"#utility.yul\":2944:2962   */\n      mload\n        /* \"#utility.yul\":2940:2941   */\n      dup2\n        /* \"#utility.yul\":2935:2938   */\n      dup5\n        /* \"#utility.yul\":2931:2942   */\n      add\n        /* \"#utility.yul\":2924:2963   */\n      mstore\n        /* \"#utility.yul\":2896:2898   */\n      0x20\n        /* \"#utility.yul\":2893:2894   */\n      dup2\n        /* \"#utility.yul\":2889:2899   */\n      add\n        /* \"#utility.yul\":2884:2899   */\n      swap1\n      pop\n        /* \"#utility.yul\":2860:2973   */\n      jump(tag_100)\n    tag_102:\n        /* \"#utility.yul\":2991:2997   */\n      dup4\n        /* \"#utility.yul\":2988:2989   */\n      dup2\n        /* \"#utility.yul\":2985:2998   */\n      gt\n        /* \"#utility.yul\":2982:3083   */\n      iszero\n      tag_103\n      jumpi\n        /* \"#utility.yul\":3071:3072   */\n      0x00\n        /* \"#utility.yul\":3062:3068   */\n      dup5\n        /* \"#utility.yul\":3057:3060   */\n      dup5\n        /* \"#utility.yul\":3053:3069   */\n      add\n        /* \"#utility.yul\":3046:3073   */\n      mstore\n        /* \"#utility.yul\":2982:3083   */\n    tag_103:\n        /* \"#utility.yul\":2831:3089   */\n      pop\n        /* \"#utility.yul\":2782:3089   */\n      pop\n      pop\n      pop\n      jump\t// out\n        /* \"#utility.yul\":3095:3197   */\n    tag_46:\n        /* \"#utility.yul\":3136:3142   */\n      0x00\n        /* \"#utility.yul\":3187:3189   */\n      0x1f\n        /* \"#utility.yul\":3183:3190   */\n      not\n        /* \"#utility.yul\":3178:3180   */\n      0x1f\n        /* \"#utility.yul\":3171:3176   */\n      dup4\n        /* \"#utility.yul\":3167:3181   */\n      add\n        /* \"#utility.yul\":3163:3191   */\n      and\n        /* \"#utility.yul\":3153:3191   */\n      swap1\n      pop\n        /* \"#utility.yul\":3095:3197   */\n      swap2\n      swap1\n      pop\n      jump\t// out\n        /* \"#utility.yul\":3203:3567   */\n    tag_47:\n        /* \"#utility.yul\":3291:3294   */\n      0x00\n        /* \"#utility.yul\":3319:3358   */\n      tag_106\n        /* \"#utility.yul\":3352:3357   */\n      dup3\n        /* \"#utility.yul\":3319:3358   */\n      tag_43\n      jump\t// in\n    tag_106:\n        /* \"#utility.yul\":3374:3445   */\n      tag_107\n        /* \"#utility.yul\":3438:3444   */\n      dup2\n        /* \"#utility.yul\":3433:3436   */\n      dup6\n        /* \"#utility.yul\":3374:3445   */\n      tag_44\n      jump\t// in\n    tag_107:\n        /* \"#utility.yul\":3367:3445   */\n      swap4\n      pop\n        /* \"#utility.yul\":3454:3506   */\n      tag_108\n        /* \"#utility.yul\":3499:3505   */\n      dup2\n        /* \"#utility.yul\":3494:3497   */\n      dup6\n        /* \"#utility.yul\":3487:3491   */\n      0x20\n        /* \"#utility.yul\":3480:3485   */\n      dup7\n        /* \"#utility.yul\":3476:3492   */\n      add\n        /* \"#utility.yul\":3454:3506   */\n      tag_45\n      jump\t// in\n    tag_108:\n        /* \"#utility.yul\":3531:3560   */\n      tag_109\n        /* \"#utility.yul\":3553:3559   */\n      dup2\n        /* \"#utility.yul\":3531:3560   */\n      tag_46\n      jump\t// in\n    tag_109:\n        /* \"#utility.yul\":3526:3529   */\n      dup5\n        /* \"#utility.yul\":3522:3561   */\n      add\n        /* \"#utility.yul\":3515:3561   */\n      swap2\n      pop\n        /* \"#utility.yul\":3295:3567   */\n      pop\n        /* \"#utility.yul\":3203:3567   */\n      swap3\n      swap2\n      pop\n      pop\n      jump\t// out\n        /* \"#utility.yul\":3573:3663   */\n    tag_48:\n        /* \"#utility.yul\":3607:3614   */\n      0x00\n        /* \"#utility.yul\":3650:3655   */\n      dup2\n        /* \"#utility.yul\":3643:3656   */\n      iszero\n        /* \"#utility.yul\":3636:3657   */\n      iszero\n        /* \"#utility.yul\":3625:3657   */\n      swap1\n      pop\n        /* \"#utility.yul\":3573:3663   */\n      swap2\n      swap1\n      pop\n      jump\t// out\n        /* \"#utility.yul\":3669:3778   */\n    tag_49:\n        /* \"#utility.yul\":3750:3771   */\n      tag_112\n        /* \"#utility.yul\":3765:3770   */\n      dup2\n        /* \"#utility.yul\":3750:3771   */\n      tag_48\n      jump\t// in\n    tag_112:\n        /* \"#utility.yul\":3745:3748   */\n      dup3\n        /* \"#utility.yul\":3738:3772   */\n      mstore\n        /* \"#utility.yul\":3669:3778   */\n      pop\n      pop\n      jump\t// out\n        /* \"#utility.yul\":3784:4195   */\n    tag_14:\n        /* \"#utility.yul\":3919:3923   */\n      0x00\n        /* \"#utility.yul\":3957:3959   */\n      0x40\n        /* \"#utility.yul\":3946:3955   */\n      dup3\n        /* \"#utility.yul\":3942:3960   */\n      add\n        /* \"#utility.yul\":3934:3960   */\n      swap1\n      pop\n        /* \"#utility.yul\":4006:4015   */\n      dup2\n        /* \"#utility.yul\":4000:4004   */\n      dup2\n        /* \"#utility.yul\":3996:4016   */\n      sub\n        /* \"#utility.yul\":3992:3993   */\n      0x00\n        /* \"#utility.yul\":3981:3990   */\n      dup4\n        /* \"#utility.yul\":3977:3994   */\n      add\n        /* \"#utility.yul\":3970:4017   */\n      mstore\n        /* \"#utility.yul\":4034:4112   */\n      tag_114\n        /* \"#utility.yul\":4107:4111   */\n      dup2\n        /* \"#utility.yul\":4098:4104   */\n      dup6\n        /* \"#utility.yul\":4034:4112   */\n      tag_47\n      jump\t// in\n    tag_114:\n        /* \"#utility.yul\":4026:4112   */\n      swap1\n      pop\n        /* \"#utility.yul\":4122:4188   */\n      tag_115\n        /* \"#utility.yul\":4184:4186   */\n      0x20\n        /* \"#utility.yul\":4173:4182   */\n      dup4\n        /* \"#utility.yul\":4169:4187   */\n      add\n        /* \"#utility.yul\":4160:4166   */\n      dup5\n        /* \"#utility.yul\":4122:4188   */\n      tag_49\n      jump\t// in\n    tag_115:\n        /* \"#utility.yul\":3784:4195   */\n      swap4\n      swap3\n      pop\n      pop\n      pop\n      jump\t// out\n        /* \"#utility.yul\":4201:4381   */\n    tag_50:\n        /* \"#utility.yul\":4249:4326   */\n      0x4e487b7100000000000000000000000000000000000000000000000000000000\n        /* \"#utility.yul\":4246:4247   */\n      0x00\n        /* \"#utility.yul\":4239:4327   */\n      mstore\n        /* \"#utility.yul\":4346:4350   */\n      0x41\n        /* \"#utility.yul\":4343:4344   */\n      0x04\n        /* \"#utility.yul\":4336:4351   */\n      mstore\n        /* \"#utility.yul\":4370:4374   */\n      0x24\n        /* \"#utility.yul\":4367:4368   */\n      0x00\n        /* \"#utility.yul\":4360:4375   */\n      revert\n        /* \"#utility.yul\":4387:4567   */\n    tag_51:\n        /* \"#utility.yul\":4435:4512   */\n      0x4e487b7100000000000000000000000000000000000000000000000000000000\n        /* \"#utility.yul\":4432:4433   */\n      0x00\n        /* \"#utility.yul\":4425:4513   */\n      mstore\n        /* \"#utility.yul\":4532:4536   */\n      0x22\n        /* \"#utility.yul\":4529:4530   */\n      0x04\n        /* \"#utility.yul\":4522:4537   */\n      mstore\n        /* \"#utility.yul\":4556:4560   */\n      0x24\n        /* \"#utility.yul\":4553:4554   */\n      0x00\n        /* \"#utility.yul\":4546:4561   */\n      revert\n        /* \"#utility.yul\":4573:4893   */\n    tag_28:\n        /* \"#utility.yul\":4617:4623   */\n      0x00\n        /* \"#utility.yul\":4654:4655   */\n      0x02\n        /* \"#utility.yul\":4648:4652   */\n      dup3\n        /* \"#utility.yul\":4644:4656   */\n      div\n        /* \"#utility.yul\":4634:4656   */\n      swap1\n      pop\n        /* \"#utility.yul\":4701:4702   */\n      0x01\n        /* \"#utility.yul\":4695:4699   */\n      dup3\n        /* \"#utility.yul\":4691:4703   */\n      and\n        /* \"#utility.yul\":4722:4740   */\n      dup1\n        /* \"#utility.yul\":4712:4793   */\n      tag_119\n      jumpi\n        /* \"#utility.yul\":4778:4782   */\n      0x7f\n        /* \"#utility.yul\":4770:4776   */\n      dup3\n        /* \"#utility.yul\":4766:4783   */\n      and\n        /* \"#utility.yul\":4756:4783   */\n      swap2\n      pop\n        /* \"#utility.yul\":4712:4793   */\n    tag_119:\n        /* \"#utility.yul\":4840:4842   */\n      0x20\n        /* \"#utility.yul\":4832:4838   */\n      dup3\n        /* \"#utility.yul\":4829:4843   */\n      lt\n        /* \"#utility.yul\":4809:4827   */\n      dup2\n        /* \"#utility.yul\":4806:4844   */\n      sub\n        /* \"#utility.yul\":4803:4887   */\n      tag_120\n      jumpi\n        /* \"#utility.yul\":4859:4877   */\n      tag_121\n      tag_51\n      jump\t// in\n    tag_121:\n        /* \"#utility.yul\":4803:4887   */\n    tag_120:\n        /* \"#utility.yul\":4624:4893   */\n      pop\n        /* \"#utility.yul\":4573:4893   */\n      swap2\n      swap1\n      pop\n      jump\t// out\n        /* \"#utility.yul\":4899:5040   */\n    tag_52:\n        /* \"#utility.yul\":4948:4952   */\n      0x00\n        /* \"#utility.yul\":4971:4974   */\n      dup2\n        /* \"#utility.yul\":4963:4974   */\n      swap1\n      pop\n        /* \"#utility.yul\":4994:4997   */\n      dup2\n        /* \"#utility.yul\":4991:4992   */\n      0x00\n        /* \"#utility.yul\":4984:4998   */\n      mstore\n        /* \"#utility.yul\":5028:5032   */\n      0x20\n        /* \"#utility.yul\":5025:5026   */\n      0x00\n        /* \"#utility.yul\":5015:5033   */\n      keccak256\n        /* \"#utility.yul\":5007:5033   */\n      swap1\n      pop\n        /* \"#utility.yul\":4899:5040   */\n      swap2\n      swap1\n      pop\n      jump\t// out\n        /* \"#utility.yul\":5046:5139   */\n    tag_53:\n        /* \"#utility.yul\":5083:5089   */\n      0x00\n        /* \"#utility.yul\":5130:5132   */\n      0x20\n        /* \"#utility.yul\":5125:5127   */\n      0x1f\n        /* \"#utility.yul\":5118:5123   */\n      dup4\n        /* \"#utility.yul\":5114:5128   */\n      add\n        /* \"#utility.yul\":5110:5133   */\n      div\n        /* \"#utility.yul\":5100:5133   */\n      swap1\n      pop\n        /* \"#utility.yul\":5046:5139   */\n      swap2\n      swap1\n      pop\n      jump\t// out\n        /* \"#utility.yul\":5145:5252   */\n    tag_54:\n        /* \"#utility.yul\":5189:5197   */\n      0x00\n        /* \"#utility.yul\":5239:5244   */\n      dup3\n        /* \"#utility.yul\":5233:5237   */\n      dup3\n        /* \"#utility.yul\":5229:5245   */\n      shl\n        /* \"#utility.yul\":5208:5245   */\n      swap1\n      pop\n        /* \"#utility.yul\":5145:5252   */\n      swap3\n      swap2\n      pop\n      pop\n      jump\t// out\n        /* \"#utility.yul\":5258:5651   */\n    tag_55:\n        /* \"#utility.yul\":5327:5333   */\n      0x00\n        /* \"#utility.yul\":5377:5378   */\n      0x08\n        /* \"#utility.yul\":5365:5375   */\n      dup4\n        /* \"#utility.yul\":5361:5379   */\n      mul\n        /* \"#utility.yul\":5400:5497   */\n      tag_126\n        /* \"#utility.yul\":5430:5496   */\n      0xffffffffffffffffffffffffffffffffffffffffffffffffffffffffffffffff\n        /* \"#utility.yul\":5419:5428   */\n      dup3\n        /* \"#utility.yul\":5400:5497   */\n      tag_54\n      jump\t// in\n    tag_126:\n        /* \"#utility.yul\":5518:5557   */\n      tag_127\n        /* \"#utility.yul\":5548:5556   */\n      dup7\n        /* \"#utility.yul\":5537:5546   */\n      dup4\n        /* \"#utility.yul\":5518:5557   */\n      tag_54\n      jump\t// in\n    tag_127:\n        /* \"#utility.yul\":5506:5557   */\n      swap6\n      pop\n        /* \"#utility.yul\":5590:5594   */\n      dup1\n        /* \"#utility.yul\":5586:5595   */\n      not\n        /* \"#utility.yul\":5579:5584   */\n      dup5\n        /* \"#utility.yul\":5575:5596   */\n      and\n        /* \"#utility.yul\":5566:5596   */\n      swap4\n      pop\n        /* \"#utility.yul\":5639:5643   */\n      dup1\n        /* \"#utility.yul\":5629:5637   */\n      dup7\n        /* \"#utility.yul\":5625:5644   */\n      and\n        /* \"#utility.yul\":5618:5623   */\n      dup5\n        /* \"#utility.yul\":5615:5645   */\n      or\n        /* \"#utility.yul\":5605:5645   */\n      swap3\n      pop\n        /* \"#utility.yul\":5334:5651   */\n      pop\n      pop\n        /* \"#utility.yul\":5258:5651   */\n      swap4\n      swap3\n      pop\n      pop\n      pop\n      jump\t// out\n        /* \"#utility.yul\":5657:5717   */\n    tag_56:\n        /* \"#utility.yul\":5685:5688   */\n      0x00\n        /* \"#utility.yul\":5706:5711   */\n      dup2\n        /* \"#utility.yul\":5699:5711   */\n      swap1\n      pop\n        /* \"#utility.yul\":5657:5717   */\n      swap2\n      swap1\n      pop\n      jump\t// out\n        /* \"#utility.yul\":5723:5865   */\n    tag_57:\n        /* \"#utility.yul\":5773:5782   */\n      0x00\n        /* \"#utility.yul\":5806:5859   */\n      tag_130\n        /* \"#utility.yul\":5824:5858   */\n      tag_131\n        /* \"#utility.yul\":5833:5857   */\n      tag_132\n        /* \"#utility.yul\":5851:5856   */\n      dup5\n        /* \"#utility.yul\":5833:5857   */\n      tag_40\n      jump\t// in\n    tag_132:\n        /* \"#utility.yul\":5824:5858   */\n      tag_56\n      jump\t// in\n    tag_131:\n        /* \"#utility.yul\":5806:5859   */\n      tag_40\n      jump\t// in\n    tag_130:\n        /* \"#utility.yul\":5793:5859   */\n      swap1\n      pop\n        /* \"#utility.yul\":5723:5865   */\n      swap2\n      swap1\n      pop\n      jump\t// out\n        /* \"#utility.yul\":5871:5946   */\n    tag_58:\n        /* \"#utility.yul\":5914:5917   */\n      0x00\n        /* \"#utility.yul\":5935:5940   */\n      dup2\n        /* \"#utility.yul\":5928:5940   */\n      swap1\n      pop\n        /* \"#utility.yul\":5871:5946   */\n      swap2\n      swap1\n      pop\n      jump\t// out\n        /* \"#utility.yul\":5952:6221   */\n    tag_59:\n        /* \"#utility.yul\":6062:6101   */\n      tag_135\n        /* \"#utility.yul\":6093:6100   */\n      dup4\n        /* \"#utility.yul\":6062:6101   */\n      tag_57\n      jump\t// in\n    tag_135:\n        /* \"#utility.yul\":6123:6214   */\n      tag_136\n        /* \"#utility.yul\":6172:6213   */\n      tag_137\n        /* \"#utility.yul\":6196:6212   */\n      dup3\n        /* \"#utility.yul\":6172:6213   */\n      tag_58\n      jump\t// in\n    tag_137:\n        /* \"#utility.yul\":6164:6170   */\n      dup5\n        /* \"#utility.yul\":6157:6161   */\n      dup5\n        /* \"#utility.yul\":6151:6162   */\n      sload\n        /* \"#utility.yul\":6123:6214   */\n      tag_55\n      jump\t// in\n    tag_136:\n        /* \"#utility.yul\":6117:6121   */\n      dup3\n        /* \"#utility.yul\":6110:6215   */\n      sstore\n        /* \"#utility.yul\":6028:6221   */\n      pop\n        /* \"#utility.yul\":5952:6221   */\n      pop\n      pop\n      pop\n      jump\t// out\n        /* \"#utility.yul\":6227:6300   */\n    tag_60:\n        /* \"#utility.yul\":6272:6275   */\n      0x00\n        /* \"#utility.yul\":6227:6300   */\n      swap1\n      jump\t// out\n        /* \"#utility.yul\":6306:6495   */\n    tag_61:\n        /* \"#utility.yul\":6383:6415   */\n      tag_140\n      tag_60\n      jump\t// in\n    tag_140:\n        /* \"#utility.yul\":6424:6489   */\n      tag_141\n        /* \"#utility.yul\":6482:6488   */\n      dup2\n        /* \"#utility.yul\":6474:6480   */\n      dup5\n        /* \"#utility.yul\":6468:6472   */\n      dup5\n        /* \"#utility.yul\":6424:6489   */\n      tag_59\n      jump\t// in\n    tag_141:\n        /* \"#utility.yul\":6359:6495   */\n      pop\n        /* \"#utility.yul\":6306:6495   */\n      pop\n      pop\n      jump\t// out\n        /* \"#utility.yul\":6501:6687   */\n    tag_62:\n        /* \"#utility.yul\":6561:6681   */\n    tag_143:\n        /* \"#utility.yul\":6578:6581   */\n      dup2\n        /* \"#utility.yul\":6571:6576   */\n      dup2\n        /* \"#utility.yul\":6568:6582   */\n      lt\n        /* \"#utility.yul\":6561:6681   */\n      iszero\n      tag_145\n      jumpi\n        /* \"#utility.yul\":6632:6671   */\n      tag_146\n        /* \"#utility.yul\":6669:6670   */\n      0x00\n        /* \"#utility.yul\":6662:6667   */\n      dup3\n        /* \"#utility.yul\":6632:6671   */\n      tag_61\n      jump\t// in\n    tag_146:\n        /* \"#utility.yul\":6605:6606   */\n      0x01\n        /* \"#utility.yul\":6598:6603   */\n      dup2\n        /* \"#utility.yul\":6594:6607   */\n      add\n        /* \"#utility.yul\":6585:6607   */\n      swap1\n      pop\n        /* \"#utility.yul\":6561:6681   */\n      jump(tag_143)\n    tag_145:\n        /* \"#utility.yul\":6501:6687   */\n      pop\n      pop\n      jump\t// out\n        /* \"#utility.yul\":6693:7236   */\n    tag_63:\n        /* \"#utility.yul\":6794:6796   */\n      0x1f\n        /* \"#utility.yul\":6789:6792   */\n      dup3\n        /* \"#utility.yul\":6786:6797   */\n      gt\n        /* \"#utility.yul\":6783:7229   */\n      iszero\n      tag_148\n      jumpi\n        /* \"#utility.yul\":6828:6866   */\n      tag_149\n        /* \"#utility.yul\":6860:6865   */\n      dup2\n        /* \"#utility.yul\":6828:6866   */\n      tag_52\n      jump\t// in\n    tag_149:\n        /* \"#utility.yul\":6912:6941   */\n      tag_150\n        /* \"#utility.yul\":6930:6940   */\n      dup5\n        /* \"#utility.yul\":6912:6941   */\n      tag_53\n      jump\t// in\n    tag_150:\n        /* \"#utility.yul\":6902:6910   */\n      dup2\n        /* \"#utility.yul\":6898:6942   */\n      add\n        /* \"#utility.yul\":7095:7097   */\n      0x20\n        /* \"#utility.yul\":7083:7093   */\n      dup6\n        /* \"#utility.yul\":7080:7098   */\n      lt\n        /* \"#utility.yul\":7077:7126   */\n      iszero\n      tag_151\n      jumpi\n        /* \"#utility.yul\":7116:7124   */\n      dup2\n        /* \"#utility.yul\":7101:7124   */\n      swap1\n      pop\n        /* \"#utility.yul\":7077:7126   */\n    tag_151:\n        /* \"#utility.yul\":7139:7219   */\n      tag_152\n        /* \"#utility.yul\":7195:7217   */\n      tag_153\n        /* \"#utility.yul\":7213:7216   */\n      dup6\n        /* \"#utility.yul\":7195:7217   */\n      tag_53\n      jump\t// in\n    tag_153:\n        /* \"#utility.yul\":7185:7193   */\n      dup4\n        /* \"#utility.yul\":7181:7218   */\n      add\n        /* \"#utility.yul\":7168:7179   */\n      dup3\n        /* \"#utility.yul\":7139:7219   */\n      tag_62\n      jump\t// in\n    tag_152:\n        /* \"#utility.yul\":6798:7229   */\n      pop\n      pop\n        /* \"#utility.yul\":6783:7229   */\n    tag_148:\n        /* \"#utility.yul\":6693:7236   */\n      pop\n      pop\n      pop\n      jump\t// out\n        /* \"#utility.yul\":7242:7359   */\n    tag_64:\n        /* \"#utility.yul\":7296:7304   */\n      0x00\n        /* \"#utility.yul\":7346:7351   */\n      dup3\n        /* \"#utility.yul\":7340:7344   */\n      dup3\n        /* \"#utility.yul\":7336:7352   */\n      shr\n        /* \"#utility.yul\":7315:7352   */\n      swap1\n      pop\n        /* \"#utility.yul\":7242:7359   */\n      swap3\n      swap2\n      pop\n      pop\n      jump\t// out\n        /* \"#utility.yul\":7365:7534   */\n    tag_65:\n        /* \"#utility.yul\":7409:7415   */\n      0x00\n        /* \"#utility.yul\":7442:7493   */\n      tag_156\n        /* \"#utility.yul\":7490:7491   */\n      0x00\n        /* \"#utility.yul\":7486:7492   */\n      not\n        /* \"#utility.yul\":7478:7483   */\n      dup5\n        /* \"#utility.yul\":7475:7476   */\n      0x08\n        /* \"#utility.yul\":7471:7484   */\n      mul\n        /* \"#utility.yul\":7442:7493   */\n      tag_64\n      jump\t// in\n    tag_156:\n        /* \"#utility.yul\":7438:7494   */\n      not\n        /* \"#utility.yul\":7523:7527   */\n      dup1\n        /* \"#utility.yul\":7517:7521   */\n      dup4\n        /* \"#utility.yul\":7513:7528   */\n      and\n        /* \"#utility.yul\":7503:7528   */\n      swap2\n      pop\n        /* \"#utility.yul\":7416:7534   */\n      pop\n        /* \"#utility.yul\":7365:7534   */\n      swap3\n      swap2\n      pop\n      pop\n      jump\t// out\n        /* \"#utility.yul\":7539:7834   */\n    tag_66:\n        /* \"#utility.yul\":7615:7619   */\n      0x00\n        /* \"#utility.yul\":7761:7790   */\n      tag_158\n        /* \"#utility.yul\":7786:7789   */\n      dup4\n        /* \"#utility.yul\":7780:7784   */\n      dup4\n        /* \"#utility.yul\":7761:7790   */\n      tag_65\n      jump\t// in\n    tag_158:\n        /* \"#utility.yul\":7753:7790   */\n      swap2\n      pop\n        /* \"#utility.yul\":7823:7826   */\n      dup3\n        /* \"#utility.yul\":7820:7821   */\n      0x02\n        /* \"#utility.yul\":7816:7827   */\n      mul\n        /* \"#utility.yul\":7810:7814   */\n      dup3\n        /* \"#utility.yul\":7807:7828   */\n      or\n        /* \"#utility.yul\":7799:7828   */\n      swap1\n      pop\n        /* \"#utility.yul\":7539:7834   */\n      swap3\n      swap2\n      pop\n      pop\n      jump\t// out\n        /* \"#utility.yul\":7839:9234   */\n    tag_18:\n        /* \"#utility.yul\":7956:7993   */\n      tag_160\n        /* \"#utility.yul\":7989:7992   */\n      dup3\n        /* \"#utility.yul\":7956:7993   */\n      tag_43\n      jump\t// in\n    tag_160:\n        /* \"#utility.yul\":8058:8076   */\n      0xffffffffffffffff\n        /* \"#utility.yul\":8050:8056   */\n      dup2\n        /* \"#utility.yul\":8047:8077   */\n      gt\n        /* \"#utility.yul\":8044:8100   */\n      iszero\n      tag_161\n      jumpi\n        /* \"#utility.yul\":8080:8098   */\n      tag_162\n      tag_50\n      jump\t// in\n    tag_162:\n        /* \"#utility.yul\":8044:8100   */\n    tag_161:\n        /* \"#utility.yul\":8124:8162   */\n      tag_163\n        /* \"#utility.yul\":8156:8160   */\n      dup3\n        /* \"#utility.yul\":8150:8161   */\n      sload\n        /* \"#utility.yul\":8124:8162   */\n      tag_28\n      jump\t// in\n    tag_163:\n        /* \"#utility.yul\":8209:8276   */\n      tag_164\n        /* \"#utility.yul\":8269:8275   */\n      dup3\n        /* \"#utility.yul\":8261:8267   */\n      dup3\n        /* \"#utility.yul\":8255:8259   */\n      dup6\n        /* \"#utility.yul\":8209:8276   */\n      tag_63\n      jump\t// in\n    tag_164:\n        /* \"#utility.yul\":8303:8304   */\n      0x00\n        /* \"#utility.yul\":8327:8331   */\n      0x20\n        /* \"#utility.yul\":8314:8331   */\n      swap1\n      pop\n        /* \"#utility.yul\":8359:8361   */\n      0x1f\n        /* \"#utility.yul\":8351:8357   */\n      dup4\n        /* \"#utility.yul\":8348:8362   */\n      gt\n        /* \"#utility.yul\":8376:8377   */\n      0x01\n        /* \"#utility.yul\":8371:8989   */\n      dup2\n      eq\n      tag_166\n      jumpi\n        /* \"#utility.yul\":9033:9034   */\n      0x00\n        /* \"#utility.yul\":9050:9056   */\n      dup5\n        /* \"#utility.yul\":9047:9124   */\n      iszero\n      tag_167\n      jumpi\n        /* \"#utility.yul\":9099:9108   */\n      dup3\n        /* \"#utility.yul\":9094:9097   */\n      dup8\n        /* \"#utility.yul\":9090:9109   */\n      add\n        /* \"#utility.yul\":9084:9110   */\n      mload\n        /* \"#utility.yul\":9075:9110   */\n      swap1\n      pop\n        /* \"#utility.yul\":9047:9124   */\n    tag_167:\n        /* \"#utility.yul\":9150:9217   */\n      tag_168\n        /* \"#utility.yul\":9210:9216   */\n      dup6\n        /* \"#utility.yul\":9203:9208   */\n      dup3\n        /* \"#utility.yul\":9150:9217   */\n      tag_66\n      jump\t// in\n    tag_168:\n        /* \"#utility.yul\":9144:9148   */\n      dup7\n        /* \"#utility.yul\":9137:9218   */\n      sstore\n        /* \"#utility.yul\":9006:9228   */\n      pop\n        /* \"#utility.yul\":8341:9228   */\n      jump(tag_165)\n        /* \"#utility.yul\":8371:8989   */\n    tag_166:\n        /* \"#utility.yul\":8423:8427   */\n      0x1f\n        /* \"#utility.yul\":8419:8428   */\n      not\n        /* \"#utility.yul\":8411:8417   */\n      dup5\n        /* \"#utility.yul\":8407:8429   */\n      and\n        /* \"#utility.yul\":8457:8494   */\n      tag_169\n        /* \"#utility.yul\":8489:8493   */\n      dup7\n        /* \"#utility.yul\":8457:8494   */\n      tag_52\n      jump\t// in\n    tag_169:\n        /* \"#utility.yul\":8516:8517   */\n      0x00\n        /* \"#utility.yul\":8530:8738   */\n    tag_170:\n        /* \"#utility.yul\":8544:8551   */\n      dup3\n        /* \"#utility.yul\":8541:8542   */\n      dup2\n        /* \"#utility.yul\":8538:8552   */\n      lt\n        /* \"#utility.yul\":8530:8738   */\n      iszero\n      tag_172\n      jumpi\n        /* \"#utility.yul\":8623:8632   */\n      dup5\n        /* \"#utility.yul\":8618:8621   */\n      dup10\n        /* \"#utility.yul\":8614:8633   */\n      add\n        /* \"#utility.yul\":8608:8634   */\n      mload\n        /* \"#utility.yul\":8600:8606   */\n      dup3\n        /* \"#utility.yul\":8593:8635   */\n      sstore\n        /* \"#utility.yul\":8674:8675   */\n      0x01\n        /* \"#utility.yul\":8666:8672   */\n      dup3\n        /* \"#utility.yul\":8662:8676   */\n      add\n        /* \"#utility.yul\":8652:8676   */\n      swap2\n      pop\n        /* \"#utility.yul\":8721:8723   */\n      0x20\n        /* \"#utility.yul\":8710:8719   */\n      dup6\n        /* \"#utility.yul\":8706:8724   */\n      add\n        /* \"#utility.yul\":8693:8724   */\n      swap5\n      pop\n        /* \"#utility.yul\":8567:8571   */\n      0x20\n        /* \"#utility.yul\":8564:8565   */\n      dup2\n        /* \"#utility.yul\":8560:8572   */\n      add\n        /* \"#utility.yul\":8555:8572   */\n      swap1\n      pop\n        /* \"#utility.yul\":8530:8738   */\n      jump(tag_170)\n    tag_172:\n        /* \"#utility.yul\":8766:8772   */\n      dup7\n        /* \"#utility.yul\":8757:8764   */\n      dup4\n        /* \"#utility.yul\":8754:8773   */\n      lt\n        /* \"#utility.yul\":8751:8930   */\n      iszero\n      tag_173\n      jumpi\n        /* \"#utility.yul\":8824:8833   */\n      dup5\n        /* \"#utility.yul\":8819:8822   */\n      dup10\n        /* \"#utility.yul\":8815:8834   */\n      add\n        /* \"#utility.yul\":8809:8835   */\n      mload\n        /* \"#utility.yul\":8867:8915   */\n      tag_174\n        /* \"#utility.yul\":8909:8913   */\n      0x1f\n        /* \"#utility.yul\":8901:8907   */\n      dup10\n        /* \"#utility.yul\":8897:8914   */\n      and\n        /* \"#utility.yul\":8886:8895   */\n      dup3\n        /* \"#utility.yul\":8867:8915   */\n      tag_65\n      jump\t// in\n    tag_174:\n        /* \"#utility.yul\":8859:8865   */\n      dup4\n        /* \"#utility.yul\":8852:8916   */\n      sstore\n        /* \"#utility.yul\":8774:8930   */\n      pop\n        /* \"#utility.yul\":8751:8930   */\n    tag_173:\n        /* \"#utility.yul\":8976:8977   */\n      0x01\n        /* \"#utility.yul\":8972:8973   */\n      0x02\n        /* \"#utility.yul\":8964:8970   */\n      dup9\n        /* \"#utility.yul\":8960:8974   */\n      mul\n        /* \"#utility.yul\":8956:8978   */\n      add\n        /* \"#utility.yul\":8950:8954   */\n      dup9\n        /* \"#utility.yul\":8943:8979   */\n      sstore\n        /* \"#utility.yul\":8378:8989   */\n      pop\n      pop\n      pop\n        /* \"#utility.yul\":8341:9228   */\n    tag_165:\n      pop\n        /* \"#utility.yul\":7931:9234   */\n      pop\n      pop\n      pop\n        /* \"#utility.yul\":7839:9234   */\n      pop\n      pop\n      jump\t// out\n\n    auxdata: 0xa2646970667358221220ffe515bda155284dcfa2e910cb636a6f1df49b3cf26cdcbee0e6911046c922e764736f6c634300080f0033\n}\n",
				"bytecode": {
					"linkReferences": {},
					"object": "608060405234801561001057600080fd5b506108ef806100206000396000f3fe608060405234801561001057600080fd5b50600436106100365760003560e01c8063b6a46b3b1461003b578063bc8bc2b414610057575b600080fd5b61005560048036038101906100509190610418565b610088565b005b610071600480360381019061006c919061049b565b6102c4565b60405161007f92919061057c565b60405180910390f35b6000604051806040016040528084848080601f016020809104026020016040519081016040528093929190818152602001838380828437600081840152601f19601f820116905080830192505050505050508152602001600015158152509080600181540180825580915050600190039060005260206000209060020201600090919091909150600082015181600001908161012491906107e7565b5060208201518160010160006101000a81548160ff02191690831515021790555050506000604051806040016040528084848080601f016020809104026020016040519081016040528093929190818152602001838380828437600081840152601f19601f82011690508083019250505050505050815260200160001515815250908060018154018082558091505060019003906000526020600020906002020160009091909190915060008201518160000190816101e391906107e7565b5060208201518160010160006101000a81548160ff021916908315150217905550505061020e61038d565b82828080601f016020809104026020016040519081016040528093929190818152602001838380828437600081840152601f19601f8201169050808301925050505050505081600001819052506000819080600181540180825580915050600190039060005260206000209060020201600090919091909150600082015181600001908161029c91906107e7565b5060208201518160010160006101000a81548160ff0219169083151502179055505050505050565b600081815481106102d457600080fd5b90600052602060002090600202016000915090508060000180546102f79061060a565b80601f01602080910402602001604051908101604052809291908181526020018280546103239061060a565b80156103705780601f1061034557610100808354040283529160200191610370565b820191906000526020600020905b81548152906001019060200180831161035357829003601f168201915b5050505050908060010160009054906101000a900460ff16905082565b6040518060400160405280606081526020016000151581525090565b600080fd5b600080fd5b600080fd5b600080fd5b600080fd5b60008083601f8401126103d8576103d76103b3565b5b8235905067ffffffffffffffff8111156103f5576103f46103b8565b5b602083019150836001820283011115610411576104106103bd565b5b9250929050565b6000806020838503121561042f5761042e6103a9565b5b600083013567ffffffffffffffff81111561044d5761044c6103ae565b5b610459858286016103c2565b92509250509250929050565b6000819050919050565b61047881610465565b811461048357600080fd5b50565b6000813590506104958161046f565b92915050565b6000602082840312156104b1576104b06103a9565b5b60006104bf84828501610486565b91505092915050565b600081519050919050565b600082825260208201905092915050565b60005b838110156105025780820151818401526020810190506104e7565b83811115610511576000848401525b50505050565b6000601f19601f8301169050919050565b6000610533826104c8565b61053d81856104d3565b935061054d8185602086016104e4565b61055681610517565b840191505092915050565b60008115159050919050565b61057681610561565b82525050565b600060408201905081810360008301526105968185610528565b90506105a5602083018461056d565b9392505050565b7f4e487b7100000000000000000000000000000000000000000000000000000000600052604160045260246000fd5b7f4e487b7100000000000000000000000000000000000000000000000000000000600052602260045260246000fd5b6000600282049050600182168061062257607f821691505b602082108103610635576106346105db565b5b50919050565b60008190508160005260206000209050919050565b60006020601f8301049050919050565b600082821b905092915050565b60006008830261069d7fffffffffffffffffffffffffffffffffffffffffffffffffffffffffffffffff82610660565b6106a78683610660565b95508019841693508086168417925050509392505050565b6000819050919050565b60006106e46106df6106da84610465565b6106bf565b610465565b9050919050565b6000819050919050565b6106fe836106c9565b61071261070a826106eb565b84845461066d565b825550505050565b600090565b61072761071a565b6107328184846106f5565b505050565b5b818110156107565761074b60008261071f565b600181019050610738565b5050565b601f82111561079b5761076c8161063b565b61077584610650565b81016020851015610784578190505b61079861079085610650565b830182610737565b50505b505050565b600082821c905092915050565b60006107be600019846008026107a0565b1980831691505092915050565b60006107d783836107ad565b9150826002028217905092915050565b6107f0826104c8565b67ffffffffffffffff811115610809576108086105ac565b5b610813825461060a565b61081e82828561075a565b600060209050601f831160018114610851576000841561083f578287015190505b61084985826107cb565b8655506108b1565b601f19841661085f8661063b565b60005b8281101561088757848901518255600182019150602085019450602081019050610862565b868310156108a457848901516108a0601f8916826107ad565b8355505b6001600288020188555050505b50505050505056fea2646970667358221220ffe515bda155284dcfa2e910cb636a6f1df49b3cf26cdcbee0e6911046c922e764736f6c634300080f0033",
					"opcodes": "PUSH1 0x80 PUSH1 0x40 MSTORE CALLVALUE DUP1 ISZERO PUSH2 0x10 JUMPI PUSH1 0x0 DUP1 REVERT JUMPDEST POP PUSH2 0x8EF DUP1 PUSH2 0x20 PUSH1 0x0 CODECOPY PUSH1 0x0 RETURN INVALID PUSH1 0x80 PUSH1 0x40 MSTORE CALLVALUE DUP1 ISZERO PUSH2 0x10 JUMPI PUSH1 0x0 DUP1 REVERT JUMPDEST POP PUSH1 0x4 CALLDATASIZE LT PUSH2 0x36 JUMPI PUSH1 0x0 CALLDATALOAD PUSH1 0xE0 SHR DUP1 PUSH4 0xB6A46B3B EQ PUSH2 0x3B JUMPI DUP1 PUSH4 0xBC8BC2B4 EQ PUSH2 0x57 JUMPI JUMPDEST PUSH1 0x0 DUP1 REVERT JUMPDEST PUSH2 0x55 PUSH1 0x4 DUP1 CALLDATASIZE SUB DUP2 ADD SWAP1 PUSH2 0x50 SWAP2 SWAP1 PUSH2 0x418 JUMP JUMPDEST PUSH2 0x88 JUMP JUMPDEST STOP JUMPDEST PUSH2 0x71 PUSH1 0x4 DUP1 CALLDATASIZE SUB DUP2 ADD SWAP1 PUSH2 0x6C SWAP2 SWAP1 PUSH2 0x49B JUMP JUMPDEST PUSH2 0x2C4 JUMP JUMPDEST PUSH1 0x40 MLOAD PUSH2 0x7F SWAP3 SWAP2 SWAP1 PUSH2 0x57C JUMP JUMPDEST PUSH1 0x40 MLOAD DUP1 SWAP2 SUB SWAP1 RETURN JUMPDEST PUSH1 0x0 PUSH1 0x40 MLOAD DUP1 PUSH1 0x40 ADD PUSH1 0x40 MSTORE DUP1 DUP5 DUP5 DUP1 DUP1 PUSH1 0x1F ADD PUSH1 0x20 DUP1 SWAP2 DIV MUL PUSH1 0x20 ADD PUSH1 0x40 MLOAD SWAP1 DUP2 ADD PUSH1 0x40 MSTORE DUP1 SWAP4 SWAP3 SWAP2 SWAP1 DUP2 DUP2 MSTORE PUSH1 0x20 ADD DUP4 DUP4 DUP1 DUP3 DUP5 CALLDATACOPY PUSH1 0x0 DUP2 DUP5 ADD MSTORE PUSH1 0x1F NOT PUSH1 0x1F DUP3 ADD AND SWAP1 POP DUP1 DUP4 ADD SWAP3 POP POP POP POP POP POP POP DUP2 MSTORE PUSH1 0x20 ADD PUSH1 0x0 ISZERO ISZERO DUP2 MSTORE POP SWAP1 DUP1 PUSH1 0x1 DUP2 SLOAD ADD DUP1 DUP3 SSTORE DUP1 SWAP2 POP POP PUSH1 0x1 SWAP1 SUB SWAP1 PUSH1 0x0 MSTORE PUSH1 0x20 PUSH1 0x0 KECCAK256 SWAP1 PUSH1 0x2 MUL ADD PUSH1 0x0 SWAP1 SWAP2 SWAP1 SWAP2 SWAP1 SWAP2 POP PUSH1 0x0 DUP3 ADD MLOAD DUP2 PUSH1 0x0 ADD SWAP1 DUP2 PUSH2 0x124 SWAP2 SWAP1 PUSH2 0x7E7 JUMP JUMPDEST POP PUSH1 0x20 DUP3 ADD MLOAD DUP2 PUSH1 0x1 ADD PUSH1 0x0 PUSH2 0x100 EXP DUP2 SLOAD DUP2 PUSH1 0xFF MUL NOT AND SWAP1 DUP4 ISZERO ISZERO MUL OR SWAP1 SSTORE POP POP POP PUSH1 0x0 PUSH1 0x40 MLOAD DUP1 PUSH1 0x40 ADD PUSH1 0x40 MSTORE DUP1 DUP5 DUP5 DUP1 DUP1 PUSH1 0x1F ADD PUSH1 0x20 DUP1 SWAP2 DIV MUL PUSH1 0x20 ADD PUSH1 0x40 MLOAD SWAP1 DUP2 ADD PUSH1 0x40 MSTORE DUP1 SWAP4 SWAP3 SWAP2 SWAP1 DUP2 DUP2 MSTORE PUSH1 0x20 ADD DUP4 DUP4 DUP1 DUP3 DUP5 CALLDATACOPY PUSH1 0x0 DUP2 DUP5 ADD MSTORE PUSH1 0x1F NOT PUSH1 0x1F DUP3 ADD AND SWAP1 POP DUP1 DUP4 ADD SWAP3 POP POP POP POP POP POP POP DUP2 MSTORE PUSH1 0x20 ADD PUSH1 0x0 ISZERO ISZERO DUP2 MSTORE POP SWAP1 DUP1 PUSH1 0x1 DUP2 SLOAD ADD DUP1 DUP3 SSTORE DUP1 SWAP2 POP POP PUSH1 0x1 SWAP1 SUB SWAP1 PUSH1 0x0 MSTORE PUSH1 0x20 PUSH1 0x0 KECCAK256 SWAP1 PUSH1 0x2 MUL ADD PUSH1 0x0 SWAP1 SWAP2 SWAP1 SWAP2 SWAP1 SWAP2 POP PUSH1 0x0 DUP3 ADD MLOAD DUP2 PUSH1 0x0 ADD SWAP1 DUP2 PUSH2 0x1E3 SWAP2 SWAP1 PUSH2 0x7E7 JUMP JUMPDEST POP PUSH1 0x20 DUP3 ADD MLOAD DUP2 PUSH1 0x1 ADD PUSH1 0x0 PUSH2 0x100 EXP DUP2 SLOAD DUP2 PUSH1 0xFF MUL NOT AND SWAP1 DUP4 ISZERO ISZERO MUL OR SWAP1 SSTORE POP POP POP PUSH2 0x20E PUSH2 0x38D JUMP JUMPDEST DUP3 DUP3 DUP1 DUP1 PUSH1 0x1F ADD PUSH1 0x20 DUP1 SWAP2 DIV MUL PUSH1 0x20 ADD PUSH1 0x40 MLOAD SWAP1 DUP2 ADD PUSH1 0x40 MSTORE DUP1 SWAP4 SWAP3 SWAP2 SWAP1 DUP2 DUP2 MSTORE PUSH1 0x20 ADD DUP4 DUP4 DUP1 DUP3 DUP5 CALLDATACOPY PUSH1 0x0 DUP2 DUP5 ADD MSTORE PUSH1 0x1F NOT PUSH1 0x1F DUP3 ADD AND SWAP1 POP DUP1 DUP4 ADD SWAP3 POP POP POP POP POP POP POP DUP2 PUSH1 0x0 ADD DUP2 SWAP1 MSTORE POP PUSH1 0x0 DUP2 SWAP1 DUP1 PUSH1 0x1 DUP2 SLOAD ADD DUP1 DUP3 SSTORE DUP1 SWAP2 POP POP PUSH1 0x1 SWAP1 SUB SWAP1 PUSH1 0x0 MSTORE PUSH1 0x20 PUSH1 0x0 KECCAK256 SWAP1 PUSH1 0x2 MUL ADD PUSH1 0x0 SWAP1 SWAP2 SWAP1 SWAP2 SWAP1 SWAP2 POP PUSH1 0x0 DUP3 ADD MLOAD DUP2 PUSH1 0x0 ADD SWAP1 DUP2 PUSH2 0x29C SWAP2 SWAP1 PUSH2 0x7E7 JUMP JUMPDEST POP PUSH1 0x20 DUP3 ADD MLOAD DUP2 PUSH1 0x1 ADD PUSH1 0x0 PUSH2 0x100 EXP DUP2 SLOAD DUP2 PUSH1 0xFF MUL NOT AND SWAP1 DUP4 ISZERO ISZERO MUL OR SWAP1 SSTORE POP POP POP POP POP POP JUMP JUMPDEST PUSH1 0x0 DUP2 DUP2 SLOAD DUP2 LT PUSH2 0x2D4 JUMPI PUSH1 0x0 DUP1 REVERT JUMPDEST SWAP1 PUSH1 0x0 MSTORE PUSH1 0x20 PUSH1 0x0 KECCAK256 SWAP1 PUSH1 0x2 MUL ADD PUSH1 0x0 SWAP2 POP SWAP1 POP DUP1 PUSH1 0x0 ADD DUP1 SLOAD PUSH2 0x2F7 SWAP1 PUSH2 0x60A JUMP JUMPDEST DUP1 PUSH1 0x1F ADD PUSH1 0x20 DUP1 SWAP2 DIV MUL PUSH1 0x20 ADD PUSH1 0x40 MLOAD SWAP1 DUP2 ADD PUSH1 0x40 MSTORE DUP1 SWAP3 SWAP2 SWAP1 DUP2 DUP2 MSTORE PUSH1 0x20 ADD DUP3 DUP1 SLOAD PUSH2 0x323 SWAP1 PUSH2 0x60A JUMP JUMPDEST DUP1 ISZERO PUSH2 0x370 JUMPI DUP1 PUSH1 0x1F LT PUSH2 0x345 JUMPI PUSH2 0x100 DUP1 DUP4 SLOAD DIV MUL DUP4 MSTORE SWAP2 PUSH1 0x20 ADD SWAP2 PUSH2 0x370 JUMP JUMPDEST DUP3 ADD SWAP2 SWAP1 PUSH1 0x0 MSTORE PUSH1 0x20 PUSH1 0x0 KECCAK256 SWAP1 JUMPDEST DUP2 SLOAD DUP2 MSTORE SWAP1 PUSH1 0x1 ADD SWAP1 PUSH1 0x20 ADD DUP1 DUP4 GT PUSH2 0x353 JUMPI DUP3 SWAP1 SUB PUSH1 0x1F AND DUP3 ADD SWAP2 JUMPDEST POP POP POP POP POP SWAP1 DUP1 PUSH1 0x1 ADD PUSH1 0x0 SWAP1 SLOAD SWAP1 PUSH2 0x100 EXP SWAP1 DIV PUSH1 0xFF AND SWAP1 POP DUP3 JUMP JUMPDEST PUSH1 0x40 MLOAD DUP1 PUSH1 0x40 ADD PUSH1 0x40 MSTORE DUP1 PUSH1 0x60 DUP2 MSTORE PUSH1 0x20 ADD PUSH1 0x0 ISZERO ISZERO DUP2 MSTORE POP SWAP1 JUMP JUMPDEST PUSH1 0x0 DUP1 REVERT JUMPDEST PUSH1 0x0 DUP1 REVERT JUMPDEST PUSH1 0x0 DUP1 REVERT JUMPDEST PUSH1 0x0 DUP1 REVERT JUMPDEST PUSH1 0x0 DUP1 REVERT JUMPDEST PUSH1 0x0 DUP1 DUP4 PUSH1 0x1F DUP5 ADD SLT PUSH2 0x3D8 JUMPI PUSH2 0x3D7 PUSH2 0x3B3 JUMP JUMPDEST JUMPDEST DUP3 CALLDATALOAD SWAP1 POP PUSH8 0xFFFFFFFFFFFFFFFF DUP2 GT ISZERO PUSH2 0x3F5 JUMPI PUSH2 0x3F4 PUSH2 0x3B8 JUMP JUMPDEST JUMPDEST PUSH1 0x20 DUP4 ADD SWAP2 POP DUP4 PUSH1 0x1 DUP3 MUL DUP4 ADD GT ISZERO PUSH2 0x411 JUMPI PUSH2 0x410 PUSH2 0x3BD JUMP JUMPDEST JUMPDEST SWAP3 POP SWAP3 SWAP1 POP JUMP JUMPDEST PUSH1 0x0 DUP1 PUSH1 0x20 DUP4 DUP6 SUB SLT ISZERO PUSH2 0x42F JUMPI PUSH2 0x42E PUSH2 0x3A9 JUMP JUMPDEST JUMPDEST PUSH1 0x0 DUP4 ADD CALLDATALOAD PUSH8 0xFFFFFFFFFFFFFFFF DUP2 GT ISZERO PUSH2 0x44D JUMPI PUSH2 0x44C PUSH2 0x3AE JUMP JUMPDEST JUMPDEST PUSH2 0x459 DUP6 DUP3 DUP7 ADD PUSH2 0x3C2 JUMP JUMPDEST SWAP3 POP SWAP3 POP POP SWAP3 POP SWAP3 SWAP1 POP JUMP JUMPDEST PUSH1 0x0 DUP2 SWAP1 POP SWAP2 SWAP1 POP JUMP JUMPDEST PUSH2 0x478 DUP2 PUSH2 0x465 JUMP JUMPDEST DUP2 EQ PUSH2 0x483 JUMPI PUSH1 0x0 DUP1 REVERT JUMPDEST POP JUMP JUMPDEST PUSH1 0x0 DUP2 CALLDATALOAD SWAP1 POP PUSH2 0x495 DUP2 PUSH2 0x46F JUMP JUMPDEST SWAP3 SWAP2 POP POP JUMP JUMPDEST PUSH1 0x0 PUSH1 0x20 DUP3 DUP5 SUB SLT ISZERO PUSH2 0x4B1 JUMPI PUSH2 0x4B0 PUSH2 0x3A9 JUMP JUMPDEST JUMPDEST PUSH1 0x0 PUSH2 0x4BF DUP5 DUP3 DUP6 ADD PUSH2 0x486 JUMP JUMPDEST SWAP2 POP POP SWAP3 SWAP2 POP POP JUMP JUMPDEST PUSH1 0x0 DUP2 MLOAD SWAP1 POP SWAP2 SWAP1 POP JUMP JUMPDEST PUSH1 0x0 DUP3 DUP3 MSTORE PUSH1 0x20 DUP3 ADD SWAP1 POP SWAP3 SWAP2 POP POP JUMP JUMPDEST PUSH1 0x0 JUMPDEST DUP4 DUP2 LT ISZERO PUSH2 0x502 JUMPI DUP1 DUP3 ADD MLOAD DUP2 DUP5 ADD MSTORE PUSH1 0x20 DUP2 ADD SWAP1 POP PUSH2 0x4E7 JUMP JUMPDEST DUP4 DUP2 GT ISZERO PUSH2 0x511 JUMPI PUSH1 0x0 DUP5 DUP5 ADD MSTORE JUMPDEST POP POP POP POP JUMP JUMPDEST PUSH1 0x0 PUSH1 0x1F NOT PUSH1 0x1F DUP4 ADD AND SWAP1 POP SWAP2 SWAP1 POP JUMP JUMPDEST PUSH1 0x0 PUSH2 0x533 DUP3 PUSH2 0x4C8 JUMP JUMPDEST PUSH2 0x53D DUP2 DUP6 PUSH2 0x4D3 JUMP JUMPDEST SWAP4 POP PUSH2 0x54D DUP2 DUP6 PUSH1 0x20 DUP7 ADD PUSH2 0x4E4 JUMP JUMPDEST PUSH2 0x556 DUP2 PUSH2 0x517 JUMP JUMPDEST DUP5 ADD SWAP2 POP POP SWAP3 SWAP2 POP POP JUMP JUMPDEST PUSH1 0x0 DUP2 ISZERO ISZERO SWAP1 POP SWAP2 SWAP1 POP JUMP JUMPDEST PUSH2 0x576 DUP2 PUSH2 0x561 JUMP JUMPDEST DUP3 MSTORE POP POP JUMP JUMPDEST PUSH1 0x0 PUSH1 0x40 DUP3 ADD SWAP1 POP DUP2 DUP2 SUB PUSH1 0x0 DUP4 ADD MSTORE PUSH2 0x596 DUP2 DUP6 PUSH2 0x528 JUMP JUMPDEST SWAP1 POP PUSH2 0x5A5 PUSH1 0x20 DUP4 ADD DUP5 PUSH2 0x56D JUMP JUMPDEST SWAP4 SWAP3 POP POP POP JUMP JUMPDEST PUSH32 0x4E487B7100000000000000000000000000000000000000000000000000000000 PUSH1 0x0 MSTORE PUSH1 0x41 PUSH1 0x4 MSTORE PUSH1 0x24 PUSH1 0x0 REVERT JUMPDEST PUSH32 0x4E487B7100000000000000000000000000000000000000000000000000000000 PUSH1 0x0 MSTORE PUSH1 0x22 PUSH1 0x4 MSTORE PUSH1 0x24 PUSH1 0x0 REVERT JUMPDEST PUSH1 0x0 PUSH1 0x2 DUP3 DIV SWAP1 POP PUSH1 0x1 DUP3 AND DUP1 PUSH2 0x622 JUMPI PUSH1 0x7F DUP3 AND SWAP2 POP JUMPDEST PUSH1 0x20 DUP3 LT DUP2 SUB PUSH2 0x635 JUMPI PUSH2 0x634 PUSH2 0x5DB JUMP JUMPDEST JUMPDEST POP SWAP2 SWAP1 POP JUMP JUMPDEST PUSH1 0x0 DUP2 SWAP1 POP DUP2 PUSH1 0x0 MSTORE PUSH1 0x20 PUSH1 0x0 KECCAK256 SWAP1 POP SWAP2 SWAP1 POP JUMP JUMPDEST PUSH1 0x0 PUSH1 0x20 PUSH1 0x1F DUP4 ADD DIV SWAP1 POP SWAP2 SWAP1 POP JUMP JUMPDEST PUSH1 0x0 DUP3 DUP3 SHL SWAP1 POP SWAP3 SWAP2 POP POP JUMP JUMPDEST PUSH1 0x0 PUSH1 0x8 DUP4 MUL PUSH2 0x69D PUSH32 0xFFFFFFFFFFFFFFFFFFFFFFFFFFFFFFFFFFFFFFFFFFFFFFFFFFFFFFFFFFFFFFFF DUP3 PUSH2 0x660 JUMP JUMPDEST PUSH2 0x6A7 DUP7 DUP4 PUSH2 0x660 JUMP JUMPDEST SWAP6 POP DUP1 NOT DUP5 AND SWAP4 POP DUP1 DUP7 AND DUP5 OR SWAP3 POP POP POP SWAP4 SWAP3 POP POP POP JUMP JUMPDEST PUSH1 0x0 DUP2 SWAP1 POP SWAP2 SWAP1 POP JUMP JUMPDEST PUSH1 0x0 PUSH2 0x6E4 PUSH2 0x6DF PUSH2 0x6DA DUP5 PUSH2 0x465 JUMP JUMPDEST PUSH2 0x6BF JUMP JUMPDEST PUSH2 0x465 JUMP JUMPDEST SWAP1 POP SWAP2 SWAP1 POP JUMP JUMPDEST PUSH1 0x0 DUP2 SWAP1 POP SWAP2 SWAP1 POP JUMP JUMPDEST PUSH2 0x6FE DUP4 PUSH2 0x6C9 JUMP JUMPDEST PUSH2 0x712 PUSH2 0x70A DUP3 PUSH2 0x6EB JUMP JUMPDEST DUP5 DUP5 SLOAD PUSH2 0x66D JUMP JUMPDEST DUP3 SSTORE POP POP POP POP JUMP JUMPDEST PUSH1 0x0 SWAP1 JUMP JUMPDEST PUSH2 0x727 PUSH2 0x71A JUMP JUMPDEST PUSH2 0x732 DUP2 DUP5 DUP5 PUSH2 0x6F5 JUMP JUMPDEST POP POP POP JUMP JUMPDEST JUMPDEST DUP2 DUP2 LT ISZERO PUSH2 0x756 JUMPI PUSH2 0x74B PUSH1 0x0 DUP3 PUSH2 0x71F JUMP JUMPDEST PUSH1 0x1 DUP2 ADD SWAP1 POP PUSH2 0x738 JUMP JUMPDEST POP POP JUMP JUMPDEST PUSH1 0x1F DUP3 GT ISZERO PUSH2 0x79B JUMPI PUSH2 0x76C DUP2 PUSH2 0x63B JUMP JUMPDEST PUSH2 0x775 DUP5 PUSH2 0x650 JUMP JUMPDEST DUP2 ADD PUSH1 0x20 DUP6 LT ISZERO PUSH2 0x784 JUMPI DUP2 SWAP1 POP JUMPDEST PUSH2 0x798 PUSH2 0x790 DUP6 PUSH2 0x650 JUMP JUMPDEST DUP4 ADD DUP3 PUSH2 0x737 JUMP JUMPDEST POP POP JUMPDEST POP POP POP JUMP JUMPDEST PUSH1 0x0 DUP3 DUP3 SHR SWAP1 POP SWAP3 SWAP2 POP POP JUMP JUMPDEST PUSH1 0x0 PUSH2 0x7BE PUSH1 0x0 NOT DUP5 PUSH1 0x8 MUL PUSH2 0x7A0 JUMP JUMPDEST NOT DUP1 DUP4 AND SWAP2 POP POP SWAP3 SWAP2 POP POP JUMP JUMPDEST PUSH1 0x0 PUSH2 0x7D7 DUP4 DUP4 PUSH2 0x7AD JUMP JUMPDEST SWAP2 POP DUP3 PUSH1 0x2 MUL DUP3 OR SWAP1 POP SWAP3 SWAP2 POP POP JUMP JUMPDEST PUSH2 0x7F0 DUP3 PUSH2 0x4C8 JUMP JUMPDEST PUSH8 0xFFFFFFFFFFFFFFFF DUP2 GT ISZERO PUSH2 0x809 JUMPI PUSH2 0x808 PUSH2 0x5AC JUMP JUMPDEST JUMPDEST PUSH2 0x813 DUP3 SLOAD PUSH2 0x60A JUMP JUMPDEST PUSH2 0x81E DUP3 DUP3 DUP6 PUSH2 0x75A JUMP JUMPDEST PUSH1 0x0 PUSH1 0x20 SWAP1 POP PUSH1 0x1F DUP4 GT PUSH1 0x1 DUP2 EQ PUSH2 0x851 JUMPI PUSH1 0x0 DUP5 ISZERO PUSH2 0x83F JUMPI DUP3 DUP8 ADD MLOAD SWAP1 POP JUMPDEST PUSH2 0x849 DUP6 DUP3 PUSH2 0x7CB JUMP JUMPDEST DUP7 SSTORE POP PUSH2 0x8B1 JUMP JUMPDEST PUSH1 0x1F NOT DUP5 AND PUSH2 0x85F DUP7 PUSH2 0x63B JUMP JUMPDEST PUSH1 0x0 JUMPDEST DUP3 DUP2 LT ISZERO PUSH2 0x887 JUMPI DUP5 DUP10 ADD MLOAD DUP3 SSTORE PUSH1 0x1 DUP3 ADD SWAP2 POP PUSH1 0x20 DUP6 ADD SWAP5 POP PUSH1 0x20 DUP2 ADD SWAP1 POP PUSH2 0x862 JUMP JUMPDEST DUP7 DUP4 LT ISZERO PUSH2 0x8A4 JUMPI DUP5 DUP10 ADD MLOAD PUSH2 0x8A0 PUSH1 0x1F DUP10 AND DUP3 PUSH2 0x7AD JUMP JUMPDEST DUP4 SSTORE POP JUMPDEST PUSH1 0x1 PUSH1 0x2 DUP9 MUL ADD DUP9 SSTORE POP POP POP JUMPDEST POP POP POP POP POP POP JUMP INVALID LOG2 PUSH5 0x6970667358 0x22 SLT KECCAK256 SELFDESTRUCT 0xE5 ISZERO 0xBD LOG1 SSTORE 0x28 0x4D 0xCF LOG2 0xE9 LT 0xCB PUSH4 0x6A6F1DF4 SWAP12 EXTCODECOPY CALLCODE PUSH13 0xDCBEE0E6911046C922E764736F PUSH13 0x634300080F0033000000000000 "
				},
				"gasEstimates": {
					"creation": {
						"codeDepositCost": "457400",
						"executionCost": "493",
						"totalCost": "457893"
					},
					"external": {
						"create(string)": "infinite",
						"todos(uint256)": "infinite"
					}
				},
				"methodIdentifiers": {
					"create(string)": "b6a46b3b",
					"todos(uint256)": "bc8bc2b4"
				}
			},
			"storageLayout": {
				"storage": [
					{
						"astId": 10,
						"contract": "Structs.sol:Todos",
						"label": "todos",
						"offset": 0,
						"slot": "0",
						"type": "t_array(t_struct(Todo)6_storage)dyn_storage"
					}
				],
				"types": {
					"t_array(t_struct(Todo)6_storage)dyn_storage": {
						"base": "t_struct(Todo)6_storage",
						"encoding": "dynamic_array",
						"label": "struct Todos.Todo[]",
						"numberOfBytes": "32"
					},
					"t_bool": {
						"encoding": "inplace",
						"label": "bool",
						"numberOfBytes": "1"
					},
					"t_string_storage": {
						"encoding": "bytes",
						"label": "string",
						"numberOfBytes": "32"
					},
					"t_struct(Todo)6_storage": {
						"encoding": "inplace",
						"label": "struct Todos.Todo",
						"members": [
							{
								"astId": 3,
								"contract": "Structs.sol:Todos",
								"label": "text",
								"offset": 0,
								"slot": "0",
								"type": "t_string_storage"
							},
							{
								"astId": 5,
								"contract": "Structs.sol:Todos",
								"label": "completed",
								"offset": 0,
								"slot": "1",
								"type": "t_bool"
							}
						],
						"numberOfBytes": "64"
					}
				}
			},
			"userdoc": {
				"kind": "user",
				"methods": {},
				"version": 1
			}
		}
	}
}